:100000000C9465000C948D000C948D000C948D0064
:100010000C948D000C948D000C948D000C948D002C
:100020000C948D000C948D000C948D000C948D001C
:100030000C948D000C948D000C948D000C948D000C
:100040000C9461110C948D000C94D1110C94AB1193
:100050000C948D000C948D000C948D000C948D00EC
:100060000C948D000C948D007C3C3E5E2B3D3F2F0C
:100070005B5D3B2C2A225C000000000800020100AE
:100080000003040700000000000000000000000062
:10009000250028002B0000000000240027002A0073
:1000A000040404040404040402020202020203031E
:1000B0000303030301020408102040800102040826
:1000C00010200102040810205A1211241FBECFEF85
:1000D000D8E0DEBFCDBF11E0A0E0B1E0E4E9FEE290
:1000E00002C005900D92A23FB107D9F725E0A2EF1B
:1000F000B1E001C01D92A432B207E1F710E0C5E6FD
:10010000D0E004C02197FE010E94F215C436D10749
:10011000C9F70E94D9120C9448170C94000090E083
:10012000FC01EC54FF4F249180569F4FFC018491B9
:10013000882399F090E0880F991FFC01EA56FF4F41
:10014000A591B491FC01E457FF4F859194918FB72D
:10015000F894EC91E22BEC938FBF0895FC01538D42
:10016000448D252F30E0842F90E0821B930B541791
:1001700010F0CF96089501970895FC01918D828D1E
:10018000981761F0A28DAE0FBF2FB11D5D968C91B7
:10019000928D9F5F9F73928F90E008958FEF9FEFF6
:1001A0000895FC01918D828D981731F0828DE80FB2
:1001B000F11D858D90E008958FEF9FEF0895FC016C
:1001C000918D228D892F90E0805C9F4F821B910939
:1001D0008F7399270895FC01A48DA80FB92FB11D25
:1001E000A35ABF4F2C91848D90E001968F7399276D
:1001F000848FA689B7892C93A089B1898C9183704B
:1002000080648C93938D848D981306C00288F38943
:10021000E02D80818F7D80830895EF92FF920F9370
:100220001F93CF93DF93EC0181E0888F9B8D8C8DA2
:1002300098131AC0E889F989808185FF15C09FB796
:10024000F894EE89FF896083E889F9898081837059
:10025000806480839FBF81E090E0DF91CF911F9108
:100260000F91FF90EF900895F62E0B8D10E00F5F29
:100270001F4F0F731127E02E8C8D8E110CC00FB6FF
:1002800007FCFACFE889F989808185FFF5CFCE0197
:100290000E94EB00F1CFEB8DEC0FFD2FF11DE35A27
:1002A000FF4FF0829FB7F8940B8FEA89FB8980811A
:1002B0008062CFCFCF93DF93EC01888D8823B9F094
:1002C000AA89BB89E889F9898C9185FD03C0808161
:1002D00086FD0DC00FB607FCF7CF8C9185FFF2CFDE
:1002E000808185FFEDCFCE010E94EB00E9CFDF9149
:1002F000CF9108952FB7F8946091FB017091FC01A4
:100300008091FD019091FE012FBF089590E0FC01C6
:10031000E858FF4F2491FC01EC54FF4F3491FC014D
:10032000E056FF4FE491EE23C9F0222339F0233049
:1003300001F1A8F4213019F1223029F1F0E0EE0F9B
:10034000FF1FE457FF4FA591B4918FB7F894EC913C
:10035000611126C030953E233C938FBF089527300E
:10036000A9F02830C9F0243049F7809180008F7DB2
:1003700003C0809180008F7780938000DFCF84B5A9
:100380008F7784BDDBCF84B58F7DFBCF8091B000AC
:100390008F778093B000D2CF8091B0008F7DF9CF5E
:1003A0003E2BDACFAF92BF92CF92DF92EF92FF92C5
:1003B0000F931F93CF93DF936C017B018B01040F8D
:1003C000151FEB015E01AE18BF08C017D10759F029
:1003D0006991D601ED91FC910190F081E02DC6016B
:1003E0000995892B79F7C501DF91CF911F910F9165
:1003F000FF90EF90DF90CF90BF90AF9008958FB7B0
:10040000F8948091F9018FBF089561E0FC01848127
:100410000E9486018091F80181111092F8010895DF
:100420008EBD00000DB407FEFDCF8EB508958FEF91
:100430000C9410020F931F93CF93DF93EC010E9453
:100440007A018B010E9417028F3F69F00E947A01A6
:10045000601B710B6C177D07A8F380E0DF91CF91D3
:100460001F910F91089581E0F9CF8CBD9DBD089536
:10047000CF93DF93EC018091F801811109C081E0F5
:100480008093F8018091A2049091A3040E94350208
:1004900060E08C81DF91CF910C9486018F929F92C6
:1004A000AF92BF92FF920F931F93CF93DF93EC0114
:1004B000F62E49015A018E81882389F08F81988513
:1004C0009C012F5F3F4F38872F838230924018F472
:1004D0000E941702F3CFCE010E9405021E82CE01B8
:1004E0000E9438028CE291E00E941A028F2D8064F3
:1004F0000E94100208E110E0D501C401002E04C0E2
:10050000B695A795979587950A94D2F70E94100201
:1005100008501109083F8FEF180771F785E9FF2090
:1005200021F028E087E8F2128FEF0E94100210E01D
:100530000E9417028A8787FF04C01F3F11F01F5FC8
:10054000F7CFDF91CF911F910F91FF90BF90AF90A8
:100550009F908F900895AF92BF92CF92DF92EF92CB
:10056000FF920F931F93CF93DF93EC016901C801B2
:10057000820F931F8130924050F58E81882379F04D
:1005800088819981AA81BB8184179507A607B7073F
:1005900031F48F819885C816D90608F042C0488387
:1005A00059836A837B838B85833039F089E0440FDC
:1005B000551F661F771F8A95D1F79A01AB0161E13C
:1005C000CE010E944E02882389F083E08D83CE0104
:1005D0000E94050280E0DF91CF911F910F91FF9063
:1005E000EF90DF90CF90BF90AF9008950E947A0176
:1005F0005B010E9417028A878F3F69F40E947A018B
:100600006A197B096D327140A0F38FE08D83CE01B2
:100610000E940502DCCF8E3F89F418861F8281E09C
:100620008E838F8198858C159D0550F40E9417024A
:100630008F819885019698878F83F3CF8DE0E6CFE1
:100640006701E00EF11E0E941702F60181936F010F
:10065000EE15FF05C1F78F819885080F191F1887C0
:100660000F838985882319F001151240A0F08E812F
:10067000882389F08F8198859C012F5F3F4F3887B1
:100680002F838230924018F40E941702F3CFCE01DC
:100690000E9405021E8281E09ECFCF92DF92EF92F0
:1006A000FF920F93CF93DF93EC01690182E1411533
:1006B00051056105710599F08B85833039F089E02A
:1006C000440F551F661F771F8A95D1F79A01AB011A
:1006D00068E1CE010E944E02882319F084E08D83E8
:1006E0002DC08EEF0E94100276018EEFD81AF7010E
:1006F00081917F010E941002EC14FD04C1F78FEF7D
:100700000E9410028FEF0E9410020E9417028A8737
:100710008F71853071F4011116C0CE010E9405025F
:1007200081E0DF91CF910F91FF90EF90DF90CF901C
:10073000089581E18D83CE010E940502CE010E94C1
:10074000050280E0EECF88E592E00E941A02811156
:1007500002C085E1C4CF20E030E0A9016DE0CE0108
:100760000E944E02882311F084E1B9CF0E94170243
:100770008111FACFD2CF0F934091F4015091F5013E
:100780006091F6017091F701411551056105710500
:1007900099F0082F23E032E0809103049091040443
:1007A0000E944D03882349F01092F4011092F50144
:1007B0001092F6011092F70181E00F9108950F93C6
:1007C000CF93C82F8091F301811105C0C1E08C2F18
:1007D000CF910F91089540910801509109016091C6
:1007E0000A0170910B010C2F23E032E08091030489
:1007F000909104040E944D03811102C0C0E0E7CF34
:10080000CC2321F381E00E94BB038823B9F310922B
:10081000F301DDCF8F929F92AF92BF92EF92FF9242
:100820000F931F93CF934B015C01C42F809108015C
:1008300090910901A0910A01B0910B0188159905C9
:10084000AA05BB0551F181E00E94DF0381110BC0B5
:1008500080E0CF911F910F91FF90EF90BF90AF90EC
:100860009F908F90089583E0E82E82E0F82E00E0BC
:1008700012E030E020E0B501A401809103049091E2
:1008800004040E94AB02882319F38092080190921D
:100890000901A0920A01B0920B014091F3014C2B87
:1008A0004093F30181E0D5CF8F929F92AF92BF9298
:1008B000CF92DF92EF92FF92CF9324EA34E030930D
:1008C000040420930304882309F46DC040E060E031
:1008D00070E0CB010E940A0481110BC080E0CF912F
:1008E000FF90EF90DF90CF90BF90AF909F908F9050
:1008F00008958091C1038F7789F78091CD039091FE
:10090000CE03A091CF03B091D00384369105A10509
:10091000B10520F3C090C903D090CA03E090CB0387
:10092000F090CC03C114D104E104F104B9F240E029
:10093000C701B6010E940A04882381F280910E0249
:1009400090910F028115924049F6A0911302AA23BB
:1009500029F260911102709112026115710509F47A
:10096000BDCF20911002222309F4B8CFA093C20476
:100970002093B40490E080E030E0E1E0F0E0C82FA4
:10098000AF01082E02C0440F551F0A94E2F7241746
:10099000350769F041E0480F01968930910579F7F4
:1009A0004093BD049BCFC12CD12C7601C0CF809346
:1009B000BD042091190230911A0250E040E0211547
:1009C000310541F4209127023091280240912902FB
:1009D00050912A022093B5043093B6044093B70493
:1009E0005093B80446015701860E971EA11CB11CF6
:1009F0008092C3049092C404A092C504B092C6042D
:100A0000E0911402F0911502F093C904E093C80438
:100A1000B0E00E94E715DC01CB01880D991DAA1DED
:100A2000BB1D8093CA049093CB04A093CC04B093D5
:100A3000CD0425E0EE0FFF1F2A95E1F7E150FE4FB0
:100A4000EF2FFF27E6958E0F9F1FA11DB11D8093ED
:100A5000BE049093BF04A093C004B093C1048090DF
:100A6000160290901702B12CA12C8114910441F42C
:100A70008090230290902402A0902502B09026023C
:100A8000C81AD90AEA0AFB0AC80CD91CEA1CFB1CC2
:100A900004C0F694E794D794C794CA95D2F7C0924D
:100AA000B904D092BA04E092BB04F092BC0485EF82
:100AB000C8168FE0D806E104F10428F48CE0809396
:100AC000C70481E00CCF80E125EFC2162FEFD206DC
:100AD000E104F104A0F380912F0290913002A091E3
:100AE0003102B09132028093CA049093CB04A09358
:100AF000CC04B093CD0480E2E2CF4F925F926F922C
:100B00007F928F929F92AF92BF92CF92DF92EF929D
:100B1000FF920F931F93CF93DF93EC014230510567
:100B20006105710590F480E0DF91CF911F910F91E5
:100B3000FF90EF90DF90CF90BF90AF909F908F90FD
:100B40007F906F905F904F90089589859A85AB85CF
:100B5000BC850196A11DB11D84179507A607B7078F
:100B600010F3CB88DC88ED88FE888F89803109F00E
:100B700042C0BB27A72F962F852F480159012A0174
:100B80003B01C80ED91EEA1EFB1E80910801909100
:100B90000901A0910A01B0910B01C816D906EA0615
:100BA000FB0699F58F898031C1F5B301A201552764
:100BB00066277727440F551F4D5F5D4FFA019182DD
:100BC00080828091F30181608093F3018A89823071
:100BD00080F08D819E81AF81B8858C0D9D1DAE1DED
:100BE000BF1D8093F4019093F501A093F601B0939B
:100BF000F70181E099CFDB01CA01E7E0B695A7953F
:100C000097958795EA95D1F7B8CF40E0C701B6012F
:100C10000E940A048111C6CF86CFB301A2014F778B
:100C2000552766277727440F551F440F551F4D5FE3
:100C30005D4FFA0180829182A282B382C2CF8F92ED
:100C40009F92AF92BF92CF92DF92EF92FF920F935B
:100C50001F93CF93DF93FC0181859285A385B48593
:100C60000196A11DB11D84179507A607B70770F45B
:100C700080E0DF91CF911F910F91FF90EF90DF9077
:100C8000CF90BF90AF909F908F9008958388948865
:100C9000A588B6888789803189F5BB27A72F962F2D
:100CA000852FE9016A017B018F01BC01CD01680D2F
:100CB000791D8A1D9B1D8090080190900901A090CC
:100CC0000A01B0900B0186169706A806B90601F531
:100CD000F8018789803111F5DD24EE24FF24F60127
:100CE000EE0FFF1FED5FFD4F80819181B0E0A0E02E
:100CF00088839983AA83BB8381E0BBCFDB01CA01D0
:100D0000C7E0B695A79597958795CA95D1F7C9CFAE
:100D100040E00E940A048111DBCFAACFE894C7F813
:100D2000DD24EE24FF24F601EE0FFF1FEE0FFF1F60
:100D3000ED5FFD4F80819181A281B381BF70D8CFDB
:100D40004F925F926F927F92AF92BF92CF92DF925B
:100D5000EF92FF920F931F93CF93DF9300D000D0B9
:100D6000CDB7DEB78C0149835A836B837C835901ED
:100D7000C12CD12C7601412C82E0582E612C712C93
:100D800049815A816B817C819E012F5F3F4FC80151
:100D90000E941F06882339F1F8018585A30192017D
:100DA00004C0220F331F441F551F8A95D2F7DA0162
:100DB000C901C80ED91EEA1EFB1E49815A816B81EA
:100DC0007C818789803111F188EF9FEFAFEFBFE021
:100DD000481759076A077B0798F2F501C082D1824C
:100DE000E282F38281E00F900F900F900F90DF91DD
:100DF000CF911F910F91FF90EF90DF90CF90BF9018
:100E0000AF907F906F905F904F90089588EF9FEF25
:100E1000A0E0B0E0DDCFCF93DF93FC01258122235A
:100E200021F080E0DF91CF910895EC018091C7041B
:100E3000803159F582E08583178A108E118E128ECB
:100E40008091C8049091C904B0E0A0E025E0880F2B
:100E5000991FAA1FBB1F2A95D1F7838B948BA58B53
:100E6000B68B80EB94E09C8F8B8F81E08C831E820D
:100E70001F82188619861A861B861C861D861E866A
:100E80001F86188A198A1A8ACDCF803251F683E0DC
:100E900085834091CA045091CB046091CC04709139
:100EA000CD04478B508F618F728F9F012D5E3F4F16
:100EB00080EB94E00E94A0068111D3CFB2CF1F93A4
:100EC000CF93DF93FC0125812223D1F1162FEC0172
:100ED000848187FF2AC0668577858089918941E072
:100EE0000E940A04882361F1EA8980E2E89FF00108
:100EF0001124ED5FFD4F309719F18D81823040F460
:100F00008B899C89AD89BE89848F958FA68FB78F79
:100F10008F89988D938F828F8F89988DA98DBA8DA7
:100F2000B58BA48B8C818F778C83111103C08C813E
:100F30008F7E8C83812FDF91CF911F910C94DF03E3
:100F400080E0DF91CF911F9108958F929F92AF9291
:100F5000BF92CF92DF92EF92FF920F931F93CF93A6
:100F6000DF93EC018D8181110EC080E0DF91CF9184
:100F70001F910F91FF90EF90DF90CF90BF90AF90B7
:100F80009F908F9008950B891C892D893E890417A5
:100F900015072607370748F34A015B01823031F411
:100FA0008A869B86AC86BD8681E0E0CF8114910461
:100FB000A104B10449F41E821F82188619861A867C
:100FC0001B861C861D86F0CF0A851B852C853D85DA
:100FD000EB8DFC8D858590E00996B901A801415003
:100FE000510961097109082E04C0769567955795D6
:100FF00047950A94D2F775016401E1E0CE1AD10851
:10100000E108F10804C0F694E794D794C7948A9550
:10101000D2F7C416D506E606F70620F0012B022B00
:10102000032B11F58F89988DA98DBA8D8E839F839F
:10103000A887B9878E010A5F1F4FC114D104E1044C
:10104000F10409F4ADCF4E815F81688579859801FF
:101050008B8D9C8D0E941F0691E0C91AD108E10872
:10106000F1088111EACF81CFC41AD50AE60AF70A3E
:10107000E1CFFF920F931F93CF93DF93EC018D810C
:10108000813041F090E080E0DF91CF911F910F918E
:10109000FF9008958C8181FFF5CF82FD1BC00091E8
:1010A000030410910404C8010E9438020E94170230
:1010B000F82EC8010E9405028FEFF812E3CF8C8151
:1010C00085FF1BC060E0CE010E945F078C818F7D91
:1010D0008C83D8CF4B895C896D897E898A859B8575
:1010E000AC85BD8584179507A607B707C1F2CE0169
:1010F0000E94A5078111D3CFC5CF4091F401509133
:10110000F5016091F6017091F701452B462B472BB5
:1011100021F080E00E94BB03B5CF80618C832A85DB
:101120003B85317080E092E0821B930BADCFCF9373
:10113000DF93EC0161E00E945F07882311F01D82BC
:1011400081E0DF91CF9108953F924F925F926F922D
:101150007F928F929F92AF92BF92CF92DF92EF9247
:10116000FF920F931F93CF93DF93CDB7DEB72C97EA
:101170000FB6F894DEBF0FBECDBF5C01DC015B96FD
:101180008D909C905C9716964D905D906D907C90A4
:101190001997411451046104710409F468C0BFEF48
:1011A0004B1A5B0A6B0A7B0A312CF401818592850C
:1011B000A385B4859C01AD012F5F3F4F4F4F5F4F1B
:1011C00029873A874B875C87730162011D821E82E3
:1011D0001F821886F40181859285A385B4852D81AF
:1011E0003E814F815885281739074A075B0708F069
:1011F00056C089859A85AB85BC858C159D05AE0545
:10120000BF0550F482E0C82ED12CE12CF12C92E0E5
:10121000492E512C612C712C9E012F5F3F4FB7013D
:10122000A601C4010E941F068823C9F189819A8101
:10123000AB81BC81892B8A2B8B2B09F126013701CD
:101240009FEF491A590A690A790A2D813E814F8117
:1012500058852F5F3F4F4F4F5F4F2D833E834F8306
:1012600058873FEFC31AD30AE30AF30AB3CFF40156
:1012700040805180628073803324339496CFC414AD
:10128000D504E604F70409F70FEF1FEF2FEF3FE057
:10129000B701A601C4010E947D05811119C080E03B
:1012A0002C960FB6F894DEBF0FBECDBFDF91CF9165
:1012B0001F910F91FF90EF90DF90CF90BF90AF9074
:1012C0009F908F907F906F905F904F903F90089588
:1012D000D50116964D915D916D917C9119974115AF
:1012E00051056105710539F097018601C4010E941D
:1012F0007D058823A1F2D5011696CD92DD92ED925F
:10130000FC921997332051F0D701C6010196A11D17
:10131000B11DF40180839183A283B383F501878992
:10132000908DA18DB28D892B8A2B8B2B39F48481E2
:10133000C78AD08EE18EF28E80688483F501848125
:101340008062848381E0ACCF2F923F924F925F9274
:101350006F927F928F929F92AF92BF92CF92DF92C5
:10136000EF92FF920F931F93CF93DF9300D000D0A3
:101370001F92CDB7DEB77C015B01342E5D83DC01AB
:1013800015968C911597813009F0CEC014962C904B
:1013900021FECAC022FCB4C0C32CDD8022947FE0B1
:1013A00027222094B22DB1702B2ED7011A964D9181
:1013B0005D916D917C911D97C114D10409F428C1F0
:1013C0005B968D919C915C97FC0174807A948A0164
:1013D0009B0169E036952795179507956A95D1F792
:1013E00070228A011170711020C001151105E9F4F5
:1013F00016964D915D916D917C911997411551050E
:101400006105710509F099C057968D919D910D90D8
:10141000BC91A02D0097A105B10509F0B0C0C7018E
:101420000E94A408882309F47FC080E092E0801B1A
:10143000910B46018C159D0508F44C01D7015B9674
:101440004D915C915C9716968D919D910D90BC91FC
:10145000A02D0297A109B109FA01258504C0880FC2
:10146000991FAA1FBB1F2A95D2F746855785608909
:101470007189840F951FA61FB71F9C01AD01270D11
:10148000311D411D511D29013A01811432E093069D
:1014900009F07BC08091080190910901A0910A0197
:1014A000B0910B0184159505A605B70559F48FEF8A
:1014B0009FEFDC018093080190930901A0930A013A
:1014C000B0930B01022D9501B301A2018091030499
:1014D000909104040E944D03882331F19EEFB91AC4
:1014E000C818D908F70182859385A485B585880D2C
:1014F000991DA11DB11D82879387A487B58755CFFC
:10150000F701438954896589768982859385A48505
:10151000B585481759076A077B0709F43DCFC7010E
:101520000E94A507811138CF81E090E0D701139682
:101530009C938E93129780E007C09E012F5F3F4FD0
:101540000E941F06811102C090E079C089819A81B2
:10155000AB81BC81F701238D348DF901278948EFD8
:101560005FEF60E070E0203121F048EF5FEF6FEF58
:101570007FE084179507A607B70708F050CFF7015B
:1015800086839783A087B18750CF0115110599F500
:10159000D7011A964D915D916D917C911D9753964F
:1015A0008D919D910D90BC91A02D481759076A0708
:1015B0007B0708F181E00E94DF03882309F4B4CFA0
:1015C000409208015092090160920A0170920B0149
:1015D0008091F30181608093F301C8018D5F9D4F7D
:1015E000D5019C01280D391DFC012E173F0759F02C
:1015F0004D914193FACF41E0C301B2010E940A0428
:101600008111EBCF91CF281B390BA20EB31E68CFEF
:10161000F70183899489A589B68984179507A60758
:10162000B70738F48481438B548B658B768B806845
:101630008483F701848183FD1AC0832D9D810F90DF
:101640000F900F900F900F90DF91CF911F910F91FE
:10165000FF90EF90DF90CF90BF90AF909F908F90D2
:101660007F906F905F904F903F902F90089561E032
:10167000C7010E945F07882309F456CFDECFCF93BE
:10168000DF931F92CDB7DEB7698341E050E0BE0122
:101690006F5F7F4F0E94A4090F90DF91CF91089553
:1016A000FC01DB0112968D919C91139793838283A9
:1016B00085E591E09183808314968C9114978483BF
:1016C00015968C911597858316964D915D916D9128
:1016D0007C91199746835783608771871A964D913D
:1016E0005D916D917C911D974287538764877587C3
:1016F0001E964D915D916D917C91519746875787CC
:10170000608B718B52968C915297828B53964D9130
:101710005D916D917C915697438B548B658B768B45
:1017200057964D915D916D917C915A97478B508F53
:10173000618F728F5B968D919C91948F838F0895AA
:10174000FC01818D928D009719F061E00C945F0788
:101750000895DC015996ED91FC913097B9F0838999
:101760009489A589B6894285538564857585841BCE
:10177000950BA60BB70B811520E89207A105B105C3
:1017800038F08FEF9FE7A0E0B0E0089590E080E0B0
:101790000895DC0159968D919C91009739F0DC01F8
:1017A000ED91FC910480F581E02D099490E080E0BA
:1017B0000895CF93DF93EC01E98DFA8D309749F4CA
:1017C00081E090E09B838A8390E080E0DF91CF917D
:1017D000089513821282898D9A8D0E94A409E98D41
:1017E000FA8D22813381232B59F7F0CFCF93DF93EA
:1017F0001F92CDB7DEB76983DC01ED91FC910280C9
:10180000F381E02D41E050E0BE016F5F7F4F09950D
:101810000F90DF91CF9108952F923F924F925F9258
:101820006F927F928F929F92AF92BF92CF92DF92F0
:10183000EF92FF920F931F93CF93DF9300D01F92ED
:10184000CDB7DEB7FC018581811118C08FEF9FEF06
:101850000F900F900F90DF91CF911F910F91FF90FC
:10186000EF90DF90CF90BF90AF909F908F907F9040
:101870006F905F904F903F902F900895848180FFEC
:10188000E5CF438954896589768982859385A485C6
:10189000B585312C212C481759076A077B0719F0A9
:1018A00022242394312C6F012101CE0101963C01A9
:1018B000DF011696BB83AA834114510409F4C5C005
:1018C000F60142855385648575854A01F1E09F22C2
:1018D000D6015B968D919C915C978A019B01E9E012
:1018E0003695279517950795EA95D1F71596EC91BA
:1018F000E230E9F5FC01628D738D848D958D600F6A
:10190000711F821F931FA12C22E0B22EA818B908C4
:101910004A145B0408F45201F601248126FD04C038
:10192000A114F2E0BF0671F40091080110910901C1
:1019300020910A0130910B01061717072807390774
:1019400009F05EC040E00E940A04882309F47ECFBB
:10195000C4018D5F9D4FD3019C012A0D3B1DFC01ED
:101960002E173F0709F46CC041914D93F9CFDC016C
:101970001496BC90BA94B0228114910479F4B110F9
:101980000DC0452B462B472B69F5F6018789908DB5
:10199000A18DB28D86839783A087B187D6015B9690
:1019A000ED91FC915C9716966D917D918D919C9136
:1019B00019976250710981099109258504C0660F44
:1019C000771F881F991F2A95D2F7068517852089CA
:1019D0003189600F711F821F931F6B0D711D811D57
:1019E000911D91CFD60116964D915D916D917C918F
:1019F00019972A813B810E941F068111CFCF26CFE4
:101A0000730185019401AB01BC01809103049091A5
:101A100004040E94AB02882309F418CF6A0C7B1CD3
:101A2000F60182859385A485B5858A0D9B1DA11D30
:101A3000B11D82879387A487B5874A185B083CCF7E
:101A4000281B390B620E731EEBCF2A94232809F052
:101A5000FDCE898190E0FCCEFC01818D928D0097B6
:101A600011F00C940C0C8FEF9FEF08950F931F93C0
:101A7000CF93DF93EC01898D9A8D10E000E0009701
:101A800099F00E940C0C8C010F3F100769F0898DB2
:101A90009A8DFC01428553856485758541505109B5
:101AA000610971090E94A507C801DF91CF911F91BB
:101AB0000F910895089590E080E00895FB01019052
:101AC0000020E9F73197AF01461B570BDC01ED9180
:101AD000FC910280F381E02D09940F931F93CF9323
:101AE000DF93EC010E945E0D8C016BE771E0CE018B
:101AF0000E945E0D800F911FDF91CF911F910F917A
:101B00000895CF93DF93EC0160E08E810E948601FF
:101B100061E08E810E94860160E08E810E948601D4
:101B20008BE891E00197F1F7DF91CF910895CF9283
:101B3000DF92EF92FF920F931F93CF93DF936C018D
:101B40007C0187E0E80EF11CD0E0C0E0062F10E039
:101B5000B8010C2E02C0759567950A94E2F7617082
:101B6000F70181917F010E9486012196C430D10541
:101B700079F7C601DF91CF911F910F91FF90EF9000
:101B8000DF90CF900C94810DCF92DF92EF92FF9275
:101B90000F931F93CF93DF93EC01F62E642F8C816C
:101BA0000E9486018D818F3F19F060E00E948601BE
:101BB0000F2D10E08F8584FF25C06E0187E0C80ED1
:101BC000D11CF12CE12CB8010E2C02C07595679543
:101BD0000A94E2F76170F60181916F010E9486011B
:101BE000FFEFEF1AFF0A88E0E816F10461F7CE0173
:101BF000DF91CF911F910F91FF90EF90DF90CF90E9
:101C00000C94810DB80184E0759567958A95E1F78C
:101C1000CE010E94970D6F2DCE01DF91CF911F91C4
:101C20000F91FF90EF90DF90CF900C94970D41E0D3
:101C30000E94C40D81E090E0089540E00C94C40D32
:101C4000CF93DF93823029F4909117059860909399
:101C5000170580931B0510921C0580E480931D05D9
:101C600080E180931E0580E580931F0580910C051F
:101C70000E948F0080910D058F3F11F00E948F0010
:101C800080910E050E948F00C8E0D5E09E0128508B
:101C900035408091170584FD0AC084E090E02196CC
:101CA000281739073CF48E810E948F00EFCF88E01F
:101CB00090E0F5CF8BE39DE00197F1F760E0809134
:101CC0000C050E94860160E080910E050E9486014D
:101CD00080910D058F3F19F060E00E9486016091B0
:101CE000170564FD41C063E088E095E00E94970D10
:101CF000CBE4D6E4CE010197F1F763E088E095E00C
:101D00000E94970D2197F1F763E088E095E00E942B
:101D1000970D83E592E00197F1F762E088E095E0A6
:101D20000E94970D60911705606288E095E00E941F
:101D30001D0E84E0809318056CE088E095E00E9419
:101D40001D0E61E088E095E00E941D0E8BE39FE18F
:101D50000197F1F782E08093190566E088E095E04D
:101D6000DF91CF910C941D0E606288E095E00E9497
:101D70001D0E8BE496E40197F1F760911705606200
:101D800088E095E00E941D0E83E592E00197F1F74F
:101D900060911705606288E095E00E941D0EC2CF39
:101DA000EC018BE3E82E8FE1F82E61E0CE010E947A
:101DB0001D0EC7010197F1F763E271E0CE010E94A9
:101DC0005E0DEB89E23070F5E150EC0FFD2FF11D57
:101DD00064896068CE010E941D0E60E0CE010E9401
:101DE000170E62E171E0CE010E945E0D60E17EE0BF
:101DF00080E090E00E9428120BE010E068E1CE0144
:101E00000E941D0E68E572E080E090E00E942812BA
:101E10000150110999F760E971E080E090E00E94BB
:101E20002812C3CFE1E0D1CFCF92DF92EF92FF92A1
:101E30001F93CF93DF93EC0180E2689FF0011124A0
:101E4000ED5FFD4F9385917161F0842F827449F0AD
:101E500080E0DF91CF911F91FF90EF90DF90CF90C6
:101E60000895142F6A8B8091080190910901A09127
:101E70000A01B0910B018E879F87A88BB98BC4880C
:101E8000D588F12CE12C7601DD24CC24CF8AD88EA4
:101E9000E98EFA8E828D938DB0E0A0E0AC01BD0199
:101EA0004C295D296E297F294F8B588F698F7A8F36
:101EB00083858871B1F4848D958DA68DB78D8B8BBC
:101EC0009C8BAD8BBE8B81E08D831F701C831E822B
:101ED0001F82188619861A861B861C861D8681E03D
:101EE000B8CF803109F0B4CF9E012D5E3F4F8B8D6E
:101EF0009C8D0E94A006882309F4AACF84E0E4CF39
:101F00003F924F925F926F927F928F929F92AF9289
:101F1000BF92CF92DF92EF92FF920F931F93CF93D6
:101F2000DF93CDB7DEB72B970FB6F894DEBF0FBEA9
:101F3000CDBF7C01FE013196CE010C966F0130E2DF
:101F40003193E817F907E1F7DA0130E087E09D9176
:101F5000B92E992309F43CC09E32F1F48A30C9F4B9
:101F600080E02B960FB6F894DEBF0FBECDBFDF9199
:101F7000CF911F910F91FF90EF90DF90CF90BF9086
:101F8000AF909F908F907F906F905F904F903F9019
:101F9000089538E08AE0DBCFE8E6F0E0449144239E
:101FA00021F031969413FACFDBCF8317C8F24FEDAF
:101FB000490F4E35A8F64FE9490F4A3118F440EE63
:101FC000B42EB90EF601E30FF11DB0823F5FBFCF13
:101FD0008981803229F2322E8B01DB015B968D9153
:101FE0009C915C97F701948F838F16961D921D929A
:101FF0001D921C921997FB01128613861486158672
:10200000F80182859385A485B585438954896589BE
:10201000768984179507A607B70708F04DC025E015
:10202000B695A795979587952A95D1F7F82FFF70C4
:10203000AF2ED80115968C91823008F491CFC8014B
:102040000E940C0C97FD8CCFF80182859385A485A6
:10205000B5854F96A11DB11D82879387A487B5874B
:10206000F0E2AF9EB00111246D5F7D4F61157105E7
:1020700009F476CFDB018C91882341F0853E09F08D
:1020800062C0BB2029F0BB24B394BACFB1100EC0FC
:10209000F701A28A8091080190910901A0910A019B
:1020A000B0910B0186879787A08BB18BDB018C9158
:1020B0008111E9CFBB24B394832D8271823109F061
:1020C0004FCFBB2009F44DC0F70166857785808925
:1020D000918941E00E940A04882309F441CFD70185
:1020E00052968C91B0E28B9FC00111248D5F9D4F61
:1020F000009709F435CFFC013A9626E1DF011D92E5
:102100002A95E9F72BE0F601DC0101900D922A9562
:10211000E1F721E238E2FC01318B208B40E058E00E
:1021200057874687338B228B318F208F578B468B77
:1021300081E00E94DF03882309F412CF432DD701E9
:1021400052966C910AC04BE050E0C6010E942C17D9
:10215000892B09F055CF432D6A2DC7010E94140F1A
:1021600000CFF8018581823009F4FACEC8010E94BF
:10217000A408882309F4F4CED8015B96ED91FC9174
:102180005C9716968D909D90AD90BC901997B2E09B
:102190008B1A9108A108B108858504C0880C991C88
:1021A000AA1CBB1C8A95D2F786859785A089B18920
:1021B000880E991EAA1EBB1E848124013501480E7B
:1021C000511C611C711C84149504A604B70409F108
:1021D000E1E04E1A51086108710881E00E94DF03B6
:1021E000882309F4BDCEE3E0F2E0119283E094E0AD
:1021F0008E179F07D1F74092080150920901609213
:102200000A0170920B018091F30181608093F301C8
:10221000DACFD8015B96ED91FC91258580E092E0C4
:10222000A0E0B0E004C0880F991FAA1FBB1F2A9529
:10223000D2F7F8014389548965897689840F951FFF
:10224000A61FB71F838B948BA58BB68BD701529695
:102250001C9283E092E04FCFEF92FF920F931F9377
:10226000CF93DF93EC017B018A011B821A8288EEF7
:1022700093E0A0E0B0E08C839D83AE83BF8381E6D2
:1022800091E0998388838DE190E00E9407169A8FF0
:10229000898F009779F02DE1F701DC0101900D9213
:1022A0002A95E1F74CE050E0B801CE010C960E946F
:1022B0003917188EDF91CF911F910F91FF90EF90FA
:1022C00008951F920F920FB60F9211242F933F93F0
:1022D0008F939F93AF93BF938091FB019091FC01EB
:1022E000A091FD01B091FE013091FA0123E0230F8E
:1022F0002D3758F50196A11DB11D2093FA01809349
:10230000FB019093FC01A093FD01B093FE0180912D
:10231000FF0190910002A0910102B091020201968A
:10232000A11DB11D8093FF0190930002A0930102B3
:10233000B0930202BF91AF919F918F913F912F91E6
:102340000F900FBE0F901F90189526E8230F02964E
:10235000A11DB11DD2CF1F920F920FB60F92112463
:102360002F933F934F935F936F937F938F939F939D
:10237000AF93BF93EF93FF9385E094E00E94EB004F
:10238000FF91EF91BF91AF919F918F917F916F914D
:102390005F914F913F912F910F900FBE0F901F9023
:1023A00018951F920F920FB60F9211242F938F93AF
:1023B0009F93EF93FF93E0911504F09116048081B1
:1023C000E0911B04F0911C0482FD1BC09081809160
:1023D0001E048F5F8F7320911F04821741F0E091DC
:1023E0001E04F0E0EB5FFB4F958F80931E04FF917E
:1023F000EF919F918F912F910F900FBE0F901F9093
:1024000018958081F4CF3FB7F8948091FF019091A7
:102410000002A0910102B091020226B5A89B05C05E
:102420002F3F19F00196A11DB11D3FBFBA2FA92F53
:10243000982F8827BC01CD01620F711D811D911D50
:1024400042E0660F771F881F991F4A95D1F70895BC
:102450008F929F92AF92BF92CF92DF92EF92FF92B4
:102460004B015C010E9403126B017C010E9403126C
:102470006C197D098E099F09683E7340810591059D
:10248000A8F321E0821A9108A108B10888EEC80ECD
:1024900083E0D81EE11CF11C81149104A104B10455
:1024A00029F7FF90EF90DF90CF90BF90AF909F9073
:1024B0008F900895CF92DF92EF92FF92E5E0F4E0E3
:1024C0001382128288EEC82E83E0D82EE12CF12CE4
:1024D000C482D582E682F78283E491E0918380838F
:1024E00085EC90E09587848784EC90E097878687D9
:1024F00080EC90E0918B808B81EC90E0938B828BD1
:1025000082EC90E0958B848B86EC90E0978B868BA9
:10251000118E128E138E148EE2EAF4E080E5808331
:102520001182E4EAF4E0158216821186138682E0B5
:1025300090E0A0E0B0E084879587A687B78713A2D4
:1025400015A614A685E591E093A782A717A6E8E053
:10255000F5E01382128283E791E09183808382E029
:1025600084838FEF858383E0868384E0878385E09F
:10257000808786E0818787E08287138614861586A8
:102580001686178681E00E94200EEDEEF4E013829D
:102590001282C482D582E682F78281E691E091833D
:1025A0008083128E118E1486FF90EF90DF90CF9073
:1025B0000895CF93DF93CDB7DEB7C657D1090FB6D5
:1025C000F894DEBF0FBECDBF789484B5826084BD21
:1025D00084B5816084BD85B5826085BD85B5816027
:1025E00085BD80916E00816080936E0010928100A5
:1025F0008091810082608093810080918100816060
:102600008093810080918000816080938000809120
:10261000B10084608093B1008091B00081608093AC
:10262000B00080917A00846080937A0080917A0073
:10263000826080937A0080917A00816080937A0032
:1026400080917A00806880937A001092C1008DE0BA
:102650000E948F00E0911504F091160482E08083BF
:10266000E0911104F09112041082E0911304F091B2
:1026700014048FEC808310921D04E0911904F091F2
:102680001A0486E08083E0911704F0911804808199
:1026900080618083E0911704F09118048081886044
:1026A0008083E0911704F091180480818068808312
:1026B000E0911704F091180480818F7D80838091D0
:1026C000D304882321F08EEC94E00E9497081092A6
:1026D000AF041092AD041092AA041092A9048AE0EB
:1026E0008093A8040E947A018B018091A8040E9423
:1026F0008F0061E08091A8040E948601FFB6F894E3
:102700008091F201811124C0EAEAF0E08491EEEBBD
:10271000F0E09491E82FF0E0EE0FFF1FEA56FF4F34
:10272000A591B491EC91E92321F461E08AE00E9443
:1027300086018AE00E948F008CB580618CBD8CB5CB
:1027400080648CBD8DE00E948F008BE00E948F0022
:102750008091F2018F5F8093F201FFBE82E580934A
:10276000A2041092A3048091A2049091A3040E9459
:1027700035024AE0F42E8FEF0E941002FA94F11015
:10278000FACF84EA94E00E94380220E030E0A90108
:1027900060E084EA94E00E944E02F82E8093AE043A
:1027A00081E0F816A9F00E947A01601B710B613D6F
:1027B000774058F381E08093A90484EA94E00E9472
:1027C00005026EE771E085E094E00E946D0DFFCF99
:1027D0002AEA31E040E050E068E084EA94E00E94B8
:1027E0004E0282FF2AC0F092AF048091AF04C12C48
:1027F000D12C7601823029F4C12CD12CE12C20E49B
:10280000F22E20E030E0A90167E384EA94E00E9420
:102810004E02A701960169E284EA94E00E944E020A
:102820008093AE048823D1F00E947A01601B710B63
:10283000613D774030F388E0BECF34E0F32E0E9454
:1028400017028093AE04FA94F110F9CF8A3A11F08E
:1028500082E0B1CF82E08093AF04C7CF8091AF0414
:102860008230D1F420E030E0A9016AE384EA94E008
:102870000E944E02882311F086E09DCF0E9417022D
:10288000807C803C19F483E08093AF040E9417029F
:102890000E9417020E94170284EA94E00E94050237
:1028A00080E58093A2041092A30481E00E94540466
:1028B000882309F430C18EEC94E00E940B07882332
:1028C00009F47FCF1C821B8205E511E01A8309837E
:1028D0001E82CE0101960E940B07BE016F5F7F4FE3
:1028E000CE01CF960E94500B1DA21CA21BA30AA3CF
:1028F0001FA225968FAD2597811114C1A0961FAEFA
:102900001EAEA09788EE93E0A0E0B0E0A4968CAF56
:102910009DAFAEAFBFAFA49781E691E06E969FAF3B
:102920008EAF6E97E7961FAE1EAEE797A9961FAEC5
:10293000A997A0968EAD9FADA0979093F004809339
:10294000EF04A4968CAD9DADAEADBFADA4978093C2
:10295000F1049093F204A093F304B093F404A896C6
:102960008CAD9DADAEADBFADA8978093F5049093AF
:10297000F604A093F704B093F804ACE5B0E0AC0F14
:10298000BD1F1C96E9EFF4E08D91819385E0E63060
:10299000F807D1F7E796EEADFFADE797F09307059F
:1029A000E0930605309709F4EDC08581882309F48A
:1029B000E9C065E971E085E094E00E945E0D6CEA93
:1029C00071E08DEE94E00E946D0D63EC71E08DEE90
:1029D00094E00E946D0DC12CD12C76019AE0492E15
:1029E000512C612C712C19A2460157018E010F5DEB
:1029F0001F4FC501B401A30192010E94C515605D7E
:102A0000F80162938F01FAE08F169104A104B104DA
:102A100008F0B3C00115110529F0B8018DEE94E05E
:102A20000E945E0D6BE771E08DEE94E00E945E0DFA
:102A30008FEFC81AD80AE80AF80AE4E1CE16D104E2
:102A4000E104F10481F68091060590910705009755
:102A500061F00E94970880910605909107050E94F9
:102A6000A316109207051092060564ED71E085E04B
:102A700094E00E946D0D60E488E095E00E941D0ED8
:102A800000E011E0F80161918F0188E095E00E947B
:102A9000170EF1E008301F07A9F782E00E94200E10
:102AA00080910A0590910B059C838B8383E791E0CD
:102AB0009A83898380910C058D8380910D058E8387
:102AC00080910E058F8388E0EFE0F5E0DE01189637
:102AD00001900D928A95E1F780911705888B80917E
:102AE0001805898B809119058A8B80911A058B8B2B
:102AF00080911B058C8B80911C0590911D05A091E8
:102B00001E05B0911F058D8B9E8BAF8BB88FCE01AC
:102B100001960E94D00E80E00E945404882309F49C
:102B200050CEC9CE27E148EE51E0BE01615C7F4F37
:102B3000CE0182960E94800F882309F4DFCECE0159
:102B4000CF960E9497084DA95EA96FA978ADCE01D6
:102B500082960E94A507BE016E5D7F4FCE01019651
:102B60000E94500B48EE51E0BE016F5F7F4FCE01D7
:102B7000845A9F4F0E942C11DCCE812C912C540141
:102B8000839437CF6AED71E072CFA1E21A2EAA1BAF
:102B9000BB1BFD010DC0AA1FBB1FEE1FFF1FA2170D
:102BA000B307E407F50720F0A21BB30BE40BF50B0A
:102BB000661F771F881F991F1A9469F76095709593
:102BC000809590959B01AC01BD01CF0108950E94B5
:102BD000F815A59F900DB49F900DA49F800D911D99
:102BE00011240895EE0FFF1F0590F491E02D099434
:102BF000A29FB001B39FC001A39F700D811D11243E
:102C0000911DB29F700D811D1124911D08950F9388
:102C10001F93CF93DF938230910510F482E090E010
:102C2000E0912205F091230530E020E0B0E0A0E043
:102C3000309799F42115310509F44AC0281B390B46
:102C400024303105D8F58A819B816115710589F1A0
:102C5000FB0193838283FE0111C040815181028177
:102C6000138148175907E0F04817590799F410974E
:102C700061F012960C93129713961C933296CF0123
:102C8000DF91CF911F910F9108950093220510932A
:102C90002305F4CF2115310551F04217530738F0C1
:102CA000A901DB019A01BD01DF01F801C1CFEF01EC
:102CB000F9CF9093230580932205CDCFFE01E20F3B
:102CC000F31F819391932250310939832883D7CF01
:102CD0002091200530912105232B41F420910E01F4
:102CE00030910F01309321052093200520910C0194
:102CF00030910D012115310541F42DB73EB74091BA
:102D0000100150911101241B350BE0912005F09129
:102D10002105E217F307A0F42E1B3F0B28173907F4
:102D200078F0AC014E5F5F4F2417350748F04E0F27
:102D30005F1F5093210540932005819391939FCF6E
:102D4000F0E0E0E09CCFCF93DF930097E9F0FC0147
:102D5000329713821282A0912205B0912305ED01D2
:102D600030E020E01097A1F420813181820F931F81
:102D700020912005309121052817390709F061C0FD
:102D8000F0932105E0932005DF91CF910895EA01AA
:102D9000CE17DF07E8F54A815B819E014115510599
:102DA000B1F7E901FB83EA8349915991C40FD51F1B
:102DB000EC17FD0761F4808191810296840F951FC5
:102DC000E90199838883828193819B838A83F0E0E0
:102DD000E0E012968D919C9113970097B9F52D9193
:102DE0003C911197CD010296820F931F20912005EF
:102DF000309121052817390739F6309751F510928F
:102E0000230510922205B0932105A0932005BCCF85
:102E1000D383C28340815181840F951FC817D9077E
:102E200061F44E5F5F4F88819981480F591F51832C
:102E300040838A819B81938382832115310509F028
:102E4000B0CFF0932305E09322059ECFFD01DC0176
:102E5000C0CF13821282D7CFFB01DC0104C08D9159
:102E60000190801921F441505040C8F7881B990BFC
:102E70000895FB01DC014150504048F001900D9253
:102E80000020C9F701C01D9241505040E0F708955D
:042E9000F894FFCFE4
:102E94000E111D191D110E00FFFFFFFF0000240578
:102EA400800032303230204E6F6168205765696E81
:102EB40065720057656C636F6D6520746F2074686C
:102EC4006520487970655772697465722121000024
:102ED4000000000D01D201AE005A01DF00BD00D197
:102EE40000000000003F0BD20139085A0D00000019
:102EF40000F60BD90BC90BA00BA90B2C0D360D003A
:102F0400000000170ED2015B0D5A0D0D0A00696E08
:102F1400697469616C697A6174696F6E206661694C
:102F24006C6564210057726974696E6720746F2040
:102F3400746573742E7478742E2E2E00546869731D
:102F4400206973206120746573742066696C652040
:102F54003A290074657374696E6720312C20322C11
:102F640020332E00646F6E652E006572726F7220BE
:102F74006F70656E696E6720746573742E747874EF
:022F840000004B
:00000001FF
