:100000000C945D000C9485000C9485000C94850084
:100010000C9485000C9485000C9485000C9485004C
:100020000C9485000C9485000C9485000C9485003C
:100030000C9485000C9485000C9485000C9485002C
:100040000C9411040C9485000C9481040C945B04B2
:100050000C9485000C9485000C9485000C9485000C
:100060000C9485000C94850000000008000201003B
:100070000003040700000000000000000000000072
:10008000250028002B0000000000240027002A0083
:10009000040404040404040402020202020203032E
:1000A0000303030301020408102040800102040836
:1000B0001020010204081020B30411241FBECFEF4A
:1000C000D8E0DEBFCDBF11E0A0E0B1E0EAEBFBE09D
:1000D00002C005900D92A635B107D9F722E0A6E53A
:1000E000B1E001C01D92A431B207E1F710E0CDE507
:1000F000D0E004C02197FE010E94D505CC35D10780
:10010000C9F70E94FD040C94DB050C94000090E0FC
:10011000FC01EC55FF4F249180579F4FFC018491C7
:10012000882399F090E0880F991FFC01EA57FF4F50
:10013000A591B491FC01E458FF4F859194918FB73C
:10014000F894EC91E22BEC938FBF0895FC01538D52
:10015000448D252F30E0842F90E0821B930B5417A1
:1001600010F0CF96089501970895FC01918D828D2E
:10017000981761F0A28DAE0FBF2FB11D5D968C91C7
:10018000928D9F5F9F73928F90E008958FEF9FEF06
:100190000895FC01918D828D981731F0828DE80FC2
:1001A000F11D858D90E008958FEF9FEF0895FC017C
:1001B000918D228D892F90E0805C9F4F821B910949
:1001C0008F7399270895FC01A48DA80FB92FB11D35
:1001D000A35ABF4F2C91848D90E001968F7399277D
:1001E000848FA689B7892C93A089B1898C9183705B
:1001F00080648C93938D848D981306C00288F38954
:10020000E02D80818F7D80830895EF92FF920F9380
:100210001F93CF93DF93EC0181E0888F9B8D8C8DB2
:1002200098131AC0E889F989808185FF15C09FB7A6
:10023000F894EE89FF896083E889F9898081837069
:10024000806480839FBF81E090E0DF91CF911F9118
:100250000F91FF90EF900895F62E0B8D10E00F5F39
:100260001F4F0F731127E02E8C8D8E110CC00FB60F
:1002700007FCFACFE889F989808185FFF5CFCE01A7
:100280000E94E300F1CFEB8DEC0FFD2FF11DE35A3F
:10029000FF4FF0829FB7F8940B8FEA89FB8980812A
:1002A0008062CFCFCF93DF93EC01888D8823B9F0A4
:1002B000AA89BB89E889F9898C9185FD03C0808171
:1002C00086FD0DC00FB607FCF7CF8C9185FFF2CFEE
:1002D000808185FFEDCFCE010E94E300E9CFDF9161
:1002E000CF9108953FB7F89480915B0190915C01A4
:1002F000A0915D01B0915E0126B5A89B05C02F3F7E
:1003000019F00196A11DB11D3FBFBA2FA92F982F3B
:100310008827BC01CD01620F711D811D911D42E036
:10032000660F771F881F991F4A95D1F708958F92FE
:100330009F92AF92BF92CF92DF92EF92FF924B01CA
:100340005C010E9472016B017C010E9472016C19B8
:100350007D098E099F09683E734081059105A8F3C8
:1003600021E0821A9108A108B10888EEC80E83E046
:10037000D81EE11CF11C81149104A104B10429F7D9
:10038000FF90EF90DF90CF90BF90AF909F908F90B5
:10039000089590E0FC01E859FF4F2491FC01EC55D1
:1003A000FF4F3491FC01E057FF4FE491EE23C9F079
:1003B000222339F0233001F1A8F4213019F1223041
:1003C00029F1F0E0EE0FFF1FE458FF4FA591B49123
:1003D0008FB7F894EC91611126C030953E233C9381
:1003E0008FBF08952730A9F02830C9F0243049F78D
:1003F000809180008F7D03C0809180008F778093F3
:100400008000DFCF84B58F7784BDDBCF84B58F7D4F
:10041000FBCF8091B0008F778093B000D2CF8091D6
:10042000B0008F7DF9CF3E2BDACFAF92BF92CF9243
:10043000DF92EF92FF920F931F93CF93DF936C01A4
:100440007B018B01040F151FEB015E01AE18BF0885
:10045000C017D10759F06991D601ED91FC91019037
:10046000F081E02DC6010995892B79F7C501DF914F
:10047000CF911F910F91FF90EF90DF90CF90BF90A1
:10048000AF900895089590E080E00895FB010190F9
:100490000020E9F73197AF01461B570BDC01ED91C6
:1004A000FC910280F381E02D0994CF93DF93EC015E
:1004B00060E08E810E94C90161E08E810E94C901C5
:1004C00060E08E810E94C9018BE891E00197F1F70D
:1004D000DF91CF910895CF92DF92EF92FF920F9329
:1004E0001F93CF93DF936C017C0187E0E80EF11C32
:1004F000D0E0C0E0062F10E0B8010C2E02C07595C8
:1005000067950A94E2F76170F70181917F010E947B
:10051000C9012196C430D10579F7C601DF91CF9189
:100520001F910F91FF90EF90DF90CF900C945502A8
:10053000CF92DF92EF92FF920F931F93CF93DF93AF
:10054000EC01F62E642F8C810E94C9018D818F3FB2
:1005500019F060E00E94C9010F2D10E08F8584FF23
:1005600025C06E0187E0C80ED11CF12CE12CB8012A
:100570000E2C02C0759567950A94E2F76170F6013A
:1005800081916F010E94C901FFEFEF1AFF0A88E015
:10059000E816F10461F7CE01DF91CF911F910F9121
:1005A000FF90EF90DF90CF900C945502B80184E05B
:1005B000759567958A95E1F7CE010E946B026F2DC4
:1005C000CE01DF91CF911F910F91FF90EF90DF90BF
:1005D000CF900C946B0241E00E94980281E090E081
:1005E000089540E00C949802CF93DF93823029F471
:1005F00090910B02986090930B0280930F021092DF
:10060000100280E48093110280E18093120280E561
:1006100080931302809100020E9487008091010262
:100620008F3F11F00E948700809102020E94870094
:10063000CCEFD1E09E012C5F314080910B0284FD14
:100640000AC084E090E02196281739073CF48E8197
:100650000E948700EFCF88E090E0F5CF8BE39DE02C
:100660000197F1F760E0809100020E94C90160E00B
:10067000809102020E94C901809101028F3F19F00E
:1006800060E00E94C90160910B0264FD41C063E01B
:100690008CEF91E00E946B02CBE4D6E4CE0101978F
:1006A000F1F763E08CEF91E00E946B022197F1F784
:1006B00063E08CEF91E00E946B0283E592E001978A
:1006C000F1F762E08CEF91E00E946B0260910B0207
:1006D00060628CEF91E00E94F10284E080930C0252
:1006E0006CE08CEF91E00E94F10261E08CEF91E010
:1006F0000E94F1028BE39FE10197F1F782E0809382
:100700000D0266E08CEF91E0DF91CF910C94F10245
:1007100060628CEF91E00E94F1028BE496E4019715
:10072000F1F760910B0260628CEF91E00E94F102A0
:1007300083E592E00197F1F760910B0260628CEF24
:1007400091E00E94F102C2CFCF93DF93CDB7DEB725
:10075000A1970FB6F894DEBF0FBECDBF8C019BE30F
:10076000C92E9FE1D92E21E3B22E61E08DE00E94D7
:10077000C90161E0C8010E94F102C6010197F1F7C9
:1007800069E171E0C8010E944602D8015396EC91DC
:10079000E23008F044C0E150E00FF12FF11D648910
:1007A0006068C8010E94F10260E0C8010E94EB028B
:1007B00068E071E0C8010E94460260E17EE080E0EE
:1007C00090E00E9497018BE0E82EF12C68E1C801CF
:1007D0000E94F10268E572E080E090E00E949701DB
:1007E000B1E0EB1AF10891F760E08DE00E94C901D9
:1007F00060E971E080E090E00E94970119A2B8A240
:10080000BF8EBE01615E7F4F8FE591E00E94460280
:1008100063E571E08FE591E00E944602A6CFE1E03A
:10082000BBCF1F920F920FB60F9211242F933F93BD
:100830008F939F93AF93BF938091570190915801ED
:10084000A0915901B0915A013091560123E0230F34
:100850002D3758F50196A11DB11D209356018093A7
:10086000570190935801A0935901B0935A01809178
:100870005B0190915C01A0915D01B0915E010196D8
:10088000A11DB11D80935B0190935C01A0935D015C
:10089000B0935E01BF91AF919F918F913F912F9146
:1008A0000F900FBE0F901F90189526E8230F029609
:1008B000A11DB11DD2CF1F920F920FB60F9211241E
:1008C0002F933F934F935F936F937F938F939F9358
:1008D000AF93BF93EF93FF938FE591E00E94E30006
:1008E000FF91EF91BF91AF919F918F917F916F9108
:1008F0005F914F913F912F910F900FBE0F901F90DE
:1009000018951F920F920FB60F9211242F938F9369
:100910009F93EF93FF93E0916F01F09170018081BD
:10092000E0917501F091760182FD1BC0908180916C
:1009300078018F5F8F7320917901821741F0E091E8
:100940007801F0E0E15AFE4F958F80937801FF9196
:10095000EF919F918F912F910F900FBE0F901F904D
:1009600018958081F4CFEFE5F1E01382128288EED2
:1009700093E0A0E0B0E084839583A683B78389E306
:1009800091E09183808385EC90E09587848784EC67
:1009900090E09787868780EC90E0918B808B81EC4C
:1009A00090E0938B828B82EC90E0958B848B86EC2D
:1009B00090E0978B868B118E128E138E148EECEF37
:1009C000F1E0138212828BE491E09183808382E0D4
:1009D00084838FEF858383E0868384E0878385E04B
:1009E000808786E0818787E0828713861486158654
:1009F0001686178681E00C94F402CF93DF93CDB76F
:100A0000DEB768970FB6F894DEBF0FBECDBF7894FF
:100A100084B5826084BD84B5816084BD85B5826003
:100A200085BD85B5816085BD80916E0081608093B4
:100A30006E0010928100809181008260809381001D
:100A4000809181008160809381008091800081602D
:100A5000809380008091B10084608093B100809188
:100A6000B00081608093B00080917A0084608093B0
:100A70007A0080917A00826080937A0080917A0077
:100A8000816080937A0080917A00806880937A00F8
:100A90001092C1008DE00E948700E0916F01F091FB
:100AA000700182E08083E0916B01F0916C01108213
:100AB000E0916D01F0916E018FEC808310927701CF
:100AC000E0917301F091740186E08083E0917101FF
:100AD000F0917201808180618083E0917101F091D9
:100AE0007201808188608083E0917101F0917201D0
:100AF000808180688083E0917101F0917201808132
:100B00008F7D808360E48CEF91E00E94F10200E031
:100B100011E088E0E82E81E0F82EF80161918F0164
:100B20008CEF91E00E94EB02E016F106B1F782E053
:100B30000E94F4028091FE019091FF019C838B83BF
:100B40008BE491E09A838983809100028D83809168
:100B500001028E83809102028F8388E0E3E0F2E05D
:100B6000DE01189601900D928A95E1F780910B02B3
:100B7000888B80910C02898B80910D028A8B8091E9
:100B80000E028B8B80910F028C8B809110029091C2
:100B90001102A0911202B09113028D8B9E8BAF8B2C
:100BA000B88FCE0101960E94A403EE0FFF1F05909F
:0A0BB000F491E02D0994F894FFCFB2
:100BBA000E111D191D110E0032303230204E6F6198
:100BCA0068205765696E65720057656C636F6D655D
:100BDA0020746F207468652048797065577269744B
:100BEA0065722121000000000005011502A60052CD
:100BFA0001D700B500C90000000000EB021502434E
:060C0A000242020D0A0087
:00000001FF
