:100000000C946B000C94C6160C949F160C949300E1
:100010000C9493000C9493000C9493000C94930014
:100020000C9493000C9493000C9493000C94930004
:100030000C9493000C9493000C9493000C949300F4
:100040000C9455160C9493000C9413170C94ED1605
:100050000C9493000C9493000C9493000C949300D4
:100060000C9445170C949300000000002300260018
:1000700029007C3C3E5E2B3D3F2F5B5D3B2C2A22C2
:100080005C0000000000240027002A00000000009F
:10009000250028002B0004040404040404040202C4
:1000A00002020202030303030303010204081020F7
:1000B0004080010204081020010204081020000002
:1000C0000008000201000003040700000000000017
:1000D00000006018CA1B11241FBECFEFD8E0DEBF9E
:1000E000CDBF12E0A0E0B1E0E2E6FEE302C0059081
:1000F0000D92A231B107D9F725E0A2E1B2E001C02B
:100100001D92AD3EB207E1F710E0CAE6D0E004C0B0
:100110002197FE010E94CE1DC936D107C9F70E9462
:1001200013190C94241F0C9400002091AC043091FE
:10013000AD048091AE049091AF042E3D43E03407AE
:1001400024F5273883E038070CF05AC0213743E004
:1001500034070CF058C0203683E03807E4F5293422
:1001600043E03407DCF52C3183E03807D4F52B3D30
:1001700042E03407CCF52B3882E03807C4F5213E45
:100180003140C4F581E390E008958E3D23E092076D
:10019000A4F5833843E094079CF5813723E0920768
:1001A00094F5803643E094078CF5873423E092077A
:1001B00084F58C3143E094077CF58B3D22E0920777
:1001C00074F58B3842E094076CF5813E91406CF5F4
:1001D00085E690E0089583E790E0089587E790E052
:1001E00008958AE790E0089582E390E0089581E61B
:1001F00090E0089581E790E0089590E080E0089510
:1002000088E790E0089583E390E0089585E390E027
:10021000089586E690E0089582E790E0089583E6E9
:1002200090E0089584E390E0089584E690E00895D6
:100230008F929F92AF92BF92EF92FF920F931F9374
:10024000CF93DF937C01DC0116960D911C911797DB
:10025000E80121970650110917FF05C01A968D91E4
:100260009C91080F191F812C912C54010C171D070C
:1002700051F0D7FF1BC0F70182859385C80FD91FA6
:100280000C171D0799F420E030E040EA50E4C50166
:10029000B4010E94431CDF91CF911F910F91FF90F9
:1002A000EF90BF90AF909F908F900895D701ED9100
:1002B000FC91CE01880F991FE80FF91F60817181B1
:1002C00077FF03C0719561957109072E000C880BAB
:1002D000990B0E94ED1C9B01AC01C501B4010E9469
:1002E000D71B4B015C012197C1CFFC01538D448D7D
:1002F000252F30E0842F90E0821B930B541710F0D1
:10030000CF96089501970895FC01918D828D9817DD
:1003100061F0A28DAE0FBF2FB11D5D968C91928DB5
:100320009F5F9F73928F90E008958FEF9FEF0895E6
:10033000FC01918D828D981731F0828DE80FF11DAF
:10034000858D90E008958FEF9FEF0895FC01918DCA
:10035000228D892F90E0805C9F4F821B91098F73C3
:1003600099270895FC01A48DA80FB92FB11DA35A98
:10037000BF4F2C91848D90E001968F739927848FC5
:10038000A689B7892C93A089B1898C9183708064E8
:100390008C93938D848D981306C00288F389E02D89
:1003A00080818F7D80830895EF92FF920F931F933A
:1003B000CF93DF93EC0181E0888F9B8D8C8D981318
:1003C0001AC0E889F989808185FF15C09FB7F89424
:1003D000EE89FF896083E889F98980818370806470
:1003E00080839FBF81E090E0DF91CF911F910F91BB
:1003F000FF90EF900895F62E0B8D10E00F5F1F4FCA
:100400000F731127E02E8C8D8E110CC00FB607FCD8
:10041000FACFE889F989808185FFF5CFCE010E9466
:10042000B201F1CFEB8DEC0FFD2FF11DE35AFF4F21
:10043000F0829FB7F8940B8FEA89FB8980818062F4
:10044000CFCFCF93DF93EC01888D8823B9F0AA89B1
:10045000BB89E889F9898C9185FD03C0808186FD7F
:100460000DC00FB607FCF7CF8C9185FFF2CF8081CE
:1004700085FFEDCFCE010E94B201E9CFDF91CF9190
:1004800008953FB7F8948091A6029091A702A09199
:10049000A802B091A90226B5A89B05C02F3F19F06C
:1004A0000196A11DB11D3FBFBA2FA92F982F8827F4
:1004B000BC01CD01620F711D811D911D42E0660FCF
:1004C000771F881F991F4A95D1F708958F929F92A1
:1004D000AF92BF92CF92DF92EF92FF924B015C01FD
:1004E0000E9441026B017C010E9441026C197D094E
:1004F0008E099F09683E734081059105A8F321E0AC
:10050000821A9108A108B10888EEC80E83E0D81EAF
:10051000E11CF11C81149104A104B10429F7FF909E
:10052000EF90DF90CF90BF90AF909F908F90089505
:100530002FB7F8946091A2027091A3028091A40257
:100540009091A5022FBF0895833081F028F4813067
:1005500099F08230A9F008958730A9F08830C9F069
:100560008430B1F4809180008F7D03C08091800041
:100570008F7780938000089584B58F7784BD089528
:1005800084B58F7DFBCF8091B0008F778093B000D2
:1005900008958091B0008F7DF9CF1F93CF93DF93A3
:1005A000282F30E0F901E254FF4F8491F901E6551C
:1005B000FF4FD491F901EA56FF4FC491CC23A9F023
:1005C000162F81110E94A402EC2FF0E0EE0FFF1F06
:1005D000E457FF4FA591B4918FB7F894EC911111A6
:1005E00008C0D095DE23DC938FBFDF91CF911F91A0
:1005F0000895DE2BF8CFCF93DF9390E0FC01E65512
:10060000FF4F24918A569F4FFC0184918823D1F09B
:1006100090E0880F991FFC01EE57FF4FA591B49110
:10062000FC01E457FF4FC591D49161110EC09FB7F3
:10063000F8948C91E22FE0958E238C932881E2230D
:10064000E8839FBFDF91CF9108958FB7F894EC9125
:10065000E22BEC938FBFF6CF0895AF92BF92CF926B
:10066000DF92EF92FF920F931F93CF93DF936C0172
:100670007B018B01040F151FEB015E01AE18BF0853
:10068000C017D10759F06991D601ED91FC91019005
:10069000F081E02DC6010995892B79F7C501DF911D
:1006A000CF911F910F91FF90EF90DF90CF90BF906F
:1006B000AF9008958E50806480937C0080917A0082
:1006C000806480937A0080917A0086FDFCCF8091CF
:1006D000780090917900089520915702260F3327D2
:1006E000331F21323105ECF420917B02FC0190E0B4
:1006F00080E0243069F082E00895A09157022191B2
:10070000AC01495C5D4FA40FB52FB11D2C93019630
:10071000861798F380915702680F6093570280E024
:10072000089581E0089508958FEF9FEF08958FEF6A
:100730009FEF08958091300290E091958195910905
:100740000895CF93DF93CB01EA01642F0E946C03DD
:10075000CE01DF91CF910895CF93DF931F92CDB754
:10076000DEB7698361E0CE0101960E946C0381E0EF
:1007700090E00F90DF91CF9108958FB7F89480911A
:100780002F028FBF089561E0FC0184810E94CD0299
:1007900080912E02811110922E0208958EBD0000CC
:1007A0000DB407FEFDCF8EB508958FEF0C94CE03E8
:1007B0000F931F93CF93DF93EC010E9498028B015C
:1007C0000E94D5038F3F69F00E949802601B710B55
:1007D0006C177D07A8F380E0DF91CF911F910F91F7
:1007E000089581E0F9CF8CBD9DBD0895CF93DF932F
:1007F000EC0180912E02811109C081E080932E02CC
:1008000080915105909152050E94F30360E08C8124
:10081000DF91CF910C94CD028F929F92AF92BF92B5
:10082000FF920F931F93CF93DF93EC01F62E4901B4
:100830005A018E81882389F08F8198859C012F5FD2
:100840003F4F38872F838230924018F40E94D5039F
:10085000F3CFCE010E94C3031E82CE010E94F60395
:100860008CE291E00E94D8038F2D80640E94CE0319
:1008700008E110E0D501C401002E04C0B695A7958B
:10088000979587950A94D2F70E94CE0308501109D4
:10089000083F8FEF180771F785E9FF2021F028E066
:1008A00087E8F2128FEF0E94CE0310E00E94D5037A
:1008B0008A8787FF04C01F3F11F01F5FF7CFDF91CA
:1008C000CF911F910F91FF90BF90AF909F908F900D
:1008D0000895AF92BF92CF92DF92EF92FF920F9363
:1008E0001F93CF93DF93EC016901C801820F931F1F
:1008F0008130924050F58E81882379F088819981EA
:10090000AA81BB8184179507A607B70731F48F81A9
:100910009885C816D90608F042C0488359836A836F
:100920007B838B85833039F089E0440F551F661F28
:10093000771F8A95D1F79A01AB0161E1CE010E9440
:100940000C04882389F083E08D83CE010E94C303C9
:1009500080E0DF91CF911F910F91FF90EF90DF909A
:10096000CF90BF90AF9008950E9498025B010E94C3
:10097000D5038A878F3F69F40E9498026A197B0920
:100980006D327140A0F38FE08D83CE010E94C303CE
:10099000DCCF8E3F89F418861F8281E08E838F81A1
:1009A00098858C159D0550F40E94D5038F819885FC
:1009B000019698878F83F3CF8DE0E6CF6701E00E35
:1009C000F11E0E94D503F60181936F01EE15FF051C
:1009D000C1F78F819885080F191F18870F838985A4
:1009E000882319F001151240A0F08E81882389F028
:1009F0008F8198859C012F5F3F4F38872F838230EE
:100A0000924018F40E94D503F3CFCE010E94C30395
:100A10001E8281E09ECFCF92DF92EF92FF920F93E2
:100A2000CF93DF93EC01690182E141155105610526
:100A3000710599F08B85833039F089E0440F551F9B
:100A4000661F771F8A95D1F79A01AB0168E1CE0145
:100A50000E940C04882319F084E08D832DC08EEF52
:100A60000E94CE0376018EEFD81AF70181917F01A3
:100A70000E94CE03EC14FD04C1F78FEF0E94CE0359
:100A80008FEF0E94CE030E94D5038A878F71853035
:100A900071F4011116C0CE010E94C30381E0DF9101
:100AA000CF910F91FF90EF90DF90CF90089581E16B
:100AB0008D83CE010E94C303CE010E94C30380E058
:100AC000EECF88E592E00E94D803811102C085E153
:100AD000C4CF20E030E0A9016DE0CE010E940C04FB
:100AE000882311F084E1B9CF0E94D5038111FACF98
:100AF000D2CF0F9340912A0250912B0260912C0289
:100B000070912D02411551056105710599F0082F6D
:100B10002AEA32E08091AA049091AB040E940B056E
:100B2000882349F010922A0210922B0210922C0274
:100B300010922D0281E00F9108950F93CF93C82F4B
:100B400080912902811105C0C1E08C2FCF910F91B6
:100B50000895409108015091090160910A01709136
:100B60000B010C2F2AEA32E08091AA049091AB0489
:100B70000E940B05811102C0C0E0E7CFCC2321F316
:100B800081E00E9479058823B9F310922902DDCF14
:100B90008F929F92AF92BF92EF92FF920F931F930B
:100BA000CF934B015C01C42F809108019091090102
:100BB000A0910A01B0910B0188159905AA05BB0502
:100BC00051F181E00E949D0581110BC080E0CF9121
:100BD0001F910F91FF90EF90BF90AF909F908F90DB
:100BE00008958AEAE82E82E0F82E00E012E030E074
:100BF00020E0B501A4018091AA049091AB040E9469
:100C00006904882319F38092080190920901A09247
:100C10000A01B0920B01409129024C2B409329020A
:100C200081E0D5CF8F929F92AF92BF92CF92DF9209
:100C3000EF92FF92CF9323E535E03093AB042093FE
:100C4000AA04882309F46DC040E060E070E0CB01A5
:100C50000E94C80581110BC080E0CF91FF90EF90FA
:100C6000DF90CF90BF90AF909F908F90089580912C
:100C700068048F7789F78091740490917504A0912E
:100C80007604B091770484369105A105B10520F36F
:100C9000C0907004D0907104E0907204F0907304DE
:100CA000C114D104E104F104B9F240E0C701B60176
:100CB0000E94C805882381F28091B5029091B60206
:100CC0008115924049F6A091BA02AA2329F26091B7
:100CD000B8027091B9026115710509F4BDCF209178
:100CE000B702222309F4B8CFA093710520936305BE
:100CF00090E080E030E0E1E0F0E0C82FAF01082EA6
:100D000002C0440F551F0A94E2F72417350769F013
:100D100041E0480F01968930910579F740936C05C1
:100D20009BCFC12CD12C7601C0CF80936C05209134
:100D3000C0023091C10250E040E02115310541F47C
:100D40002091CE023091CF024091D0025091D10239
:100D500020936405309365054093660550936705BD
:100D600046015701860E971EA11CB11C8092720588
:100D700090927305A0927405B0927505E091BB0244
:100D8000F091BC02F0937805E0937705B0E00E9403
:100D9000AF1DDC01CB01880D991DAA1DBB1D8093E1
:100DA000790590937A05A0937B05B0937C0525E0A7
:100DB000EE0FFF1F2A95E1F7E150FE4FEF2FFF27BF
:100DC000E6958E0F9F1FA11DB11D80936D05909319
:100DD0006E05A0936F05B09370058090BD02909052
:100DE000BE02B12CA12C8114910441F48090CA025E
:100DF0009090CB02A090CC02B090CD02C81AD90A34
:100E0000EA0AFB0AC80CD91CEA1CFB1C04C0F694B5
:100E1000E794D794C794CA95D2F7C0926805D09248
:100E20006905E0926A05F0926B0585EFC8168FE0C0
:100E3000D806E104F10428F48CE08093760581E083
:100E40000CCF80E125EFC2162FEFD206E104F104AA
:100E5000A0F38091D6029091D702A091D802B091D0
:100E6000D9028093790590937A05A0937B05B0937E
:100E70007C0580E2E2CF4F925F926F927F928F92D9
:100E80009F92AF92BF92CF92DF92EF92FF920F9319
:100E90001F93CF93DF93EC0142305105610571053B
:100EA00090F480E0DF91CF911F910F91FF90EF9030
:100EB000DF90CF90BF90AF909F908F907F906F907A
:100EC0005F904F90089589859A85AB85BC85019682
:100ED000A11DB11D84179507A607B70710F3CB888E
:100EE000DC88ED88FE888F89803109F042C0BB27FD
:100EF000A72F962F852F480159012A013B01C80EC3
:100F0000D91EEA1EFB1E8091080190910901A09153
:100F10000A01B0910B01C816D906EA06FB0699F53D
:100F20008F898031C1F5B301A20155276627772744
:100F3000440F551F46555D4FFA0191828082809182
:100F400029028160809329028A89823080F08D8114
:100F50009E81AF81B8858C0D9D1DAE1DBF1D8093F8
:100F60002A0290932B02A0932C02B0932D0281E0D1
:100F700099CFDB01CA01E7E0B695A79597958795CC
:100F8000EA95D1F7B8CF40E0C701B6010E94C80585
:100F90008111C6CF86CFB301A2014F7755276627AF
:100FA0007727440F551F440F551F46555D4FFA01D3
:100FB00080829182A282B382C2CF8F929F92AF929F
:100FC000BF92CF92DF92EF92FF920F931F93CF9336
:100FD000DF93FC0181859285A385B4850196A11DCF
:100FE000B11D84179507A607B70770F480E0DF915D
:100FF000CF911F910F91FF90EF90DF90CF90BF9016
:10100000AF909F908F90089583889488A588B68824
:101010008789803189F5BB27A72F962F852FE90176
:101020006A017B018F01BC01CD01680D791D8A1D0C
:101030009B1D8090080190900901A0900A01B0903A
:101040000B0186169706A806B90601F5F8018789EF
:10105000803111F5DD24EE24FF24F601EE0FFF1F91
:10106000E655FD4F80819181B0E0A0E088839983AF
:10107000AA83BB8381E0BBCFDB01CA01C7E0B69581
:10108000A79597958795CA95D1F7C9CF40E00E945B
:10109000C8058111DBCFAACFE894C7F8DD24EE2480
:1010A000FF24F601EE0FFF1FEE0FFF1FE655FD4F69
:1010B00080819181A281B381BF70D8CF4F925F921E
:1010C0006F927F92AF92BF92CF92DF92EF92FF9298
:1010D0000F931F93CF93DF9300D000D0CDB7DEB72F
:1010E0008C0149835A836B837C835901C12CD12C99
:1010F0007601412C82E0582E612C712C49815A8155
:101100006B817C819E012F5F3F4FC8010E94DD07EC
:10111000882339F1F8018585A301920104C0220FCB
:10112000331F441F551F8A95D2F7DA01C901C80E33
:10113000D91EEA1EFB1E49815A816B817C818789F9
:10114000803111F188EF9FEFAFEFBFE048175907EB
:101150006A077B0798F2F501C082D182E282F382AE
:1011600081E00F900F900F900F90DF91CF911F9122
:101170000F91FF90EF90DF90CF90BF90AF907F9056
:101180006F905F904F90089588EF9FEFA0E0B0E0E0
:10119000DDCFCF93DF93FC012581222321F080E076
:1011A000DF91CF910895EC0180917605803159F55A
:1011B00082E08583178A108E118E128E80917705BA
:1011C00090917805B0E0A0E025E0880F991FAA1F54
:1011D000BB1F2A95D1F7838B948BA58BB68B8FE59C
:1011E00095E09C8F8B8F81E08C831E821F821886F6
:1011F00019861A861B861C861D861E861F86188ADF
:10120000198A1A8ACDCF803251F683E085834091C6
:10121000790550917A0560917B0570917C05478B2B
:10122000508F618F728F9F012D5E3F4F8FE595E04C
:101230000E945E088111D3CFB2CF1F93CF93DF936B
:10124000FC0125812223D1F1162FEC01848187FF37
:101250002AC0668577858089918941E00E94C8050A
:10126000882361F1EA8980E2E89FF0011124E655C4
:10127000FD4F309719F18D81823040F48B899C8924
:10128000AD89BE89848F958FA68FB78F8F89988DF2
:10129000938F828F8F89988DA98DBA8DB58BA48BF2
:1012A0008C818F778C83111103C08C818F7E8C830E
:1012B000812FDF91CF911F910C949D0580E0DF91EC
:1012C000CF911F9108958F929F92AF92BF92CF922C
:1012D000DF92EF92FF920F931F93CF93DF93EC0176
:1012E0008D8181110EC080E0DF91CF911F910F9110
:1012F000FF90EF90DF90CF90BF90AF909F908F9036
:1013000008950B891C892D893E8904171507260726
:10131000370748F34A015B01823031F48A869B86A5
:10132000AC86BD8681E0E0CF81149104A104B104B4
:1013300049F41E821F82188619861A861B861C860F
:101340001D86F0CF0A851B852C853D85EB8DFC8D98
:10135000858590E00996B901A801415051096109BC
:101360007109082E04C076956795579547950A949C
:10137000D2F775016401E1E0CE1AD108E108F10865
:1013800004C0F694E794D794C7948A95D2F7C4160C
:10139000D506E606F70620F0012B022B032B11F5EC
:1013A0008F89988DA98DBA8D8E839F83A887B987E1
:1013B0008E010A5F1F4FC114D104E104F10409F446
:1013C000ADCF4E815F816885798598018B8D9C8D2D
:1013D0000E94DD0791E0C91AD108E108F1088111E6
:1013E000EACF81CFC41AD50AE60AF70AE1CFFF9205
:1013F0000F931F93CF93DF93EC018D81813041F0E8
:1014000090E080E0DF91CF911F910F91FF900895C0
:101410008C8181FFF5CF82FD1BC00091AA04109141
:10142000AB04C8010E94F6030E94D503F82EC80140
:101430000E94C3038FEFF812E3CF8C8185FF1BC09E
:1014400060E0CE010E941D098C818F7D8C83D8CFF6
:101450004B895C896D897E898A859B85AC85BD8534
:1014600084179507A607B707C1F2CE010E9463094A
:101470008111D3CFC5CF40912A0250912B026091A8
:101480002C0270912D02452B462B472B21F080E03A
:101490000E947905B5CF80618C832A853B853170A8
:1014A00080E092E0821B930BADCFCF93DF93EC01F2
:1014B00061E00E941D09882311F01D8281E0DF9107
:1014C000CF9108953F924F925F926F927F928F9249
:1014D0009F92AF92BF92CF92DF92EF92FF920F93C3
:1014E0001F93CF93DF93CDB7DEB72C970FB6F89449
:1014F000DEBF0FBECDBF5C01DC015B968D909C9082
:101500005C9716964D905D906D907C901997411464
:1015100051046104710409F468C0BFEF4B1A5B0AFF
:101520006B0A7B0A312CF40181859285A385B485F1
:101530009C01AD012F5F3F4F4F4F5F4F29873A8787
:101540004B875C87730162011D821E821F82188691
:10155000F40181859285A385B4852D813E814F81DB
:101560005885281739074A075B0708F056C0898550
:101570009A85AB85BC858C159D05AE05BF0550F4DD
:1015800082E0C82ED12CE12CF12C92E0492E512C76
:10159000612C712C9E012F5F3F4FB701A601C40142
:1015A0000E94DD078823C9F189819A81AB81BC81C2
:1015B000892B8A2B8B2B09F1260137019FEF491AC2
:1015C000590A690A790A2D813E814F8158852F5F1A
:1015D0003F4F4F4F5F4F2D833E834F8358873FEFE1
:1015E000C31AD30AE30AF30AB3CFF401408051804F
:1015F000628073803324339496CFC414D504E604F8
:10160000F70409F70FEF1FEF2FEF3FE0B701A60137
:10161000C4010E943B07811119C080E02C960FB6CF
:10162000F894DEBF0FBECDBFDF91CF911F910F9118
:10163000FF90EF90DF90CF90BF90AF909F908F90F2
:101640007F906F905F904F903F900895D5011696D0
:101650004D915D916D917C911997411551056105F1
:10166000710539F097018601C4010E943B07882368
:10167000A1F2D5011696CD92DD92ED92FC921997CA
:10168000332051F0D701C6010196A11DB11DF4010F
:1016900080839183A283B383F5018789908DA18D87
:1016A000B28D892B8A2B8B2B39F48481C78AD08EFB
:1016B000E18EF28E80688483F50184818062848368
:1016C00081E0ACCF2F923F924F925F926F927F92C8
:1016D0008F929F92AF92BF92CF92DF92EF92FF9242
:1016E0000F931F93CF93DF9300D000D01F92CDB7FD
:1016F000DEB77C015B01342E5D83DC0115968C9195
:101700001597813009F0CEC014962C9021FECAC0E6
:1017100022FCB4C0C32CDD8022947FE027222094D9
:10172000B22DB1702B2ED7011A964D915D916D910E
:101730007C911D97C114D10409F428C15B968D9149
:101740009C915C97FC0174807A948A019B0169E00A
:1017500036952795179507956A95D1F770228A01D6
:101760001170711020C001151105E9F416964D9104
:101770005D916D917C911997411551056105710538
:1017800009F099C057968D919D910D90BC91A02D17
:101790000097A105B10509F0B0C0C7010E94620A17
:1017A000882309F47FC080E092E0801B910B460102
:1017B0008C159D0508F44C01D7015B964D915C9109
:1017C0005C9716968D919D910D90BC91A02D0297DE
:1017D000A109B109FA01258504C0880F991FAA1F24
:1017E000BB1F2A95D2F74685578560897189840F7A
:1017F000951FA61FB71F9C01AD01270D311D411D6F
:10180000511D29013A01811432E0930609F07BC091
:101810008091080190910901A0910A01B0910B01FA
:1018200084159505A605B70559F48FEF9FEFDC01E8
:101830008093080190930901A0930A01B0930B01D2
:10184000022D9501B301A2018091AA049091AB04ED
:101850000E940B05882331F19EEFB91AC818D908E8
:10186000F70182859385A485B585880D991DA11DF5
:10187000B11D82879387A487B58755CFF701438928
:1018800054896589768982859385A485B5854817AD
:1018900059076A077B0709F43DCFC7010E94630916
:1018A000811138CF81E090E0D70113969C938E93FD
:1018B000129780E007C09E012F5F3F4F0E94DD0717
:1018C000811102C090E079C089819A81AB81BC818D
:1018D000F701238D348DF901278948EF5FEF60E030
:1018E00070E0203121F048EF5FEF6FEF7FE0841769
:1018F0009507A607B70708F050CFF70186839783AF
:10190000A087B18750CF0115110599F5D7011A9617
:101910004D915D916D917C911D9753968D919D9107
:101920000D90BC91A02D481759076A077B0708F155
:1019300081E00E949D05882309F4B4CF40920801FC
:101940005092090160920A0170920B018091290264
:10195000816080932902C80186559D4FD5019C0165
:10196000280D391DFC012E173F0759F04D91419369
:10197000FACF41E0C301B2010E94C8058111EBCF4B
:1019800091CF281B390BA20EB31E68CFF7018389B4
:101990009489A589B68984179507A607B70738F4EF
:1019A0008481438B548B658B768B80688483F701AD
:1019B000848183FD1AC0832D9D810F900F900F901D
:1019C0000F900F90DF91CF911F910F91FF90EF90AB
:1019D000DF90CF90BF90AF909F908F907F906F904F
:1019E0005F904F903F902F90089561E0C7010E9453
:1019F0001D09882309F456CFDECFCF93DF931F92C2
:101A0000CDB7DEB7698341E050E0BE016F5F7F4F25
:101A10000E94620B0F90DF91CF910895FC01DB01D2
:101A200012968D919C9113979383828389E591E01F
:101A30009183808314968C911497848315968C914E
:101A40001597858316964D915D916D917C911997AF
:101A500046835783608771871A964D915D916D918A
:101A60007C911D9742875387648775871E964D9199
:101A70005D916D917C91519746875787608B718BF3
:101A800052968C915297828B53964D915D916D91A8
:101A90007C915697438B548B658B768B57964D91E3
:101AA0005D916D917C915A97478B508F618F728FAA
:101AB0005B968D919C91948F838F0895FC01818D0D
:101AC000928D009719F061E00C941D090895DC01D6
:101AD0005996ED91FC913097B9F083899489A58945
:101AE000B6894285538564857585841B950BA60B45
:101AF000B70B811520E89207A105B10538F08FEFEB
:101B00009FE7A0E0B0E0089590E080E00895DC0158
:101B100059968D919C91009739F0DC01ED91FC91E3
:101B20000480F581E02D099490E080E00895CF9342
:101B3000DF93EC01E98DFA8D309749F481E090E074
:101B40009B838A8390E080E0DF91CF910895138298
:101B50001282898D9A8D0E94620BE98DFA8D228105
:101B60003381232B59F7F0CFCF93DF931F92CDB75B
:101B7000DEB76983DC01ED91FC910280F381E02DF9
:101B800041E050E0BE016F5F7F4F09950F90DF91FC
:101B9000CF9108952F923F924F925F926F927F92D2
:101BA0008F929F92AF92BF92CF92DF92EF92FF926D
:101BB0000F931F93CF93DF9300D01F92CDB7DEB763
:101BC000FC018581811118C08FEF9FEF0F900F905E
:101BD0000F90DF91CF911F910F91FF90EF90DF90C9
:101BE000CF90BF90AF909F908F907F906F905F90BD
:101BF0004F903F902F900895848180FFE5CF4389D7
:101C000054896589768982859385A485B585312C2B
:101C1000212C481759076A077B0719F022242394BF
:101C2000312C6F012101CE0101963C01DF01169696
:101C3000BB83AA834114510409F4C5C0F60142854F
:101C40005385648575854A01F1E09F22D6015B9634
:101C50008D919C915C978A019B01E9E036952795CF
:101C600017950795EA95D1F71596EC91E230E9F5CD
:101C7000FC01628D738D848D958D600F711F821FA5
:101C8000931FA12C22E0B22EA818B9084A145B04B5
:101C900008F45201F601248126FD04C0A114F2E0EB
:101CA000BF0671F4009108011091090120910A0109
:101CB00030910B01061717072807390709F05EC096
:101CC00040E00E94C805882309F47ECFC4018655F0
:101CD0009D4FD3019C012A0D3B1DFC012E173F0790
:101CE00009F46CC041914D93F9CFDC011496BC907E
:101CF000BA94B0228114910479F4B1100DC0452B2F
:101D0000462B472B69F5F6018789908DA18DB28D01
:101D100086839783A087B187D6015B96ED91FC916E
:101D20005C9716966D917D918D919C91199762505B
:101D3000710981099109258504C0660F771F881FE5
:101D4000991F2A95D2F70685178520893189600F5A
:101D5000711F821F931F6B0D711D811D911D91CFEE
:101D6000D60116964D915D916D917C9119972A81BE
:101D70003B810E94DD078111CFCF26CF7301850102
:101D80009401AB01BC018091AA049091AB040E9424
:101D90006904882309F418CF6A0C7B1CF60182853C
:101DA0009385A485B5858A0D9B1DA11DB11D8287D4
:101DB0009387A487B5874A185B083CCF281B390B4B
:101DC000620E731EEBCF2A94232809F0FDCE898181
:101DD00090E0FCCEFC01818D928D009711F00C9467
:101DE000CA0D8FEF9FEF08950F931F93CF93DF934B
:101DF000EC01898D9A8D10E000E0009799F00E9427
:101E0000CA0D8C010F3F100769F0898D9A8DFC0176
:101E10004285538564857585415051096109710971
:101E20000E946309C801DF91CF911F910F9108951E
:101E3000FC01228533858485882341F08085918546
:101E40000196B9010E94791D9187808786819781CB
:101E50000196B9010E94791D9C019783868391E0C8
:101E6000408551854217530709F090E09487089503
:101E7000CF93DF93CCEAD4E028813981A9EAB5E099
:101E800016968D919C911797880F991FED91FC9153
:101E90001197E80FF91F31832083CD010E94180F9D
:101EA0002A813B81ACE9B5E016968D919C911797FC
:101EB000880F991FED91FC911197E80FF91F31835D
:101EC0002083CD010E94180F8091B2049091B30439
:101ED00001969093B3048093B204DF91CF9108955B
:101EE000CF93DF93EC01FB01828193819B838A83F3
:101EF00087E791E09983888384818C8385818D83B2
:101F000086818E8388E03796DE01179601900D92C8
:101F10008A95E1F7FB0187858F878089888B818986
:101F2000898B82898A8B83898B8B84899589A68901
:101F3000B7898C8B9D8BAE8BBF8BDF91CF91089532
:101F4000089590E080E00895CF93DF93EC0160E086
:101F50008E810E94CD0261E08E810E94CD0260E000
:101F60008E810E94CD028BE891E00197F1F7DF911D
:101F7000CF910895CF92DF92EF92FF920F931F932C
:101F8000CF93DF936C017C0187E0E80EF11CD0E079
:101F9000C0E0062F10E0B8010C2E02C075956795C1
:101FA0000A94E2F76170F70181917F010E94CD02EE
:101FB0002196C430D10579F7C601DF91CF911F91E9
:101FC0000F91FF90EF90DF90CF900C94A40FCF92E1
:101FD000DF92EF92FF920F931F93CF93DF93EC0169
:101FE000F62E642F8C810E94CD028D818F3F19F0D7
:101FF00060E00E94CD020F2D10E08F8584FF25C088
:102000006E0187E0C80ED11CF12CE12CB8010E2C1A
:1020100002C0759567950A94E2F76170F6018191A7
:102020006F010E94CD02FFEFEF1AFF0A88E0E81669
:10203000F10461F7CE01DF91CF911F910F91FF90D5
:10204000EF90DF90CF900C94A40FB80184E07595C9
:1020500067958A95E1F7CE010E94BA0F6F2DCE01E8
:10206000DF91CF911F910F91FF90EF90DF90CF9074
:102070000C94BA0F41E00E94E70F81E090E00895D0
:1020800040E00C94E70FDC015396EC91E23040F411
:10209000E150E80FF92FF11D648960680C9440103D
:1020A000E1E0F7CF61E00E9440108BE39FE10197F0
:1020B000F1F70895CF93DF93823029F49091E005F2
:1020C00098609093E0058093E4051092E50580E424
:1020D0008093E60580E18093E70580E58093E8053D
:1020E00061E08091D5050E94FB028091D6058F3F6B
:1020F00019F061E00E94FB0261E08091D7050E9427
:10210000FB02C1EDD5E09E01215D35408091E005E7
:1021100084FD0BC084E090E021962817390744F431
:1021200061E08E810E94FB02EECF88E090E0F4CF68
:102130008BE39DE00197F1F760E08091D5050E9467
:10214000CD0260E08091D7050E94CD028091D60536
:102150008F3F19F060E00E94CD026091E00564FDC0
:102160003CC063E081ED95E00E94BA0FCBE4D6E479
:10217000CE010197F1F763E081ED95E00E94BA0F7F
:102180002197F1F763E081ED95E00E94BA0F83E5B6
:1021900092E00197F1F762E081ED95E00E94BA0FBD
:1021A0006091E005606281ED95E00E94401084E05E
:1021B0008093E1056CE081ED95E00E94401081ED97
:1021C00095E00E94521082E08093E20566E081ED86
:1021D00095E0DF91CF910C944010606281ED95E025
:1021E0000E9440108BE496E40197F1F76091E005BE
:1021F000606281ED95E00E94401083E592E00197D6
:10220000F1F76091E005606281ED95E00E94401079
:10221000C7CFCF92DF92EF92FF921F93CF93DF93BE
:10222000EC0180E2689FF0011124E655FD4F938593
:10223000917161F0842F827449F080E0DF91CF9139
:102240001F91FF90EF90DF90CF900895142F6A8B2D
:102250008091080190910901A0910A01B0910B01B0
:102260008E879F87A88BB98BC488D588F12CE12CE9
:102270007601DD24CC24CF8AD88EE98EFA8E828D29
:10228000938DB0E0A0E0AC01BD014C295D296E2921
:102290007F294F8B588F698F7A8F83858871B1F42E
:1022A000848D958DA68DB78D8B8B9C8BAD8BBE8BC6
:1022B00081E08D831F701C831E821F821886198601
:1022C0001A861B861C861D8681E0B8CF803109F0F6
:1022D000B4CF9E012D5E3F4F8B8D9C8D0E945E087A
:1022E000882309F4AACF84E0E4CFFB010190002009
:1022F000E9F73197AF01461B570BDC01ED91FC91DB
:102300000280F381E02D09944F925F926F927F9249
:102310008F929F92AF92BF92CF92DF92EF92FF92F5
:102320000F931F93CF93DF93CDB7DEB7A1970FB66F
:10233000F894DEBF0FBECDBF8C016B01770FEE08A6
:10234000FF08F7FE50C0DC01ED91FC910190F08197
:10235000E02D6DE209955C0122273327A9012C1994
:102360003D094E095F0919A2FE01B1967F019AE06D
:10237000492E512C612C712CCA01B901A301920183
:102380000E948D1D605DD7016E937D012115310581
:102390004105510589F790E080E0109721F0BD01DB
:1023A000C8010E947511A80EB91E6FE771E0C8013F
:1023B0000E9475118A0D9B1DA1960FB6F894DEBF81
:1023C0000FBECDBFDF91CF911F910F91FF90EF9086
:1023D000DF90CF90BF90AF909F908F907F906F9045
:1023E0005F904F900895A701960119A2FE01B19642
:1023F0007F018AE0882E912CA12CB12CCA01B90151
:10240000A50194010E948D1D605DD7016E937D0131
:10241000211531054105510589F7B12CA12C1097E3
:1024200021F2BD01C8010E9475115C01BECF0F935E
:102430001F93CF93DF93EC010E9475118C016FE71E
:1024400071E0CE010E947511800F911FDF91CF9135
:102450001F910F910895CF93DF9362E871E084EBB1
:1024600094E00E941712E1ECF0E08491EDEAF0E0D4
:10247000D491E9E9F0E0C491CC2349F181110E94A3
:10248000A402EC2FF0E0EE0FFF1FE859FF4FA591DB
:10249000B491EC91ED2391E080E009F490E0C92F34
:1024A000D82FBE0184EB94E00E948411CD2B61F003
:1024B0006CE871E084EB94E00E94171281E090E0F8
:1024C0009093280280932702DF91CF910895D0E066
:1024D000C0E0E7CF0F931F93CF93DF93EC01CE01C2
:1024E0000E94521067E271E0CE010E947511CE0188
:1024F0000E94431060E0CE010E943A1066E171E054
:10250000CE010E94751180912702909128020197B7
:10251000D1F160E17EE080E090E00E94660280916F
:10252000270290912802019771F10BE010E068E119
:10253000CE010E94401080912702909128020197BD
:1025400011F168E572E080E090E00E9466028091FF
:102550002702909128020197B1F00150110939F733
:102560008091270290912802019769F060E971E05B
:1025700080E090E00E9466028091270290912802FC
:10258000019709F0ACCF90E080E0DF91CF911F91EF
:102590000F910895CF93DF93CDB7DEB7E0970FB6D5
:1025A000F894DEBF0FBECDBFBC01CE0149960E949C
:1025B000700FCE0149960E945210CE0149960E949A
:1025C000431069A5862F816089A76960CE0149966D
:1025D0000E944010B12CA12C10E000E0D12CC12CA5
:1025E000912CEE24E394F12C8EE00E945A039093F8
:1025F000AD048093AC048FE00E945A039093AF0423
:102600008093AE0480E10E945A039093B1048093BA
:10261000B0040E949500882E21E0C216D10409F46E
:10262000E3C0882399F00E94380F982C10E000E056
:10263000CC24C394D12C8091B2049091B30405971B
:1026400099F6F0922602E0922502CECFA114B104B1
:1026500009F470C0043611050CF46AC0809125029B
:1026600090912602892B69F18091B3059091B40570
:102670002091B505211110C04091AF055091B005D2
:102680002091B1053091B205840F951F4217530771
:102690000CF0CA01821B930B059708F44EC089EA1F
:1026A00095E00E9418010E94B51C6E3D23E0720760
:1026B00008F048C07093AD046093AC040E9495008C
:1026C000982E41E0692DCE0149960E94E70F1092A5
:1026D000B2051092B1051092B0051092AF0510929C
:1026E000B5051092A5051092A4051092A3051092AD
:1026F000A2051092A80510922602109225021092AF
:10270000B3041092B2048091230290912402FC0140
:10271000ED5EFD4F908201968031910509F441C034
:102720009093240280932302B12CA12C10E000E0AE
:102730000F5F1F4FD12CC12C7ECF60E070E080E88E
:102740009FEBB1CF8091A6059091A7052091A80598
:10275000211110C04091A2055091A3052091A4051C
:102760003091A505840F951F421753070CF0CA013D
:10277000821B930B059780F08CE995E00E9418016D
:102780000E94B51C6E3D23E0720708F097CF70934E
:10279000AF046093AE0492CF60E070E080E89FEBFE
:1027A000EFCF1092240210922302BE01675E7F4F8A
:1027B000CE0101960E94700FCE0101960E94521028
:1027C0006989862F8160898B6960CE0101960E949C
:1027D000401063E172E0CE0101960E947511CE01B6
:1027E00001960E944310A0CF811106C00F5F1F4FBA
:1027F000AA24A394B12C9ECF0E94380F1CCF1F9304
:10280000CF93DF9385ED8093BC008091330290914C
:102810003402A0913502B09136020796A11DB11D78
:1028200023E0B695A795979587952A95D1F720919E
:10283000BC0024FD03C010927B0252C040913302C1
:10284000509134026091350270913602452B462B2F
:10285000472B69F30097A105B10541F025E32A95BF
:10286000F1F700000197A109B109E1CF809132028F
:10287000C1E0C0933102882399F1D091B800109142
:10288000BA008091BC008A7B8093BC0060E082E14A
:102890000E94CD0260E083E10E94CD0210927B0293
:1028A000C0937D0210927C0261E082E10E94CD0221
:1028B00061E083E10E94CD028091B9008E7F809318
:1028C000B9008091B9008D7F8093B90088E480932E
:1028D000B80085E48093BC001093BA00D093B80090
:1028E000DF91CF911F9108953F924F925F926F9227
:1028F0007F928F929F92AF92BF92CF92DF92EF9290
:10290000FF920F931F93CF93DF93CDB7DEB72B9733
:102910000FB6F894DEBF0FBECDBF7C01FE0131962D
:10292000CE010C966F0130E23193E817F907E1F719
:10293000DA0130E087E09D91B92E992309F43CC07B
:102940009E32F1F48A30C9F480E02B960FB6F894E9
:10295000DEBF0FBECDBFDF91CF911F910F91FF90D2
:10296000EF90DF90CF90BF90AF909F908F907F902F
:102970006F905F904F903F90089538E08AE0DBCFF2
:10298000E2E7F0E04491442321F031969413FACF2A
:10299000DBCF8317C8F24FED490F4E35A8F64FE94C
:1029A000490F4A3118F440EEB42EB90EF601E30F88
:1029B000F11DB0823F5FBFCF8981803229F2322E74
:1029C0008B01DB015B968D919C915C97F701948F55
:1029D000838F16961D921D921D921C921997FB01D2
:1029E0001286138614861586F80182859385A48540
:1029F000B585438954896589768984179507A60723
:102A0000B70708F04DC025E0B695A795979587952F
:102A10002A95D1F7F82FFF70AF2ED80115968C911B
:102A2000823008F491CFC8010E94CA0D97FD8CCF67
:102A3000F80182859385A485B5854F96A11DB11DAA
:102A400082879387A487B587F0E2AF9EB0011124F7
:102A500066557D4F6115710509F476CFDB018C91C8
:102A6000882341F0853E09F062C0BB2029F0BB24D9
:102A7000B394BACFB1100EC0F701A28A80910801B9
:102A800090910901A0910A01B0910B018687978767
:102A9000A08BB18BDB018C918111E9CFBB24B39466
:102AA000832D8271823109F04FCFBB2009F44DC0D4
:102AB000F701668577858089918941E00E94C80584
:102AC000882309F441CFD70152968C91B0E28B9FB5
:102AD000C001112486559D4F009709F435CFFC01A4
:102AE0003A9626E1DF011D922A95E9F72BE0F601DF
:102AF000DC0101900D922A95E1F721E238E2FC0118
:102B0000318B208B40E058E057874687338B228BF0
:102B1000318F208F578B468B81E00E949D05882343
:102B200009F412CF432DD70152966C910AC04BE0A5
:102B300050E0C6010E94081F892B09F055CF432D94
:102B40006A2DC7010E94091100CFF80185818230EA
:102B500009F4FACEC8010E94620A882309F4F4CE6F
:102B6000D8015B96ED91FC915C9716968D909D90A7
:102B7000AD90BC901997B2E08B1A9108A108B108EA
:102B8000858504C0880C991CAA1CBB1C8A95D2F7A9
:102B900086859785A089B189880E991EAA1EBB1EBD
:102BA000848124013501480E511C611C711C841460
:102BB0009504A604B70409F1E1E04E1A5108610832
:102BC000710881E00E949D05882309F4BDCEEAEAE0
:102BD000F2E011928AEA94E08E179F07D1F74092B3
:102BE00008015092090160920A0170920B018091D4
:102BF0002902816080932902DACFD8015B96ED919A
:102C0000FC91258580E092E0A0E0B0E004C0880F50
:102C1000991FAA1FBB1F2A95D2F7F801438954892F
:102C200065897689840F951FA61FB71F838B948BA8
:102C3000A58BB68BD70152961C928AEA92E04FCFB1
:102C4000EF92FF920F931F93CF93DF93EC017B01E1
:102C50008A011B821A8288EE93E0A0E0B0E08C83A8
:102C60009D83AE83BF8385E691E0998388838DE160
:102C700090E00E94E31D9A8F898F009779F02DE1F3
:102C8000F701DC0101900D922A95E1F74CE050E04C
:102C9000B801CE010C960E94151F188EDF91CF91BE
:102CA0001F910F91FF90EF9008951F920F920FB612
:102CB0000F9211242F933F938F939F93AF93BF93C2
:102CC0008091A2029091A302A091A402B091A502CA
:102CD0003091A10223E0230F2D3758F50196A11D55
:102CE000B11D2093A1028093A2029093A302A0930E
:102CF000A402B093A5028091A6029091A702A09190
:102D0000A802B091A9020196A11DB11D8093A6024F
:102D10009093A702A093A802B093A902BF91AF918C
:102D20009F918F913F912F910F900FBE0F901F9009
:102D3000189526E8230F0296A11DB11DD2CF1F9230
:102D40000F920FB60F9211242F933F934F935F93DF
:102D50006F937F938F939F93AF93BF93EF93FF9363
:102D6000E0910E01F0910F010995FF91EF91BF9154
:102D7000AF919F918F917F916F915F914F913F9113
:102D80002F910F900FBE0F901F9018951F920F92CA
:102D90000FB60F9211242F933F934F935F936F932E
:102DA0007F938F939F93AF93BF93EF93FF93E091A4
:102DB0000C01F0910D010995FF91EF91BF91AF9139
:102DC0009F918F917F916F915F914F913F912F9143
:102DD0000F900FBE0F901F9018951F920F920FB675
:102DE0000F9211242F933F934F935F936F937F9391
:102DF0008F939F93AF93BF93EF93FF9384EB94E0F4
:102E00000E94B201FF91EF91BF91AF919F918F917D
:102E10007F916F915F914F913F912F910F900FBED6
:102E20000F901F9018951F920F920FB60F921124BA
:102E30002F938F939F93EF93FF93E091C404F091AE
:102E4000C5048081E091CA04F091CB0482FD1BC0CF
:102E500090818091CD048F5F8F732091CE04821773
:102E600041F0E091CD04F0E0EC54FB4F958F80935E
:102E7000CD04FF91EF919F918F912F910F900FBEF5
:102E80000F901F9018958081F4CF1F920F920FB66C
:102E90000F9211242F933F934F935F936F937F93E0
:102EA0008F939F93AF93BF93EF93FF938091B9005C
:102EB000887F803609F44AC0F0F5883209F4A5C04D
:102EC00018F5803109F499C0B8F4882309F4F5C0E5
:102ED000883009F492C0FF91EF91BF91AF919F911B
:102EE0008F917F916F915F914F913F912F910F90B3
:102EF0000FBE0F901F901895883109F486C080325C
:102F000051F780937A0214C0803409F49BC040F4D6
:102F10008033B9F38833F9F680937A0285ECAEC03A
:102F2000803509F483C0883509F494C0883499F653
:102F30000E94FF13D0CF883909F48AC038F588374A
:102F400029F050F4883611F0803729F683E0809319
:102F50007B021092790255C0883809F479C0803913
:102F600019F0803809F0B7CF80917902803208F0EB
:102F70006FC0E091790281E08E0F80937902809199
:102F8000BB00F0E0E75AFD4F80833BC0803B39F047
:102F9000D0F4803A09F477C0883A09F09CCF84E0F5
:102FA00080937B021092580210925702F0E0E0E00A
:102FB00009958091570281110FC081E080935702DB
:102FC0001092370209C0803C09F4A8CF883C09F46C
:102FD000A5CF883B09F07FCFE091580281E08E0FAA
:102FE00080935802F0E0E95CFD4F80818093BB0044
:102FF000909158028091570229C08091A00280933D
:10300000BB0085EC8093BC0066CF90919F028091BD
:103010009E02981758F5E0919F0281E08E0F8093F1
:103020009F02F0E0E258FD4F8081E9CFE0919F02DE
:1030300081E08E0F80939F028091BB00F0E0E25808
:10304000FD4F808390919F0280919E029817C8F255
:1030500085E8D8CFE0919F0281E08E0F80939F0298
:103060008091BB00F0E0E258FD4F808380917D02AB
:1030700081115ECF81E080937C0284EA8093BC0062
:1030800010927B0228CF85EC8093BC0010927B02CB
:1030900080917902803230F4E0917902F0E0E75AD1
:1030A000FD4F10826091790270E089E592E0F0E0D6
:1030B000E0E00995109279020ECF10927A0238CF93
:1030C000CF92DF92EF92FF92CF93DF93E4EBF4E0A5
:1030D0001382128288EEC82E83E0D82EE12CF12CC8
:1030E000C482D582E682F78287E491E0918380836F
:1030F00085EC90E09587848784EC90E097878687BD
:1031000080EC90E0918B808B81EC90E0938B828BB4
:1031100082EC90E0958B848B86EC90E0978B868B8D
:10312000118E128E138E148EE1E5F5E080E580831A
:103130001182E3E5F5E0158216821186138682E09E
:1031400090E0A0E0B0E084879587A687B78713A2B8
:1031500015A614A689E591E093A782A717A684E196
:1031600090E00E94E31DE9EAF5E091838083092E57
:10317000000CAA0BBB0B82839383A483B583CAE0A4
:10318000D0E0D387C28711861086178216821486F4
:1031900084E190E00E94E31DECE9F5E091838083F7
:1031A000092E000CAA0BBB0B82839383A483B583E7
:1031B000D387C28711861086178216821486E1EDA6
:1031C000F5E01382128287E791E09183808384E0A7
:1031D00084838FEF858385E0868386E0878387E01D
:1031E000808788E0818789E0828713861486158628
:1031F0001686178681E00E945A10E6EBF5E01382EE
:103200001282C482D582E682F78285E691E09183BC
:103210008083128E118E1486DF91CF91FF90EF90F4
:10322000DF90CF900895CF93DF93CDB7DEB7C2572D
:10323000D1090FB6F894DEBF0FBECDBF789484B528
:10324000826084BD84B5816084BD85B5826085BDA2
:1032500085B5816085BD80916E00816080936E0030
:103260001092810080918100826080938100809122
:1032700081008160809381008091800081608093D3
:1032800080008091B10084608093B1008091B00093
:1032900081608093B00080917A00846080937A008E
:1032A00080917A00826080937A0080917A008160B8
:1032B00080937A0080917A00806880937A001092DF
:1032C000C10061E08DE00E94FB0260E083E00E94AB
:1032D000FB028BE292E190930F0180930E018091AB
:1032E0006900837F846080936900E99AE091C40457
:1032F000F091C50482E08083E091C004F091C104A4
:103300001082E091C204F091C3048FEC808310928C
:10331000CC04E091C804F091C90486E08083E09178
:10332000C604F091C704808180618083E091C60467
:10333000F091C704808188608083E091C604F09199
:10334000C704808180688083E091C604F091C7043F
:1033500080818F7D808380918205882321F08DE795
:1033600095E00E94550A10925E0510925C0510923D
:103370005905109258058AE0809357050E949802DB
:103380008B0161E0809157050E94FB0261E0809112
:1033900057050E94CD02FFB6F89480911202811168
:1033A00027C0E0EAF0E08491E4EBF0E09491E82FAC
:1033B000F0E0EE0FFF1FEE57FF4FA591B491EC9197
:1033C000E92321F461E08AE00E94CD0261E08AE015
:1033D0000E94FB028CB580618CBD8CB580648CBD75
:1033E00061E08DE00E94FB0261E08BE00E94FB0245
:1033F000809112028F5F80931202FFBE82E580935C
:1034000051051092520580915105909152050E94EC
:10341000F3033AE0F32E8FEF0E94CE03FA94F110FB
:10342000FACF83E595E00E94F60320E030E0A901A1
:1034300060E083E595E00E940C04F82E80935D0522
:1034400081E0F816A9F00E949802601B710B613DA3
:10345000774058F381E08093580583E595E00E941A
:10346000C3036EE971E084EB94E00E941712FFCF72
:103470002AEA31E040E050E068E083E595E00E9410
:103480000C0482FF2AC0F0925E0580915E05C12C7B
:10349000D12C7601823029F4C12CD12CE12C90E47E
:1034A000F92E20E030E0A90167E383E595E00E9472
:1034B0000C04A701960169E283E595E00E940C04E3
:1034C00080935D058823D1F00E949802601B710BE8
:1034D000613D774030F388E0BECF24E0F22E0E94B9
:1034E000D50380935D05FA94F110F9CF8A3A11F073
:1034F00082E0B1CF82E080935E05C7CF80915E0508
:103500008230D1F420E030E0A9016AE383E595E060
:103510000E940C04882311F086E09DCF0E94D50301
:10352000807C803C19F483E080935E050E94D50383
:103530000E94D5030E94D50383E595E00E94C30352
:1035400080E5809351051092520581E00E94120699
:10355000882309F4DFC08DE795E00E94C90888231D
:1035600009F47FCF1C821B8209E511E01A830983CD
:103570001E82CE0101960E94C908BE016F5F7F4F77
:10358000CE01CB960E940E0D19A218A21F8F0E8F8E
:103590001BA221968FAD21978111C3C06C961FAEDF
:1035A0001EAE6C9788EE93E0A0E0B0E0A0968CAFE2
:1035B0009DAFAEAFBFAFA09785E691E06A969FAF93
:1035C0008EAF6A97E3961FAE1EAEE397A5961FAE29
:1035D000A5976C968EAD9FAD6C979093B90580932F
:1035E000B805A0968CAD9DADAEADBFADA097809354
:1035F000BA059093BB05A093BC05B093BD05A496F6
:103600008CAD9DADAEADBFADA4978093BE0590933C
:10361000BF05A093C005B093C105A8E5B0E0AC0F0D
:10362000BD1F1C96E2ECF5E08D91819385E0EF3CA7
:10363000F807D1F7E396EEADFFADE397F093D00531
:10364000E093CF05309709F497C08581882309F46A
:1036500093C065EB71E084EB94E00E9475116CEC13
:1036600071E086EB95E00E94171263EE71E086EB45
:1036700095E00E94171210E000E0B80186EB95E09B
:103680000E9484110F5F1F4F04311105B1F7809123
:10369000CF059091D005009761F00E94550A809166
:1036A000CF059091D0050E947F1E1092D0051092F8
:1036B000CF0564EF71E084EB94E00E94171260E4A0
:1036C00081ED95E00E94401000E011E088E0E82ED6
:1036D00081E0F82EF80161918F0181ED95E00E9463
:1036E0003A10E016F106B1F782E00E945A1080917C
:1036F000270290912802009709F441C00197B9F779
:1037000061ED75E0CE0101960E94700FCE01019629
:103710000E94CA1280E00E941206882309F4A1CEFA
:103720001ACF27E148E052E0BE01655C7F4FCE0131
:103730004E960E947414882309F430CFCE01CB96A4
:103740000E94550A49A95AA96BA97CA9CE014E9697
:103750000E946309BE01625E7F4FCE0101960E9406
:103760000E0D48E052E0BE016F5F7F4FCE01885AD8
:103770009F4F0E9420162DCF6AEF71E09CCF61ED24
:1037800075E0CE0101960E94700FCE0101960E9455
:103790006A12ADCF80919C0590919D050E947F1E7D
:1037A0008091A9059091AA050C947F1E5058BB27C3
:1037B000AA270E94EE1B0C943F1D0E94311D38F079
:1037C0000E94381D20F039F49F3F19F426F40C9420
:1037D0002E1D0EF4E095E7FB0C94281DE92F0E94A6
:1037E000501D58F3BA17620773078407950720F036
:1037F00079F4A6F50C94721D0EF4E0950B2EBA2FF9
:10380000A02D0B01B90190010C01CA01A0011124E6
:10381000FF27591B99F0593F50F4503E68F11A1692
:10382000F040A22F232F342F4427585FF3CF469523
:1038300037952795A795F0405395C9F77EF41F1645
:10384000BA0B620B730B840BBAF09150A1F0FF0F0F
:10385000BB1F661F771F881FC2F70EC0BA0F621FFB
:10386000731F841F48F4879577956795B795F795EB
:103870009E3F08F0B0CF9395880F08F09927EE0F80
:103880009795879508950E94571C0C943F1D0E94A0
:10389000381D58F00E94311D40F029F45F3F29F097
:1038A0000C94281D51110C94731D0C942E1D0E9414
:1038B000501D68F39923B1F3552391F3951B550BD4
:1038C000BB27AA2762177307840738F09F5F5F4FF3
:1038D000220F331F441FAA1FA9F335D00E2E3AF032
:1038E000E0E832D091505040E695001CCAF72BD04A
:1038F000FE2F29D0660F771F881FBB1F261737079B
:103900004807AB07B0E809F0BB0B802DBF01FF27CC
:1039100093585F4F3AF09E3F510578F00C94281D64
:103920000C94731D5F3FE4F3983ED4F3869577952E
:103930006795B795F7959F5FC9F7880F911D969585
:10394000879597F90895E1E0660F771F881FBB1FE1
:10395000621773078407BA0720F0621B730B840B8E
:10396000BA0BEE1F88F7E09508950E94BC1C68947E
:10397000B1110C94731D08950E94581D88F09F5733
:1039800098F0B92F9927B751B0F0E1F0660F771F83
:10399000881F991F1AF0BA95C9F714C0B13091F079
:1039A0000E94721DB1E008950C94721D672F782F4C
:1039B0008827B85F39F0B93FCCF38695779567953E
:1039C000B395D9F73EF490958095709561957F4FAA
:1039D0008F4F9F4F0895E89409C097FB3EF4909550
:1039E0008095709561957F4F8F4F9F4F9923A9F0D8
:1039F000F92F96E9BB279395F69587957795679567
:103A0000B795F111F8CFFAF4BB0F11F460FF1BC0AA
:103A10006F5F7F4F8F4F9F4F16C0882311F096E93D
:103A200011C0772321F09EE8872F762F05C06623EB
:103A300071F096E8862F70E060E02AF09A95660FA4
:103A4000771F881FDAF7880F9695879597F908955D
:103A500097F99F6780E870E060E008959FEF80EC41
:103A6000089500240A9416161706180609060895E4
:103A700000240A9412161306140605060895092E4A
:103A80000394000C11F4882352F0BB0F40F4BF2BB9
:103A900011F460FF04C06F5F7F4F8F4F9F4F0895F9
:103AA00057FD9058440F551F59F05F3F71F04795EF
:103AB000880F97FB991F61F09F3F79F087950895D4
:103AC000121613061406551FF2CF4695F1DF08C0F3
:103AD000161617061806991FF1CF86957105610510
:103AE00008940895E894BB2766277727CB0197F9B8
:103AF000089597FB072E16F4009407D077FD09D0A0
:103B00000E94BA1D07FC05D03EF4909581959F4F09
:103B10000895709561957F4F0895A1E21A2EAA1B12
:103B2000BB1BFD010DC0AA1FBB1FEE1FFF1FA2176D
:103B3000B307E407F50720F0A21BB30BE40BF50B6A
:103B4000661F771F881F991F1A9469F760957095F3
:103B5000809590959B01AC01BD01CF0108950E9415
:103B6000D41DA59F900DB49F900DA49F800D911D15
:103B700011240895AA1BBB1B51E107C0AA1FBB1F3C
:103B8000A617B70710F0A61BB70B881F991F5A95E9
:103B9000A9F780959095BC01CD010895EE0FFF1F08
:103BA0000590F491E02D0994A29FB001B39FC0014C
:103BB000A39F700D811D1124911DB29F700D811D59
:103BC0001124911D08950F931F93CF93DF9382309B
:103BD000910510F482E090E0E091EB05F091EC05A6
:103BE00030E020E0B0E0A0E0309799F421153105F5
:103BF00009F44AC0281B390B24303105D8F58A81D5
:103C00009B816115710589F1FB0193838283FE011C
:103C100011C0408151810281138148175907E0F09A
:103C20004817590799F4109761F012960C93129760
:103C300013961C933296CF01DF91CF911F910F9174
:103C400008950093EB051093EC05F4CF2115310591
:103C500051F04217530738F0A901DB019A01BD0169
:103C6000DF01F801C1CFEF01F9CF9093EC0580930C
:103C7000EB05CDCFFE01E20FF31F8193919322500C
:103C8000310939832883D7CF2091E9053091EA059E
:103C9000232B41F420911201309113013093EA0556
:103CA0002093E90520911001309111012115310572
:103CB00041F42DB73EB74091140150911501241BDA
:103CC000350BE091E905F091EA05E217F307A0F45E
:103CD0002E1B3F0B2817390778F0AC014E5F5F4F62
:103CE0002417350748F04E0F5F1F5093EA054093A5
:103CF000E905819391939FCFF0E0E0E09CCFCF93D3
:103D0000DF930097E9F0FC01329713821282A091B1
:103D1000EB05B091EC05ED0130E020E01097A1F447
:103D200020813181820F931F2091E9053091EA05AE
:103D30002817390709F061C0F093EA05E093E90517
:103D4000DF91CF910895EA01CE17DF07E8F54A81A8
:103D50005B819E0141155105B1F7E901FB83EA83BF
:103D600049915991C40FD51FEC17FD0761F480816B
:103D700091810296840F951FE9019983888382813E
:103D800093819B838A83F0E0E0E012968D919C9171
:103D900013970097B9F52D913C911197CD0102969B
:103DA000820F931F2091E9053091EA052817390702
:103DB00039F6309751F51092EC051092EB05B0935F
:103DC000EA05A093E905BCCFD383C283408151812A
:103DD000840F951FC817D90761F44E5F5F4F888124
:103DE0009981480F591F518340838A819B81938316
:103DF00082832115310509F0B0CFF093EC05E093F3
:103E0000EB059ECFFD01DC01C0CF13821282D7CF1C
:103E1000FB01DC0104C08D910190801921F4415017
:103E20005040C8F7881B990B0895FB01DC014150F5
:103E3000504048F001900D920020C9F701C01D923A
:103E400041505040E0F7089510E0CAE6D0E004C0C9
:103E5000FE010E94CE1D2196CB36D107C9F7F894FA
:023E6000FFCF92
:103E62000E111D191D110E00FFFFFFFF2C032C0365
:103E72000000ED05800032303230204E6F61682044
:103E82005765696E65720057656C636F6D65207466
:103E92006F2074686520487970655772697465721D
:103EA20021210000000000D4012D0375012102A68A
:103EB200018401980100000000FD0C2D03F709A008
:103EC2000F00000000B40D970D870D5E0D670DEA1F
:103ED2000EF40E000000003A102D03A10FA00F0DEA
:103EE2000A00496E74657272757074007365747439
:103EF200696E6720746F20747970696E6700696EED
:103F0200697469616C697A6174696F6E206661694E
:103F12006C6564210057726974696E6720746F2042
:103F2200746573742E7478742E2E2E00546869731F
:103F3200206973206120746573742066696C652042
:103F42003A290074657374696E6720312C20322C13
:103F520020332E00646F6E652E006572726F7220C0
:103F62006F70656E696E6720746573742E747874F1
:023F720000004D
:00000001FF
