:100000000C9463000C94920D0C946B0D0C948B006B
:100010000C948B000C948B000C948B000C948B0034
:100020000C948B000C948B000C948B000C948B0024
:100030000C948B000C948B000C948B000C948B0014
:100040000C94210D0C948B000C94DF0D0C94B90DC5
:100050000C948B000C948B000C948B000C948B00F4
:100060000C94110E0C948B0000000000230026005D
:10007000290000000000240027002A0000000000E2
:10008000250028002B0004040404040404040202D4
:100090000202020203030303030301020408102007
:1000A0004080010204081020010204081020000012
:1000B0000008000201000003040700000000000027
:1000C00000002C0F971111241FBECFEFD8E0DEBF28
:1000D000CDBF11E0A0E0B1E0EAEFF5E202C005908B
:1000E0000D92AA36B107D9F725E0AAE6B1E001C022
:1000F0001D92A532B207E1F710E0C2E6D0E004C0DD
:100100002197FE010E94C511C136D107C9F70E948F
:10011000D8100C94F0120C940000FC01538D448D07
:10012000252F30E0842F90E0821B930B541710F0A2
:10013000CF96089501970895FC01918D828D9817AF
:1001400061F0A28DAE0FBF2FB11D5D968C91928D87
:100150009F5F9F73928F90E008958FEF9FEF0895B8
:10016000FC01918D828D981731F0828DE80FF11D81
:10017000858D90E008958FEF9FEF0895FC01918D9C
:10018000228D892F90E0805C9F4F821B91098F7395
:1001900099270895FC01A48DA80FB92FB11DA35A6A
:1001A000BF4F2C91848D90E001968F739927848F97
:1001B000A689B7892C93A089B1898C9183708064BA
:1001C0008C93938D848D981306C00288F389E02D5B
:1001D00080818F7D80830895EF92FF920F931F930C
:1001E000CF93DF93EC0181E0888F9B8D8C8D9813EA
:1001F0001AC0E889F989808185FF15C09FB7F894F6
:10020000EE89FF896083E889F98980818370806441
:1002100080839FBF81E090E0DF91CF911F910F918C
:10022000FF90EF900895F62E0B8D10E00F5F1F4F9B
:100230000F731127E02E8C8D8E110CC00FB607FCAA
:10024000FACFE889F989808185FFF5CFCE010E9438
:10025000CA00F1CFEB8DEC0FFD2FF11DE35AFF4FDC
:10026000F0829FB7F8940B8FEA89FB8980818062C6
:10027000CFCFCF93DF93EC01888D8823B9F0AA8983
:10028000BB89E889F9898C9185FD03C0808186FD51
:100290000DC00FB607FCF7CF8C9185FFF2CF8081A0
:1002A00085FFEDCFCE010E94CA00E9CFDF91CF914B
:1002B0000895833081F028F4813099F08230A9F0DC
:1002C00008958730A9F08830C9F08430B1F4809166
:1002D00080008F7D03C0809180008F7780938000A5
:1002E000089584B58F7784BD089584B58F7DFBCF45
:1002F0008091B0008F778093B00008958091B00016
:100300008F7DF9CF1F93CF93DF93282F30E0F90132
:10031000E255FF4F8491F901E656FF4FD491F90160
:10032000EA57FF4FC491CC23A9F0162F81110E94E8
:100330005901EC2FF0E0EE0FFF1FE458FF4FA5919D
:10034000B4918FB7F894EC91111108C0D095DE23C9
:10035000DC938FBFDF91CF911F910895DE2BF8CFF3
:10036000CF93DF9390E0FC01E656FF4F24918A572C
:100370009F4FFC0184918823D1F090E0880F991F52
:10038000FC01EE58FF4FA591B491FC01E458FF4FDA
:10039000C591D49161110EC09FB7F8948C91E22F52
:1003A000E0958E238C932881E223E8839FBFDF9121
:1003B000CF9108958FB7F894EC91E22BEC938FBF17
:1003C000F6CF0895AF92BF92CF92DF92EF92FF9255
:1003D0000F931F93CF93DF936C017B018B01040F6D
:1003E000151FEB015E01AE18BF08C017D10759F009
:1003F0006991D601ED91FC910190F081E02DC6014B
:100400000995892B79F7C501DF91CF911F910F9144
:10041000FF90EF90DF90CF90BF90AF900895209124
:100420009901260F3327331F21323105ECF4209137
:10043000BD01FC0190E080E0243069F082E0089585
:10044000A09199012191AC0147585E4FA40FB52F9F
:10045000B11D2C930196861798F380919901680F2E
:100460006093990180E0089581E0089508958FEFE9
:100470009FEF08958FEF9FEF08958091720190E0B4
:100480009195819591090895CF93DF93CB01EA016E
:10049000642F0E940F02CE01DF91CF910895CF9378
:1004A000DF931F92CDB7DEB7698361E0CE0101967D
:1004B0000E940F0281E090E00F90DF91CF910895AC
:1004C00020917101211109C021E020937101309127
:1004D000890420918A043CBD2DBD60E0FC0184812B
:1004E0000C94820161E0FC0184810E948201809170
:1004F000710181111092710108958EBD00000DB43B
:1005000007FEFDCF8EB508958FEF0C947D020F93FB
:100510001F93CF93DF938C012FB7F8948091E8035A
:100520009091E903A091EA03B091EB032FBFEC0196
:100530000E9484028F3FB1F02FB7F8948091E803B6
:100540009091E903A091EA03B091EB032FBF8C1BBC
:100550009D0B8017910760F380E0DF91CF911F9191
:100560000F91089581E0F9CFCF92DF92EF92FF9241
:100570000F931F93CF93DF93EC01162F69017A013C
:100580008E81882389F08F8198859C012F5F3F4F52
:1005900038872F838230924018F40E948402F3CF70
:1005A000CE010E9472021E82CE010E9460028CE285
:1005B00091E00E948702812F80640E947D0208E101
:1005C00010E0D701C601002E04C0B695A7959795F7
:1005D00087950A94D2F70E947D0208501109083FBE
:1005E0008FEF180771F78FEF0E947D0210E00E94D5
:1005F00084028A8787FF04C01F3F11F01F5FF7CF77
:10060000DF91CF911F910F91FF90EF90DF90CF90EE
:100610000895AF92BF92CF92DF92EF92FF920F9325
:100620001F93CF93DF93EC016901C801820F931FE1
:100630008130924050F58E81882379F088819981AC
:10064000AA81BB8184179507A607B70731F48F816C
:100650009885C816D90608F054C0488359836A8320
:100660007B838B85833039F089E0440F551F661FEB
:10067000771F8A95D1F79A01AB0161E1CE010E9403
:10068000B402882389F083E08D83CE010E94720238
:1006900080E0DF91CF911F910F91FF90EF90DF905D
:1006A000CF90BF90AF9008952FB7F8948091E80352
:1006B0009091E903A091EA03B091EB032FBF5C0195
:1006C0000E9484028A878F3FB1F42FB7F8948091FB
:1006D000E8039091E903A091EA03B091EB032FBFE7
:1006E0008A199B098D32914058F38FE08D83CE019A
:1006F0000E947202CACF8E3F89F418861F8281E061
:100700008E838F8198858C159D0550F40E948402FC
:100710008F819885019698878F83F3CF8DE0E6CF00
:100720006701E00EF11E0E948402F60181936F01C1
:10073000EE15FF05C1F78F819885080F191F1887DF
:100740000F838985882319F001151240A0F08E814E
:10075000882389F08F8198859C012F5F3F4F3887D0
:100760002F838230924018F40E948402F3CFCE018E
:100770000E9472021E8281E08CCFCF92DF92EF92B4
:10078000FF920F93CF93DF93EC01690182E1411552
:1007900051056105710599F08B85833039F089E049
:1007A000440F551F661F771F8A95D1F79A01AB0139
:1007B00068E1CE010E94B402882319F084E08D83A1
:1007C0002DC08EEF0E947D0276018EEFD81AF701C0
:1007D00081917F010E947D02EC14FD04C1F78FEF2F
:1007E0000E947D028FEF0E947D020E9484028A8710
:1007F0008F71853071F4011116C0CE010E94720212
:1008000081E0DF91CF910F91FF90EF90DF90CF903B
:10081000089581E18D83CE010E947202CE010E9473
:10082000720280E0EECF88E592E00E94870281119B
:1008300002C085E1C4CF20E030E0A9016DE0CE0127
:100840000E94B402882311F084E1B9CF0E9484028F
:100850008111FACFD2CF0F9340916D0150916E016B
:1008600060916F017091700141155105610571052D
:1008700089F0082F28EE31E090E080E00E94BD036F
:10088000882349F010926D0110926E0110926F0151
:100890001092700181E00F9108950F93CF93C82FAC
:1008A00080916C01811105C0C1E08C2FCF910F9117
:1008B00008954091040150910501609106017091E5
:1008C00007010C2F28EE31E090E080E00E94BD038C
:1008D000811102C0C0E0E9CFCC2331F381E00E9456
:1008E0002B048823B9F310926C01DFCF8F929F9273
:1008F000AF92BF92EF92FF920F931F93CF934B0152
:100900005C01C42F8091040190910501A091060122
:10091000B091070188159905AA05BB0541F181E051
:100920000E944D0481110BC080E0CF911F910F9167
:10093000FF90EF90BF90AF909F908F90089588EEBA
:10094000E82E81E0F82E00E012E030E020E0B50172
:10095000A40190E080E00E940903882329F380929B
:10096000040190920501A0920601B0920701409106
:100970006C014C2B40936C0181E0D7CF4F925F927A
:100980006F927F928F929F92AF92BF92CF92DF929F
:10099000EF92FF920F931F93CF93DF93EC014230BE
:1009A00051056105710590F480E0DF91CF911F91B1
:1009B0000F91FF90EF90DF90CF90BF90AF909F90FE
:1009C0008F907F906F905F904F90089589859A8562
:1009D000AB85BC850196A11DB11D84179507A6079F
:1009E000B70710F3CB88DC88ED88FE888F898031CB
:1009F00009F042C0BB27A72F962F852F4801590128
:100A00002A013B01C80ED91EEA1EFB1E809104017B
:100A100090910501A0910601B0910701C816D90671
:100A2000EA06FB0699F58F898031C1F5B301A20171
:100A3000552766277727440F551F48515E4FFA0107
:100A40009182808280916C01816080936C018A899F
:100A5000823080F08D819E81AF81B8858C0D9D1D87
:100A6000AE1DBF1D80936D0190936E01A0936F0129
:100A7000B093700181E099CFDB01CA01E7E0B69540
:100A8000A79597958795EA95D1F7B8CF40E0C7012C
:100A9000B6010E9476048111C6CF86CFB301A201B0
:100AA0004F77552766277727440F551F440F551F4B
:100AB00048515E4FFA0180829182A282B382C2CFF6
:100AC0008F929F92AF92BF92CF92DF92EF92FF925E
:100AD0000F931F93CF93DF93FC0181859285A385AC
:100AE000B4850196A11DB11D84179507A607B70708
:100AF00070F480E0DF91CF911F910F91FF90EF9004
:100B0000DF90CF90BF90AF909F908F900895838893
:100B10009488A588B6888789803189F5BB27A72F57
:100B2000962F852FE9016A017B018F01BC01CD0160
:100B3000680D791D8A1D9B1D809004019090050110
:100B4000A0900601B090070186169706A806B90680
:100B500001F5F8018789803111F5DD24EE24FF24A9
:100B6000F601EE0FFF1FE851FE4F80819181B0E04A
:100B7000A0E088839983AA83BB8381E0BBCFDB019C
:100B8000CA01C7E0B695A79597958795CA95D1F7FD
:100B9000C9CF40E00E9476048111DBCFAACFE89450
:100BA000C7F8DD24EE24FF24F601EE0FFF1FEE0F41
:100BB000FF1FE851FE4F80819181A281B381BF70F8
:100BC000D8CF2F923F924F925F926F927F928F92E7
:100BD0009F92AF92BF92CF92DF92EF92FF920F93CC
:100BE0001F93CF93DF93EC014B018D81811115C0D1
:100BF0008FEF9FEFDF91CF911F910F91FF90EF90BB
:100C0000DF90CF90BF90AF909F908F907F906F902C
:100C10005F904F903F902F9008958C8180FFE8CF98
:100C20004B895C896D897E898A859B85AC85BD856C
:100C3000412C481759076A077B0711F04424439455
:100C4000512C52011E0126E0220E311CA114B104C8
:100C500009F4B1C04A855B856C857D856A0181E0B8
:100C6000D8228B8D9C8D8A019B01E9E036952795D2
:100C700017950795EA95D1F7ED81E230E1F5FC0192
:100C8000628D738D848D958D600F711F821F931FF0
:100C9000612C22E0722E6C187D08A614B70408F4AB
:100CA00035012C8126FD04C06114F2E07F0671F449
:100CB0000091040110910501209106013091070176
:100CC000061717072807390709F053C040E00E94AC
:100CD0007604882309F48CCFC60188519E4FD40135
:100CE0009C01260D371DFC012E173F0709F45EC03D
:100CF00041914D93F9CFFC0174807A947022C11414
:100D0000D10471F471100CC0452B462B472B39F5DB
:100D10008F89988DA98DBA8D8E839F83A887B98777
:100D2000EB8DFC8D6E817F8188859985625071097C
:100D300081099109258504C0660F771F881F991FB7
:100D40002A95D2F70685178520893189600F711F92
:100D5000821F931F670D711D811D911D99CF4E81BB
:100D60005F816885798591010E9460058111D8CFE6
:100D70003FCF740183019601AB01BC0190E080E09C
:100D80000E940903882309F433CF860C971C8A85B7
:100D90009B85AC85BD85860D971DA11DB11D8A87DC
:100DA0009B87AC87BD87A618B70850CF281B390B87
:100DB000820E931EECCFC2011DCF1F93CF93DF9302
:100DC000FC0125812223D1F1162FEC01848187FFBC
:100DD0002AC0668577858089918941E00E947604E2
:100DE000882361F1EA8980E2E89FF0011124E8514B
:100DF000FE4F309719F18D81823040F48B899C89A8
:100E0000AD89BE89848F958FA68FB78F8F89988D76
:100E1000938F828F8F89988DA98DBA8DB58BA48B76
:100E20008C818F778C83111103C08C818F7E8C8392
:100E3000812FDF91CF911F910C944D0480E0DF91C1
:100E4000CF911F9108958F929F92AF92BF92CF92B0
:100E5000DF92EF92FF920F931F93CF93DF93EC01FA
:100E60008D8181110EC080E0DF91CF911F910F9194
:100E7000FF90EF90DF90CF90BF90AF909F908F90BA
:100E800008950B891C892D893E89041715072607AB
:100E9000370748F34A015B01823031F48A869B862A
:100EA000AC86BD8681E0E0CF81149104A104B10439
:100EB00049F41E821F82188619861A861B861C8694
:100EC0001D86F0CF0A851B852C853D85EB8DFC8D1D
:100ED000858590E00996B901A80141505109610941
:100EE0007109082E04C076956795579547950A9421
:100EF000D2F775016401E1E0CE1AD108E108F108EA
:100F000004C0F694E794D794C7948A95D2F7C41690
:100F1000D506E606F70620F0012B022B032B11F570
:100F20008F89988DA98DBA8D8E839F83A887B98765
:100F30008E010A5F1F4FC114D104E104F10409F4CA
:100F4000ADCF4E815F816885798598018B8D9C8DB1
:100F50000E94600591E0C91AD108E108F1088111E9
:100F6000EACF81CFC41AD50AE60AF70AE1CF1F9368
:100F7000CF93DF93EC018D81813031F090E080E000
:100F8000DF91CF911F9108958C8181FFF7CF82FD72
:100F900018C090E080E00E9460020E948402182F36
:100FA00090E080E00E9472021F3F41F78C8185FF34
:100FB0001BC060E0CE010E94DD068C818F7D8C839A
:100FC000DDCF4B895C896D897E898A859B85AC855F
:100FD000BD8584179507A607B707D9F2CE010E94F1
:100FE00023078111D6CFCACF40916D0150916E0178
:100FF00060916F0170917001452B462B472B21F0BA
:1010000080E00E942B04BACF80618C832A853B85C7
:10101000317080E092E0821B930BB2CF3F924F92EF
:101020005F926F927F928F929F92AF92BF92CF9278
:10103000DF92EF92FF920F931F93CF93DF93CDB781
:10104000DEB72C970FB6F894DEBF0FBECDBF5C01A4
:10105000DC015B968D909C905C9716964D905D9010
:101060006D907C901997411451046104710409F446
:1010700068C0BFEF4B1A5B0A6B0A7B0A312CF40184
:1010800081859285A385B4859C01AD012F5F3F4F7B
:101090004F4F5F4F29873A874B875C877301620107
:1010A0001D821E821F821886F40181859285A38588
:1010B000B4852D813E814F815885281739074A070D
:1010C0005B0708F056C089859A85AB85BC858C1571
:1010D0009D05AE05BF0550F482E0C82ED12CE12C51
:1010E000F12C92E0492E512C612C712C9E012F5F26
:1010F0003F4FB701A601C4010E9460058823C9F1D2
:1011000089819A81AB81BC81892B8A2B8B2B09F138
:10111000260137019FEF491A590A690A790A2D8178
:101120003E814F8158852F5F3F4F4F4F5F4F2D833B
:101130003E834F8358873FEFC31AD30AE30AF30A6B
:10114000B3CFF401408051806280738033243394A4
:1011500096CFC414D504E604F70409F70FEF1FEF88
:101160002FEF3FE0B701A601C4010E94BE04811128
:1011700019C080E02C960FB6F894DEBF0FBECDBF2D
:10118000DF91CF911F910F91FF90EF90DF90CF9063
:10119000BF90AF909F908F907F906F905F904F9097
:1011A0003F900895D50116964D915D916D917C917A
:1011B0001997411551056105710539F097018601AF
:1011C000C4010E94BE048823A1F2D5011696CD92D7
:1011D000DD92ED92FC921997332051F0D701C601B0
:1011E0000196A11DB11DF40180839183A283B38375
:1011F000F5018789908DA18DB28D892B8A2B8B2B40
:1012000039F48481C78AD08EE18EF28E806884831F
:10121000F50184818062848381E0ACCF2F923F927C
:101220004F925F926F927F928F929F92AF92BF92F6
:10123000CF92DF92EF92FF920F931F93CF93DF93A2
:1012400000D000D01F92CDB7DEB77C015B01342EF9
:101250005D83DC0115968C911597813009F0CCC027
:1012600014962C9021FEC8C022FCB2C0C32CDD8095
:1012700022947FE027222094B22DB1702B2ED7012B
:101280001A964D915D916D917C911D97C114D10479
:1012900009F426C15B968D919C915C97FC0174804A
:1012A0007A948A019B0169E03695279517950795F1
:1012B0006A95D1F770228A011170711020C0011552
:1012C0001105E9F416964D915D916D917C911997F8
:1012D000411551056105710509F097C057968D912B
:1012E0009D910D90BC91A02D0097A105B10509F02D
:1012F000AEC0C7010E940E08882309F47DC080E0BB
:1013000092E0801B910B46018C159D0508F44C0161
:10131000D7015B964D915C915C9716968D919D914E
:101320000D90BC91A02D0297A109B109FA01258564
:1013300004C0880F991FAA1FBB1F2A95D2F74685A4
:10134000578560897189840F951FA61FB71F9C015F
:10135000AD01270D311D411D511D29013A01811497
:1013600032E0930609F079C0809104019091050163
:10137000A0910601B091070184159505A605B70552
:1013800059F48FEF9FEFDC018093040190930501E6
:10139000A0930601B0930701022D9501B301A201AC
:1013A00090E080E00E94BD03882331F19EEFB91ADE
:1013B000C818D908F70182859385A485B585880D5D
:1013C000991DA11DB11D82879387A487B58757CF2B
:1013D000F701438954896589768982859385A48537
:1013E000B585481759076A077B0709F43FCFC7013E
:1013F0000E94230781113ACF81E090E0D701139634
:101400009C938E93129780E007C09E012F5F3F4F01
:101410000E946005811102C090E079C089819A81A3
:10142000AB81BC81F701238D348DF901278948EF09
:101430005FEF60E070E0203121F048EF5FEF6FEF89
:101440007FE084179507A607B70708F052CFF7018A
:1014500086839783A087B18752CF0115110599F52F
:10146000D7011A964D915D916D917C911D97539680
:101470008D919D910D90BC91A02D481759076A0739
:101480007B0708F181E00E944D04882309F4B4CF62
:10149000409204015092050160920601709207018A
:1014A00080916C01816080936C01C80188519E4FCE
:1014B000D5019C01280D391DFC012E173F0759F05D
:1014C0004D914193FACF41E0C301B2010E947604ED
:1014D0008111EBCF91CF281B390BA20EB31E68CF21
:1014E000F70183899489A589B68984179507A6078A
:1014F000B70738F48481438B548B658B768B806877
:101500008483F701848183FD1AC0832D9D810F9010
:101510000F900F900F900F90DF91CF911F910F912F
:10152000FF90EF90DF90CF90BF90AF909F908F9003
:101530007F906F905F904F903F902F90089561E063
:10154000C7010E94DD06882309F456CFDECFCF9372
:10155000DF931F92CDB7DEB7698341E050E0BE0153
:101560006F5F7F4F0E940E090F90DF91CF9108951A
:10157000FC01818D928D009719F061E00C94DD06DD
:101580000895DC015996ED91FC913097B9F083896B
:101590009489A589B6894285538564857585841BA0
:1015A000950BA60BB70B811520E89207A105B10595
:1015B00038F08FEF9FE7A0E0B0E0089590E080E082
:1015C0000895CF93DF931F92CDB7DEB7FC01818DD5
:1015D000928D009769F0BE016F5F7F4F0E94E10519
:1015E000019731F4898190E00F90DF91CF910895B8
:1015F0008FEF9FEFF9CFEF92FF920F931F93CF934F
:10160000DF931F92CDB7DEB7FC01818D928D10E084
:1016100000E00097D1F07F01BE016F5F7F4F0E9415
:10162000E1050FEF1FEF019781F4098110E0F70149
:10163000818D928DFC01428553856485758541506D
:101640005109610971090E942307C8010F90DF91B8
:10165000CF911F910F91FF90EF900895DC01599663
:101660008D919C91009739F0DC01ED91FC91048003
:10167000F581E02D099490E080E00895CF93DF9309
:10168000EC01E98DFA8D309749F481E090E09B837D
:101690008A8390E080E0DF91CF91089513821282D7
:1016A000898D9A8D0E940E09E98DFA8D22813381F0
:1016B000232B59F7F0CFCF93DF931F92CDB7DEB72F
:1016C0006983DC01ED91FC910280F381E02D41E022
:1016D00050E0BE016F5F7F4F09950F90DF91CF9172
:1016E0000895089590E080E00895CF93DF93EC0192
:1016F00060E08E810E94820161E08E810E94820101
:1017000060E08E810E9482018BE891E00197F1F701
:10171000DF91CF910895CF92DF92EF92FF920F93D6
:101720001F93CF93DF936C017C0187E0E80EF11CDF
:10173000D0E0C0E0062F10E0B8010C2E02C0759575
:1017400067950A94E2F76170F70181917F010E9429
:1017500082012196C430D10579F7C601DF91CF917E
:101760001F910F91FF90EF90DF90CF900C94750B2D
:10177000CF92DF92EF92FF920F931F93CF93DF935D
:10178000EC01F62E642F8C810E9482018D818F3FA7
:1017900019F060E00E9482010F2D10E08F8584FF18
:1017A00025C06E0187E0C80ED11CF12CE12CB801D8
:1017B0000E2C02C0759567950A94E2F76170F601E8
:1017C00081916F010E948201FFEFEF1AFF0A88E00A
:1017D000E816F10461F7CE01DF91CF911F910F91CF
:1017E000FF90EF90DF90CF900C94750BB80184E0E0
:1017F000759567958A95E1F7CE010E948B0B6F2D49
:10180000CE01DF91CF911F910F91FF90EF90DF906C
:10181000CF900C948B0B41E00E94B80B81E090E0DC
:101820000895FC0101900020E9F73197AF01481BB2
:10183000590BBC018CEE93E00C94E2018F929F92C5
:10184000AF92BF920F931F93CF93DF93CDB7DEB7C5
:10185000A1970FB6F894DEBF0FBECDBF19A24230DC
:1018600008F44AE08E010F5D1F4F842E912CB12C9D
:10187000A12CA50194010E94A311E62FB901CA0170
:10188000EA30F4F4E05DD801EE938D01232B242B94
:10189000252B79F790E080E0109719F0CD010E9498
:1018A000110CA1960FB6F894DEBF0FBECDBFDF912D
:1018B000CF911F910F91BF90AF909F908F900895FF
:1018C000E95CE1CFCF93DF938AE491E00E94110CB1
:1018D00084E591E00E94110CE1EBF0E08491EDE9E8
:1018E000F0E0D491E9E8F0E0C491CC2391F18111CA
:1018F0000E945901EC2FF0E0EE0FFF1FE859FF4F57
:10190000A591B491EC91ED2391E080E009F490E091
:10191000C92FD82FBE010D2E000C880B990B4AE061
:101920000E941E0C84E591E00E94110CCD2B71F0F9
:1019300087E591E00E94110C84E591E00E94110C72
:1019400081E090E090936B0180936A01DF91CF91E9
:101950000895D0E0C0E0DECF1F93CF93DF9385EDF5
:101960008093BC008091750190917601A0917701E0
:10197000B09178010796A11DB11D23E0B695A795FA
:10198000979587952A95D1F72091BC0024FD03C037
:101990001092BD0152C04091750150917601609145
:1019A000770170917801452B462B472B69F30097FF
:1019B000A105B10541F025E32A95F1F70000019753
:1019C000A109B109E1CF80917401C1E0C093730115
:1019D000882399F1D091B8001091BA008091BC0091
:1019E0008A7B8093BC0060E082E10E94820160E01B
:1019F00083E10E9482011092BD01C093BF01109249
:101A0000BE0161E082E10E94820161E083E10E9407
:101A100082018091B9008E7F8093B9008091B900D6
:101A20008D7F8093B90088E48093B80085E480932B
:101A3000BC001093BA00D093B800DF91CF911F91F2
:101A400008951F920F920FB60F9211242F933F9378
:101A50008F939F93AF93BF938091E8039091E90395
:101A6000A091EA03B091EB033091E70123E0230F4B
:101A70002D3758F50196A11DB11D2093E7018093E4
:101A8000E8039093E903A093EA03B093EB038091FA
:101A9000E3019091E401A091E501B091E601019686
:101AA000A11DB11D8093E3019093E401A093E50192
:101AB000B093E601BF91AF919F918F913F912F918C
:101AC0000F900FBE0F901F90189526E8230F0296D7
:101AD000A11DB11DD2CF1F920F920FB60F921124EC
:101AE0002F933F934F935F936F937F938F939F9326
:101AF000AF93BF93EF93FF93E0910201F091030145
:101B00000995FF91EF91BF91AF919F918F917F9137
:101B10006F915F914F913F912F910F900FBE0F905A
:101B20001F9018951F920F920FB60F9211242F93AA
:101B30003F934F935F936F937F938F939F93AF9355
:101B4000BF93EF93FF93E0910001F091010109959C
:101B5000FF91EF91BF91AF919F918F917F916F9185
:101B60005F914F913F912F910F900FBE0F901F905B
:101B700018951F920F920FB60F9211242F933F9337
:101B80004F935F936F937F938F939F93AF93BF9385
:101B9000EF93FF938CEE93E00E94CA00FF91EF91C8
:101BA000BF91AF919F918F917F916F915F914F9175
:101BB0003F912F910F900FBE0F901F9018951F927D
:101BC0000F920FB60F9211242F938F939F93EF9341
:101BD000FF93E091FC03F091FD038081E09102040A
:101BE000F091030482FD1BC09081809105048F5FFA
:101BF0008F7320910604821741F0E0910504F0E014
:101C0000E451FC4F958F80930504FF91EF919F91D4
:101C10008F912F910F900FBE0F901F90189580817C
:101C2000F4CF1F920F920FB60F9211242F933F9370
:101C30004F935F936F937F938F939F93AF93BF93D4
:101C4000EF93FF938091B900887F803609F44AC0F2
:101C5000F0F5883209F4A5C018F5803109F499C06F
:101C6000B8F4882309F4F5C0883009F492C0FF91D4
:101C7000EF91BF91AF919F918F917F916F915F9104
:101C80004F913F912F910F900FBE0F901F9018957D
:101C9000883109F486C0803251F78093BC0114C0AA
:101CA000803409F49BC040F48033B9F38833F9F6EB
:101CB0008093BC0185ECAEC0803509F483C08835C3
:101CC00009F494C0883499F60E94AC0CD0CF8839BE
:101CD00009F48AC038F5883729F050F4883611F0B5
:101CE000803729F683E08093BD011092BB0155C077
:101CF000883809F479C0803919F0803809F0B7CFF5
:101D00008091BB01803208F06FC0E091BB0181E09F
:101D10008E0F8093BB018091BB00F0E0E556FE4F33
:101D200080833BC0803B39F0D0F4803A09F477C01F
:101D3000883A09F09CCF84E08093BD0110929A010B
:101D400010929901F0E0E0E00995809199018111EC
:101D50000FC081E0809399011092790109C0803C05
:101D600009F4A8CF883C09F4A5CF883B09F07FCFC0
:101D7000E0919A0181E08E0F80939A01F0E0E7589C
:101D8000FE4F80818093BB0090919A0180919901D0
:101D900029C08091E2018093BB0085EC8093BC0058
:101DA00066CF9091E1018091E001981758F5E0919C
:101DB000E10181E08E0F8093E101F0E0E054FE4FFD
:101DC0008081E9CFE091E10181E08E0F8093E10114
:101DD0008091BB00F0E0E054FE4F80839091E101E0
:101DE0008091E0019817C8F285E8D8CFE091E10131
:101DF00081E08E0F8093E1018091BB00F0E0E05420
:101E0000FE4F80838091BF0181115ECF81E080937E
:101E1000BE0184EA8093BC001092BD0128CF85ECFE
:101E20008093BC001092BD018091BB01803230F4E0
:101E3000E091BB01F0E0E556FE4F10826091BB01DE
:101E400070E08BE991E0F0E0E0E009951092BB01D1
:101E50000ECF1092BC0138CF0F931F93CF93DF9317
:101E60001092EF031092EE0388EE93E0A0E0B0E052
:101E70008093F0039093F103A093F203B093F303E4
:101E800082E191E09093ED038093EC0385EC90E088
:101E90009093F9038093F80384EC90E09093FB0314
:101EA0008093FA0380EC90E09093FD038093FC0311
:101EB00081EC90E09093FF038093FE0382EC90E02E
:101EC000909301048093000486EC90E090930304C7
:101ED00080930204109205041092060410920704E5
:101EE00010920804C0E5C093890410928A041092ED
:101EF000900410929104109294041092960482E03F
:101F000090E0A0E0B0E08093970490939804A093B1
:101F10009904B0939A041092AE041092B8041092EF
:101F2000B70484E291E09093B6048093B5041092D4
:101F3000BA0484E190E00E94CB119093E204809374
:101F4000E104092E000CAA0BBB0B8093E3049093D1
:101F5000E404A093E504B093E6040AE010E01093D3
:101F6000EC040093EB041092EA041092E90410923E
:101F7000E8041092E7041092ED0484E190E00E94DE
:101F8000CB119093D5048093D404092E000CAA0B96
:101F9000BB0B8093D6049093D704A093D804B0933E
:101FA000D9041093DF040093DE041092DD04109234
:101FB000DC041092DB041092DA041092E004109218
:101FC0000C0510920B0582E491E090930A05809332
:101FD000090584E080930D058FEF80930E0585E061
:101FE00080930F0586E08093100587E080931105AC
:101FF00088E08093120589E0809313051092140500
:1020000010921505109216051092170510921805DA
:1020100081E080931C0510921D0580E480931E05CD
:1020200080E180931F05C093200561E084E00E9459
:10203000B00180910E058F3F19F061E00E94B00160
:1020400061E080910F050E94B001C9E0D5E09E01DA
:10205000295035408091180584FD0BC084E090E044
:1020600021962817390744F461E08E810E94B0015F
:10207000EECF88E090E0F4CF8BE39DE00197F1F79D
:1020800060E080910D050E94820160E080910F0563
:102090000E94820180910E058F3F19F060E00E943E
:1020A00082016091180564FD64C063E089E095E0F9
:1020B0000E948B0BCBE4D6E4CE010197F1F763E0ED
:1020C00089E095E00E948B0B2197F1F763E089E0AE
:1020D00095E00E948B0B83E592E00197F1F762E0B7
:1020E00089E095E00E948B0B60911805606240E0EA
:1020F00089E095E00E94B80B84E08093190540E0E8
:102100006CE089E095E00E94B80B40E061E089E076
:1021100095E00E94B80B8BE39FE10197F1F782E015
:1021200080931A0540E066E089E095E00E94B80BD4
:102130001092F1041092F00488EE93E0A0E0B0E079
:102140008093F2049093F304A093F404B093F50405
:1021500080E391E09093EF048093EE0410920805E1
:10216000109207051092FA04DF91CF911F910F9101
:102170000895606240E089E095E00E94B80B8BE42E
:1021800096E40197F1F760911805606240E089E0FC
:1021900095E00E94B80B83E592E00197F1F760911A
:1021A0001805606240E089E095E00E94B80B9CCF82
:1021B000789484B5826084BD84B5816084BD85B522
:1021C000826085BD85B5816085BD80916E0081602E
:1021D00080936E00109281008091810082608093D4
:1021E00081008091810081608093810080918000D6
:1021F0008160809380008091B10084608093B10001
:102200008091B00081608093B00080917A008460FA
:1022100080937A0080917A00826080937A00809126
:102220007A00816080937A0080917A008068809340
:102230007A001092C10061E08DE00E94B00160E080
:1022400083E00E94B00182E69CE0909303018093BA
:10225000020180916900837F846080936900E99A1C
:10226000E091FC03F091FD0382E08083E091F803AC
:10227000F091F9031082E091FA03F091FB038FECE7
:10228000808310920404E0910004F091010486E040
:102290008083E091FE03F091FF0380818061808361
:1022A000E091FE03F091FF03808188608083E091DC
:1022B000FE03F091FF03808180688083E091FE033C
:1022C000F091FF0380818F7D8083C1E4C0937C0007
:1022D00080917A00806480937A0080917A0086FDF4
:1022E000FCCF9091780080917900892798278927E1
:1022F0006C01092E000CEE08FF0897FF14C06DE278
:102300008CEE93E00E94EC0066277727CB016C19D6
:102310007D098E099F094AE00E941E0C84E591E028
:102320000E94110CD3CF4AE0C701B601F5CF8091CE
:10233000D4049091D5040E9467128091E104909199
:10234000E2040C946712A1E21A2EAA1BBB1BFD012A
:102350000DC0AA1FBB1FEE1FFF1FA217B307E40784
:10236000F50720F0A21BB30BE40BF50B661F771FDC
:10237000881F991F1A9469F76095709580959095BC
:102380009B01AC01BD01CF010895EE0FFF1F059029
:10239000F491E02D09940F931F93CF93DF93823034
:1023A000910510F482E090E0E0912305F09124057E
:1023B00030E020E0B0E0A0E0309799F4211531053D
:1023C00009F44AC0281B390B24303105D8F58A811D
:1023D0009B816115710589F1FB0193838283FE0165
:1023E00011C0408151810281138148175907E0F0E3
:1023F0004817590799F4109761F012960C931297A9
:1024000013961C933296CF01DF91CF911F910F91BC
:1024100008950093230510932405F4CF2115310569
:1024200051F04217530738F0A901DB019A01BD01B1
:10243000DF01F801C1CFEF01F9CF9093240580931C
:102440002305CDCFFE01E20FF31F8193919322501C
:10245000310939832883D7CF209121053091220576
:10246000232B41F420910A0130910B013093220576
:102470002093210520910801309109012115310592
:1024800041F42DB73EB740910C0150910D01241B32
:10249000350BE0912105F0912205E217F307A0F436
:1024A0002E1B3F0B2817390778F0AC014E5F5F4FAA
:1024B0002417350748F04E0F5F1F509322054093B5
:1024C0002105819391939FCFF0E0E0E09CCFCF93E3
:1024D000DF930097E9F0FC01329713821282A091FA
:1024E0002305B0912405ED0130E020E01097A1F420
:1024F00020813181820F931F209121053091220587
:102500002817390709F061C0F0932205E0932105EF
:10251000DF91CF910895EA01CE17DF07E8F54A81F0
:102520005B819E0141155105B1F7E901FB83EA8307
:1025300049915991C40FD51FEC17FD0761F48081B3
:1025400091810296840F951FE90199838883828186
:1025500093819B838A83F0E0E0E012968D919C91B9
:1025600013970097B9F52D913C911197CD010296E3
:10257000820F931F209121053091220528173907DA
:1025800039F6309751F51092240510922305B09337
:102590002205A0932105BCCFD383C2834081518102
:1025A000840F951FC817D90761F44E5F5F4F88816C
:1025B0009981480F591F518340838A819B8193835E
:1025C00082832115310509F0B0CFF0932405E09303
:1025D00023059ECFFD01DC01C0CF13821282D7CF2D
:1025E00010E0C2E6D0E004C0FE010E94C5112196B1
:0A25F000C336D107C9F7F894FFCFF6
:1025FA00E101E101FFFFFFFF000025058000000067
:10260A000000EC00E2018D003901BE009C00B00020
:10261A0000000000A70AE201B707710B00000000E2
:10262A005B0B3E0B2E0BB80AC10AE10AFB0A00003B
:10263A0000000B0CE201720B710B496E7465727229
:10264A00757074000D0A0073657474696E6720747E
:0A265A006F20747970696E6700004C
:00000001FF
