:100000000C946A000C943C150C9415150C949200F9
:100010000C9492000C9492000C9492000C94920018
:100020000C9492000C9492000C9492000C94920008
:100030000C9492000C9492000C9492000C949200F8
:100040000C94CB140C9492000C9489150C946315A9
:100050000C9492000C9492000C9492000C949200D8
:100060000C94BB150C9492000000000023002600A5
:1000700029007C3C3E5E2B3D3F2F5B5D3B2C2A22C2
:100080005C0000000000240027002A00000000009F
:10009000250028002B0004040404040404040202C4
:1000A00002020202030303030303010204081020F7
:1000B0004080010204081020010204081020000002
:1000C0000008000201000003040700000000000017
:1000D0000000D61611241FBECFEFD8E0DEBFCDBF83
:1000E00012E0A0E0B1E0E2E2F7E302C005900D9279
:1000F000A231B107D9F725E0A2E1B2E001C01D921B
:10010000AF3CB207E1F710E0CAE6D0E004C02197A7
:10011000FE010E94391AC936D107C9F70E94551746
:100120000C948F1B0C940000FC01538D448D252FE3
:1001300030E0842F90E0821B930B541710F0CF9681
:10014000089501970895FC01918D828D981761F0B3
:10015000A28DAE0FBF2FB11D5D968C91928D9F5FCA
:100160009F73928F90E008958FEF9FEF0895FC01A9
:10017000918D828D981731F0828DE80FF11D858D5C
:1001800090E008958FEF9FEF0895FC01918D228DEF
:10019000892F90E0805C9F4F821B91098F73992774
:1001A0000895FC01A48DA80FB92FB11DA35ABF4F0C
:1001B0002C91848D90E001968F739927848FA68966
:1001C000B7892C93A089B1898C91837080648C93BA
:1001D000938D848D981306C00288F389E02D808169
:1001E0008F7D80830895EF92FF920F931F93CF939B
:1001F000DF93EC0181E0888F9B8D8C8D98131AC062
:10020000E889F989808185FF15C09FB7F894EE8948
:10021000FF896083E889F9898081837080648083A5
:100220009FBF81E090E0DF91CF911F910F91FF90F0
:10023000EF900895F62E0B8D10E00F5F1F4F0F7398
:100240001127E02E8C8D8E110CC00FB607FCFACF53
:10025000E889F989808185FFF5CFCE010E94D10020
:10026000F1CFEB8DEC0FFD2FF11DE35AFF4FF08224
:100270009FB7F8940B8FEA89FB8980818062CFCF8A
:10028000CF93DF93EC01888D8823B9F0AA89BB89CD
:10029000E889F9898C9185FD03C0808186FD0DC0B8
:1002A0000FB607FCF7CF8C9185FFF2CF808185FFD9
:1002B000EDCFCE010E94D100E9CFDF91CF9108951B
:1002C0003FB7F8948091AA029091AB02A091AC0242
:1002D000B091AD0226B5A89B05C02F3F19F001963D
:1002E000A11DB11D3FBFBA2FA92F982F8827BC0190
:1002F000CD01620F711D811D911D42E0660F771FB8
:10030000881F991F4A95D1F708958F929F92AF92B7
:10031000BF92CF92DF92EF92FF924B015C010E945D
:1003200060016B017C010E9460016C197D098E09DE
:100330009F09683E734081059105A8F321E0821A68
:100340009108A108B10888EEC80E83E0D81EE11C10
:10035000F11C81149104A104B10429F7FF90EF90DE
:10036000DF90CF90BF90AF909F908F9008952FB760
:10037000F8946091A6027091A7028091A8029091D2
:10038000A9022FBF0895833081F028F4813099F0BD
:100390008230A9F008958730A9F08830C9F0843000
:1003A000B1F4809180008F7D03C0809180008F77B1
:1003B00080938000089584B58F7784BD089584B5B7
:1003C0008F7DFBCF8091B0008F778093B000089530
:1003D0008091B0008F7DF9CF1F93CF93DF93282FAB
:1003E00030E0F901E254FF4F8491F901E655FF4FE7
:1003F000D491F901EA56FF4FC491CC23A9F0162FEE
:1004000081110E94C301EC2FF0E0EE0FFF1FE457B3
:10041000FF4FA591B4918FB7F894EC91111108C0DA
:10042000D095DE23DC938FBFDF91CF911F9108958C
:10043000DE2BF8CFCF93DF9390E0FC01E655FF4F22
:1004400024918A569F4FFC0184918823D1F090E03B
:10045000880F991FFC01EE57FF4FA591B491FC0145
:10046000E457FF4FC591D49161110EC09FB7F89426
:100470008C91E22FE0958E238C932881E223E883F0
:100480009FBFDF91CF9108958FB7F894EC91E22B45
:10049000EC938FBFF6CF0895AF92BF92CF92DF92C9
:1004A000EF92FF920F931F93CF93DF936C017B0129
:1004B0008B01040F151FEB015E01AE18BF08C017BA
:1004C000D10759F06991D601ED91FC910190F0812D
:1004D000E02DC6010995892B79F7C501DF91CF91F0
:1004E0001F910F91FF90EF90DF90CF90BF90AF9052
:1004F00008958E50806480937C0080917A0080649F
:1005000080937A0080917A0086FDFCCF80917800FC
:1005100090917900089520915B02260F3327331FB5
:1005200021323105ECF420917F02FC0190E080E063
:10053000243069F082E00895A0915B022191AC0122
:10054000455C5D4FA40FB52FB11D2C930196861706
:1005500098F380915B02680F60935B0280E00895DE
:1005600081E0089508958FEF9FEF08958FEF9FEF3B
:1005700008958091340290E09195819591090895B4
:10058000CF93DF93CB01EA01642F0E948B02CE014F
:10059000DF91CF910895CF93DF931F92CDB7DEB750
:1005A000698361E0CE0101960E948B0281E090E0B8
:1005B0000F90DF91CF9108958FB7F8948091330217
:1005C0008FBF089561E0FC0184810E94EC0180915D
:1005D000320281111092320208958EBD00000DB4D6
:1005E00007FEFDCF8EB508958FEF0C94ED020F93AB
:1005F0001F93CF93DF93EC010E94B7018B010E9400
:10060000F4028F3F69F00E94B701601B710B6C17F9
:100610007D07A8F380E0DF91CF911F910F9108959E
:1006200081E0F9CF8CBD9DBD0895CF93DF93EC01A0
:1006300080913202811109C081E080933202809161
:100640004D0590914E050E94120360E08C81DF9170
:10065000CF910C94EC018F929F92AF92BF92FF9238
:100660000F931F93CF93DF93EC01F62E49015A01AC
:100670008E81882389F08F8198859C012F5F3F4F61
:1006800038872F838230924018F40E94F402F3CF0F
:10069000CE010E94E2021E82CE010E9415038CE26E
:1006A00091E00E94F7028F2D80640E94ED0208E124
:1006B00010E0D501C401002E04C0B695A79597950A
:1006C00087950A94D2F70E94ED0208501109083F5D
:1006D0008FEF180771F785E9FF2021F028E087E800
:1006E000F2128FEF0E94ED0210E00E94F4028A875E
:1006F00087FF04C01F3F11F01F5FF7CFDF91CF913D
:100700001F910F91FF90BF90AF909F908F90089591
:10071000AF92BF92CF92DF92EF92FF920F931F930F
:10072000CF93DF93EC016901C801820F931F8130E1
:10073000924050F58E81882379F088819981AA8131
:10074000BB8184179507A607B70731F48F81988579
:10075000C816D90608F042C0488359836A837B8350
:100760008B85833039F089E0440F551F661F771F52
:100770008A95D1F79A01AB0161E1CE010E942B036A
:10078000882389F083E08D83CE010E94E20280E01D
:10079000DF91CF911F910F91FF90EF90DF90CF905D
:1007A000BF90AF9008950E94B7015B010E94F402D0
:1007B0008A878F3F69F40E94B7016A197B096D32FD
:1007C0007140A0F38FE08D83CE010E94E202DCCF66
:1007D0008E3F89F418861F8281E08E838F819885F1
:1007E0008C159D0550F40E94F4028F819885019626
:1007F00098878F83F3CF8DE0E6CF6701E00EF11E7F
:100800000E94F402F60181936F01EE15FF05C1F716
:100810008F819885080F191F18870F838985882372
:1008200019F001151240A0F08E81882389F08F8184
:1008300098859C012F5F3F4F38872F8382309240ED
:1008400018F40E94F402F3CFCE010E94E2021E824D
:1008500081E09ECFCF92DF92EF92FF920F93CF93E2
:10086000DF93EC01690182E14115510561057105D4
:1008700099F08B85833039F089E0440F551F661F4E
:10088000771F8A95D1F79A01AB0168E1CE010E94EA
:100890002B03882319F084E08D832DC08EEF0E94F6
:1008A000ED0276018EEFD81AF70181917F010E9447
:1008B000ED02EC14FD04C1F78FEF0E94ED028FEF03
:1008C0000E94ED020E94F4028A878F71853071F4D4
:1008D000011116C0CE010E94E20281E0DF91CF91AA
:1008E0000F91FF90EF90DF90CF90089581E18D837D
:1008F000CE010E94E202CE010E94E20280E0EECF31
:1009000088E592E00E94F702811102C085E1C4CF20
:1009100020E030E0A9016DE0CE010E942B03882386
:1009200011F084E1B9CF0E94F4028111FACFD2CF45
:100930000F9340912E0250912F02609130027091DE
:100940003102411551056105710599F0082F2EEA14
:1009500032E08091AE049091AF040E942A04882373
:1009600049F010922E0210922F0210923002109233
:10097000310281E00F9108950F93CF93C82F80919A
:100980002D02811105C0C1E08C2FCF910F910895E8
:10099000409108015091090160910A0170910B0189
:1009A0000C2F2EEA32E08091AE049091AF040E94A9
:1009B0002A04811102C0C0E0E7CFCC2321F381E0FB
:1009C0000E9498048823B9F310922D02DDCF8F92F4
:1009D0009F92AF92BF92EF92FF920F931F93CF938C
:1009E0004B015C01C42F8091080190910901A091F5
:1009F0000A01B0910B0188159905AA05BB0551F1B3
:100A000081E00E94BC0481110BC080E0CF911F9156
:100A10000F91FF90EF90BF90AF909F908F900895AF
:100A20008EEAE82E82E0F82E00E012E030E020E0CE
:100A3000B501A4018091AE049091AF040E94880397
:100A4000882319F38092080190920901A0920A016B
:100A5000B0920B0140912D024C2B40932D0281E06E
:100A6000D5CF8F929F92AF92BF92CF92DF92EF92AB
:100A7000FF92CF932FE435E03093AF042093AE0480
:100A8000882309F46DC040E060E070E0CB010E9473
:100A9000E70481110BC080E0CF91FF90EF90DF90D1
:100AA000CF90BF90AF909F908F90089580916C04ED
:100AB0008F7789F78091780490917904A0917A04D6
:100AC000B0917B0484369105A105B10520F3C09057
:100AD0007404D0907504E0907604F0907704C1140B
:100AE000D104E104F104B9F240E0C701B6010E946B
:100AF000E704882381F28091B9029091BA028115AE
:100B0000924049F6A091BE02AA2329F26091BC024C
:100B10007091BD026115710509F4BDCF2091BB0232
:100B2000222309F4B8CFA0936D0520935F0590E0D0
:100B300080E030E0E1E0F0E0C82FAF01082E02C015
:100B4000440F551F0A94E2F72417350769F041E076
:100B5000480F01968930910579F7409368059BCF3E
:100B6000C12CD12C7601C0CF809368052091C4029E
:100B70003091C50250E040E02115310541F420914B
:100B8000D2023091D3024091D4025091D5022093E9
:100B900060053093610540936205509363054601FB
:100BA0005701860E971EA11CB11C80926E05909273
:100BB0006F05A0927005B0927105E091BF02F091AF
:100BC000C002F0937405E0937305B0E00E942E1A02
:100BD000DC01CB01880D991DAA1DBB1D80937505F5
:100BE00090937605A0937705B093780525E0EE0FF6
:100BF000FF1F2A95E1F7E150FE4FEF2FFF27E69503
:100C00008E0F9F1FA11DB11D8093690590936A05EA
:100C1000A0936B05B0936C058090C1029090C202C6
:100C2000B12CA12C8114910441F48090CE029090BB
:100C3000CF02A090D002B090D102C81AD90AEA0A15
:100C4000FB0AC80CD91CEA1CFB1C04C0F694E794F0
:100C5000D794C794CA95D2F7C0926405D09265051F
:100C6000E0926605F092670585EFC8168FE0D8061A
:100C7000E104F10428F48CE08093720581E00CCF4C
:100C800080E125EFC2162FEFD206E104F104A0F3B4
:100C90008091DA029091DB02A091DC02B091DD023A
:100CA0008093750590937605A0937705B0937805AA
:100CB00080E2E2CF4F925F926F927F928F929F92EB
:100CC000AF92BF92CF92DF92EF92FF920F931F935A
:100CD000CF93DF93EC01423051056105710590F42B
:100CE00080E0DF91CF911F910F91FF90EF90DF9007
:100CF000CF90BF90AF909F908F907F906F905F90BC
:100D00004F90089589859A85AB85BC850196A11D74
:100D1000B11D84179507A607B70710F3CB88DC88A9
:100D2000ED88FE888F89803109F042C0BB27A72F4C
:100D3000962F852F480159012A013B01C80ED91E63
:100D4000EA1EFB1E8091080190910901A0910A0101
:100D5000B0910B01C816D906EA06FB0699F58F89F2
:100D60008031C1F5B301A201552766277727440FCB
:100D7000551F42555D4FFA019182808280912D026C
:100D8000816080932D028A89823080F08D819E81DE
:100D9000AF81B8858C0D9D1DAE1DBF1D80932E02A9
:100DA00090932F02A0933002B093310281E099CF4B
:100DB000DB01CA01E7E0B695A79597958795EA9577
:100DC000D1F7B8CF40E0C701B6010E94E704811116
:100DD000C6CF86CFB301A2014F7755276627772765
:100DE000440F551F440F551F42555D4FFA01808235
:100DF0009182A282B382C2CF8F929F92AF92BF9212
:100E0000CF92DF92EF92FF920F931F93CF93DF93D6
:100E1000FC0181859285A385B4850196A11DB11D34
:100E200084179507A607B70770F480E0DF91CF918C
:100E30001F910F91FF90EF90DF90CF90BF90AF90F8
:100E40009F908F90089583889488A588B688878915
:100E5000803189F5BB27A72F962F852FE9016A01DD
:100E60007B018F01BC01CD01680D791D8A1D9B1D81
:100E70008090080190900901A0900A01B0900B01A8
:100E800086169706A806B90601F5F801878980310C
:100E900011F5DD24EE24FF24F601EE0FFF1FE255CD
:100EA000FD4F80819181B0E0A0E088839983AA837F
:100EB000BB8381E0BBCFDB01CA01C7E0B695A79534
:100EC00097958795CA95D1F7C9CF40E00E94E7046E
:100ED0008111DBCFAACFE894C7F8DD24EE24FF24EC
:100EE000F601EE0FFF1FEE0FFF1FE255FD4F808151
:100EF0009181A281B381BF70D8CF4F925F926F92E0
:100F00007F92AF92BF92CF92DF92EF92FF920F93B8
:100F10001F93CF93DF9300D000D0CDB7DEB78C0105
:100F200049835A836B837C835901C12CD12C760170
:100F3000412C82E0582E612C712C49815A816B81A1
:100F40007C819E012F5F3F4FC8010E94FC068823D1
:100F500039F1F8018585A301920104C0220F331FE6
:100F6000441F551F8A95D2F7DA01C901C80ED91E50
:100F7000EA1EFB1E49815A816B817C818789803101
:100F800011F188EF9FEFAFEFBFE0481759076A07ED
:100F90007B0798F2F501C082D182E282F38281E080
:100FA0000F900F900F900F90DF91CF911F910F91A5
:100FB000FF90EF90DF90CF90BF90AF907F906F90B9
:100FC0005F904F90089588EF9FEFA0E0B0E0DDCFF5
:100FD000CF93DF93FC012581222321F080E0DF9174
:100FE000CF910895EC0180917205803159F582E02E
:100FF0008583178A108E118E128E809173059091C1
:101000007405B0E0A0E025E0880F991FAA1FBB1F60
:101010002A95D1F7838B948BA58BB68B8BE595E0C6
:101020009C8F8B8F81E08C831E821F82188619868D
:101030001A861B861C861D861E861F86188A198A9C
:101040001A8ACDCF803251F683E0858340917505B1
:10105000509176056091770570917805478B508F98
:10106000618F728F9F012D5E3F4F8BE595E00E944F
:101070007D078111D3CFB2CF1F93CF93DF93FC01B4
:1010800025812223D1F1162FEC01848187FF2AC00C
:10109000668577858089918941E00E94E7048823ED
:1010A00061F1EA8980E2E89FF0011124E255FD4FE9
:1010B000309719F18D81823040F48B899C89AD89FC
:1010C000BE89848F958FA68FB78F8F89988D938FC8
:1010D000828F8F89988DA98DBA8DB58BA48B8C81C9
:1010E0008F778C83111103C08C818F7E8C83812F2D
:1010F000DF91CF911F910C94BC0480E0DF91CF91E0
:101100001F9108958F929F92AF92BF92CF92DF92DC
:10111000EF92FF920F931F93CF93DF93EC018D819A
:1011200081110EC080E0DF91CF911F910F91FF9050
:10113000EF90DF90CF90BF90AF909F908F900895E9
:101140000B891C892D893E89041715072607370747
:1011500048F34A015B01823031F48A869B86AC8673
:10116000BD8681E0E0CF81149104A104B10449F46B
:101170001E821F82188619861A861B861C861D866B
:10118000F0CF0A851B852C853D85EB8DFC8D8585F3
:1011900090E00996B901A80141505109610971090E
:1011A000082E04C076956795579547950A94D2F70F
:1011B00075016401E1E0CE1AD108E108F10804C02C
:1011C000F694E794D794C7948A95D2F7C416D506B7
:1011D000E606F70620F0012B022B032B11F58F8971
:1011E000988DA98DBA8D8E839F83A887B9878E012C
:1011F0000A5F1F4FC114D104E104F10409F4ADCF1B
:101200004E815F816885798598018B8D9C8D0E94C8
:10121000FC0691E0C91AD108E108F1088111EACF72
:1012200081CFC41AD50AE60AF70AE1CFFF920F93DD
:101230001F93CF93DF93EC018D81813041F090E0DB
:1012400080E0DF91CF911F910F91FF9008958C81E5
:1012500081FFF5CF82FD1BC00091AE041091AF0459
:10126000C8010E9415030E94F402F82EC8010E94D2
:10127000E2028FEFF812E3CF8C8185FF1BC060E0A4
:10128000CE010E943C088C818F7D8C83D8CF4B8906
:101290005C896D897E898A859B85AC85BD8584172F
:1012A0009507A607B707C1F2CE010E9482088111F7
:1012B000D3CFC5CF40912E0250912F0260913002C2
:1012C00070913102452B462B472B21F080E00E9484
:1012D0009804B5CF80618C832A853B85317080E08E
:1012E00092E0821B930BADCFCF93DF93EC0161E0D3
:1012F0000E943C08882311F01D8281E0DF91CF918C
:1013000008953F924F925F926F927F928F929F9239
:10131000AF92BF92CF92DF92EF92FF920F931F9303
:10132000CF93DF93CDB7DEB72C970FB6F894DEBF1F
:101330000FBECDBF5C01DC015B968D909C905C97ED
:1013400016964D905D906D907C90199741145104C4
:101350006104710409F468C0BFEF4B1A5B0A6B0AA1
:101360007B0A312CF40181859285A385B4859C018B
:10137000AD012F5F3F4F4F4F5F4F29873A874B8714
:101380005C87730162011D821E821F821886F40130
:1013900081859285A385B4852D813E814F815885B5
:1013A000281739074A075B0708F056C089859A85D0
:1013B000AB85BC858C159D05AE05BF0550F482E05C
:1013C000C82ED12CE12CF12C92E0492E512C612C0D
:1013D000712C9E012F5F3F4FB701A601C4010E94EF
:1013E000FC068823C9F189819A81AB81BC81892B54
:1013F0008A2B8B2B09F1260137019FEF491A590AD5
:10140000690A790A2D813E814F8158852F5F3F4FB0
:101410004F4F5F4F2D833E834F8358873FEFC31A53
:10142000D30AE30AF30AB3CFF4014080518062800B
:1014300073803324339496CFC414D504E604F704A0
:1014400009F70FEF1FEF2FEF3FE0B701A601C4012F
:101450000E945A06811119C080E02C960FB6F894AC
:10146000DEBF0FBECDBFDF91CF911F910F91FF90D7
:10147000EF90DF90CF90BF90AF909F908F907F9034
:101480006F905F904F903F900895D50116964D91C3
:101490005D916D917C91199741155105610571051B
:1014A00039F097018601C4010E945A068823A1F2EF
:1014B000D5011696CD92DD92ED92FC9219973320CC
:1014C00051F0D701C6010196A11DB11DF401808321
:1014D0009183A283B383F5018789908DA18DB28D0D
:1014E000892B8A2B8B2B39F48481C78AD08EE18E8D
:1014F000F28E80688483F50184818062848381E038
:10150000ACCF2F923F924F925F926F927F928F92C9
:101510009F92AF92BF92CF92DF92EF92FF920F9382
:101520001F93CF93DF9300D000D01F92CDB7DEB7CB
:101530007C015B01342E5D83DC0115968C9115973F
:10154000813009F0CEC014962C9021FECAC022FC36
:10155000B4C0C32CDD8022947FE027222094B22DDA
:10156000B1702B2ED7011A964D915D916D917C91A2
:101570001D97C114D10409F428C15B968D919C91EB
:101580005C97FC0174807A948A019B0169E036952E
:101590002795179507956A95D1F770228A011170E2
:1015A000711020C001151105E9F416964D915D9159
:1015B0006D917C911997411551056105710509F0EF
:1015C00099C057968D919D910D90BC91A02D00973B
:1015D000A105B10509F0B0C0C7010E9481098823A7
:1015E00009F47FC080E092E0801B910B46018C15CE
:1015F0009D0508F44C01D7015B964D915C915C9779
:1016000016968D919D910D90BC91A02D0297A109E8
:10161000B109FA01258504C0880F991FAA1FBB1FB5
:101620002A95D2F74685578560897189840F951F61
:10163000A61FB71F9C01AD01270D311D411D511D76
:1016400029013A01811432E0930609F07BC08091B0
:10165000080190910901A0910A01B0910B01841534
:101660009505A605B70559F48FEF9FEFDC01809330
:10167000080190930901A0930A01B0930B01022D78
:101680009501B301A2018091AE049091AF040E9434
:101690002A04882331F19EEFB91AC818D908F70136
:1016A00082859385A485B585880D991DA11DB11DE1
:1016B00082879387A487B58755CFF70143895489DB
:1016C0006589768982859385A485B58548175907EC
:1016D0006A077B0709F43DCFC7010E948208811188
:1016E00038CF81E090E0D70113969C938E931297A8
:1016F00080E007C09E012F5F3F4F0E94FC068111D2
:1017000002C090E079C089819A81AB81BC81F701E8
:10171000238D348DF901278948EF5FEF60E070E099
:10172000203121F048EF5FEF6FEF7FE084179507DE
:10173000A607B70708F050CFF70186839783A087E5
:10174000B18750CF0115110599F5D7011A964D9122
:101750005D916D917C911D9753968D919D910D900A
:10176000BC91A02D481759076A077B0708F181E053
:101770000E94BC04882309F4B4CF4092080150921F
:10178000090160920A0170920B0180912D02816023
:1017900080932D02C80182559D4FD5019C01280DD3
:1017A000391DFC012E173F0759F04D914193FACF97
:1017B00041E0C301B2010E94E7048111EBCF91CF58
:1017C000281B390BA20EB31E68CFF70183899489B9
:1017D000A589B68984179507A607B70738F48481C9
:1017E000438B548B658B768B80688483F70184816F
:1017F00083FD1AC0832D9D810F900F900F900F9045
:101800000F90DF91CF911F910F91FF90EF90DF909C
:10181000CF90BF90AF909F908F907F906F905F9090
:101820004F903F902F90089561E0C7010E943C08BF
:10183000882309F456CFDECFCF93DF931F92CDB725
:10184000DEB7698341E050E0BE016F5F7F4F0E94C9
:10185000810A0F90DF91CF910895FC01DB01129670
:101860008D919C9113979383828389E591E0918375
:10187000808314968C911497848315968C91159778
:10188000858316964D915D916D917C911997468354
:101890005783608771871A964D915D916D917C9108
:1018A0001D9742875387648775871E964D915D917A
:1018B0006D917C91519746875787608B718B5296BB
:1018C0008C915297828B53964D915D916D917C9145
:1018D0005697438B548B658B768B57964D915D91C4
:1018E0006D917C915A97478B508F618F728F5B9669
:1018F0008D919C91948F838F0895FC01818D928DA1
:10190000009719F061E00C943C080895DC015996A9
:10191000ED91FC913097B9F083899489A589B689B6
:101920004285538564857585841B950BA60BB70B83
:10193000811520E89207A105B10538F08FEF9FE7E8
:10194000A0E0B0E0089590E080E00895DC015996B1
:101950008D919C91009739F0DC01ED91FC91048010
:10196000F581E02D099490E080E00895CF93DF9316
:10197000EC01E98DFA8D309749F481E090E09B838A
:101980008A8390E080E0DF91CF91089513821282E4
:10199000898D9A8D0E94810AE98DFA8D2281338189
:1019A000232B59F7F0CFCF93DF931F92CDB7DEB73C
:1019B0006983DC01ED91FC910280F381E02D41E02F
:1019C00050E0BE016F5F7F4F09950F90DF91CF917F
:1019D00008952F923F924F925F926F927F928F92D3
:1019E0009F92AF92BF92CF92DF92EF92FF920F93AE
:1019F0001F93CF93DF9300D01F92CDB7DEB7FC01CA
:101A00008581811118C08FEF9FEF0F900F900F907D
:101A1000DF91CF911F910F91FF90EF90DF90CF90CA
:101A2000BF90AF909F908F907F906F905F904F90FE
:101A30003F902F900895848180FFE5CF438954899A
:101A40006589768982859385A485B585312C212C7D
:101A5000481759076A077B0719F022242394312C71
:101A60006F012101CE0101963C01DF011696BB8377
:101A7000AA834114510409F4C5C0F6014285538577
:101A8000648575854A01F1E09F22D6015B968D91B0
:101A90009C915C978A019B01E9E036952795179503
:101AA0000795EA95D1F71596EC91E230E9F5FC013E
:101AB000628D738D848D958D600F711F821F931FB2
:101AC000A12C22E0B22EA818B9084A145B0408F42D
:101AD0005201F601248126FD04C0A114F2E0BF06E4
:101AE00071F4009108011091090120910A013091CF
:101AF0000B01061717072807390709F05EC040E0F9
:101B00000E94E704882309F47ECFC40182559D4FCB
:101B1000D3019C012A0D3B1DFC012E173F0709F440
:101B20006CC041914D93F9CFDC011496BC90BA94EE
:101B3000B0228114910479F4B1100DC0452B462BCD
:101B4000472B69F5F6018789908DA18DB28D86832B
:101B50009783A087B187D6015B96ED91FC915C9746
:101B600016966D917D918D919C9119976250710996
:101B700081099109258504C0660F771F881F991F69
:101B80002A95D2F70685178520893189600F711F44
:101B9000821F931F6B0D711D811D911D91CFD60169
:101BA00016964D915D916D917C9119972A813B819B
:101BB0000E94FC068111CFCF26CF730185019401CD
:101BC000AB01BC018091AE049091AF040E948803E8
:101BD000882309F418CF6A0C7B1CF6018285938553
:101BE000A485B5858A0D9B1DA11DB11D8287938794
:101BF000A487B5874A185B083CCF281B390B620EB7
:101C0000731EEBCF2A94232809F0FDCE898190E042
:101C1000FCCEFC01818D928D009711F00C94E90CA3
:101C20008FEF9FEF08950F931F93CF93DF93EC01F6
:101C3000898D9A8D10E000E0009799F00E94E90CE0
:101C40008C010F3F100769F0898D9A8DFC01428548
:101C500053856485758541505109610971090E9458
:101C60008208C801DF91CF911F910F910895CF9302
:101C7000DF93EC01FB01828193819B838A8387E759
:101C800091E09983888384818C8385818D8386818B
:101C90008E8388E03796DE01179601900D928A9523
:101CA000E1F7FB0187858F878089888B8189898B04
:101CB00082898A8B83898B8B84899589A689B78948
:101CC0008C8B9D8BAE8BBF8BDF91CF910895089548
:101CD00090E080E00895CF93DF93EC0160E08E8187
:101CE0000E94EC0161E08E810E94EC0160E08E8137
:101CF0000E94EC018BE891E00197F1F7DF91CF9121
:101D00000895CF92DF92EF92FF920F931F93CF939C
:101D1000DF936C017C0187E0E80EF11CD0E0C0E0AD
:101D2000062F10E0B8010C2E02C0759567950A9435
:101D3000E2F76170F70181917F010E94EC01219629
:101D4000C430D10579F7C601DF91CF911F910F9172
:101D5000FF90EF90DF90CF900C946B0ECF92DF92BC
:101D6000EF92FF920F931F93CF93DF93EC01F62E28
:101D7000642F8C810E94EC018D818F3F19F060E00F
:101D80000E94EC010F2D10E08F8584FF25C06E01AD
:101D900087E0C80ED11CF12CE12CB8010E2C02C03A
:101DA000759567950A94E2F76170F60181916F016C
:101DB0000E94EC01FFEFEF1AFF0A88E0E816F10439
:101DC00061F7CE01DF91CF911F910F91FF90EF90BE
:101DD000DF90CF900C946B0EB80184E075956795F9
:101DE0008A95E1F7CE010E94810E6F2DCE01DF9121
:101DF000CF911F910F91FF90EF90DF90CF900C94B7
:101E0000810E41E00E94AE0E81E090E0089540E036
:101E10000C94AE0EDC015396EC91E23040F4E150AC
:101E2000E80FF92FF11D648960680C94070FE1E059
:101E3000F7CF61E00E94070F8BE39FE10197F1F775
:101E40000895CF93DF93823029F49091C205986072
:101E50009093C2058093C6051092C70580E48093D5
:101E6000C80580E18093C90580E58093CA0561E0DB
:101E70008091B7050E941A028091B8058F3F19F032
:101E800061E00E941A0261E08091B9050E941A0285
:101E9000C3EBD5E09E01235B35408091C20584FDF4
:101EA0000BC084E090E021962817390744F461E0E4
:101EB0008E810E941A02EECF88E090E0F4CF8BE38F
:101EC0009DE00197F1F760E08091B7050E94EC0179
:101ED00060E08091B9050E94EC018091B8058F3FC8
:101EE00019F060E00E94EC016091C20564FD3CC005
:101EF00063E083EB95E00E94810ECBE4D6E4CE0153
:101F00000197F1F763E083EB95E00E94810E219742
:101F1000F1F763E083EB95E00E94810E83E592E0A8
:101F20000197F1F762E083EB95E00E94810E6091EA
:101F3000C205606283EB95E00E94070F84E0809306
:101F4000C3056CE083EB95E00E94070F83EB95E0FF
:101F50000E94190F82E08093C40566E083EB95E050
:101F6000DF91CF910C94070F606283EB95E00E94A4
:101F7000070F8BE496E40197F1F76091C205606268
:101F800083EB95E00E94070F83E592E00197F1F75C
:101F90006091C205606283EB95E00E94070FC7CF96
:101FA000CF92DF92EF92FF921F93CF93DF93EC01DA
:101FB00080E2689FF0011124E255FD4F93859171F5
:101FC00061F0842F827449F080E0DF91CF911F91FE
:101FD000FF90EF90DF90CF900895142F6A8B80913F
:101FE000080190910901A0910A01B0910B018E871F
:101FF0009F87A88BB98BC488D588F12CE12C7601FA
:10200000DD24CC24CF8AD88EE98EFA8E828D938DF2
:10201000B0E0A0E0AC01BD014C295D296E297F290B
:102020004F8B588F698F7A8F83858871B1F4848D37
:10203000958DA68DB78D8B8B9C8BAD8BBE8B81E0E8
:102040008D831F701C831E821F82188619861A8634
:102050001B861C861D8681E0B8CF803109F0B4CF85
:102060009E012D5E3F4F8B8D9C8D0E947D078823A6
:1020700009F4AACF84E0E4CFFB0101900020E9F746
:102080003197AF01461B570BDC01ED91FC910280AB
:10209000F381E02D09944F925F926F927F928F921D
:1020A0009F92AF92BF92CF92DF92EF92FF920F93E7
:1020B0001F93CF93DF93CDB7DEB7A1970FB6F894F8
:1020C000DEBF0FBECDBF8C016B01770FEE08FF089E
:1020D000F7FE50C0DC01ED91FC910190F081E02D04
:1020E0006DE209955C0122273327A9012C193D09CE
:1020F0004E095F0919A2FE01B1967F019AE0492EAF
:10210000512C612C712CCA01B901A30192010E94CA
:102110000C1A605DD7016E937D01211531054105D3
:10212000510589F790E080E0109721F0BD01C801CA
:102130000E943C10A80EB91E6FE771E0C8010E9412
:102140003C108A0D9B1DA1960FB6F894DEBF0FBE02
:10215000CDBFDF91CF911F910F91FF90EF90DF9056
:10216000CF90BF90AF909F908F907F906F905F9037
:102170004F900895A701960119A2FE01B1967F0123
:102180008AE0882E912CA12CB12CCA01B901A5019D
:1021900094010E940C1A605DD7016E937D01211598
:1021A00031054105510589F7B12CA12C109721F279
:1021B000BD01C8010E943C105C01BECF0F931F936C
:1021C000CF93DF93EC010E943C108C016FE771E02C
:1021D000CE010E943C10800F911FDF91CF911F9183
:1021E0000F910895CF93DF9362E871E080EB94E064
:1021F0000E94DE10E1ECF0E08491EDEAF0E0D49191
:10220000E9E9F0E0C491CC2349F181110E94C301B6
:10221000EC2FF0E0EE0FFF1FE859FF4FA591B491AE
:10222000EC91ED2391E080E009F490E0C92FD82FE4
:10223000BE0180EB94E00E944B10CD2B61F06CE866
:1022400071E080EB94E00E94DE1081E090E09093DA
:102250002C0280932B02DF91CF910895D0E0C0E053
:10226000E7CF0F931F93CF93DF93EC01CE010E9432
:10227000190F67E271E0CE010E943C10CE010E946E
:102280000A0F60E0CE010E94010F66E171E0CE010D
:102290000E943C1080912B0290912C020197D1F169
:1022A00060E17EE080E090E00E94850180912B0259
:1022B00090912C02019771F10BE010E068E1CE01E2
:1022C0000E94070F80912B0290912C02019711F12F
:1022D00068E572E080E090E00E94850180912B0229
:1022E00090912C020197B1F00150110939F78091BA
:1022F0002B0290912C02019769F060E971E080E077
:1023000090E00E94850180912B0290912C02019710
:1023100009F0ACCF90E080E0DF91CF911F910F9159
:102320000895CF93DF93CDB7DEB7E0970FB6F8945B
:10233000DEBF0FBECDBFBC01CE0149960E94370E55
:10234000CE0149960E94190FCE0149960E940A0FAC
:1023500069A5862F816089A76960CE0149960E9490
:10236000070FF12CE12CD12C10E000E003C0D82E97
:1023700001E010E08EE00E947902909326028093A3
:1023800025028FE00E947902909328028093270211
:1023900080E10E94790290932A0280932902609141
:1023A00025027091260280EB94E00E944B108091F0
:1023B0002502909126028E3D23E09207B4F58C3AD7
:1023C00023E09207A4F5863A23E0920794F58B392F
:1023D00023E0920784F5833923E0920774F585386A
:1023E00023E0920764F5843723E0920754F587369B
:1023F00023E0920744F5893423E0920734F58132D3
:1024000023E0920724F58F3E22E0920714F58F39DE
:1024100022E0920704F5853F9140FCF081E701300E
:102420001105E9F08111A3CF9FCF80E0F8CF83E6BB
:10243000F6CF84E3F4CF84E6F2CF85E6F0CF88E7E9
:10244000EECF83E3ECCF83E7EACF87E7E8CF8AE7F5
:10245000E6CF82E3E4CF81E6E2CF81E3E0CF8111F2
:1024600089CF8FEFE81AF80A22E3E216F10409F0A7
:1024700081CF41E06D2DCE0149960E94AE0E809134
:10248000230290912402FC01ED5EFD4FD082019663
:102490008031910539F09093240280932302F12C2E
:1024A000E12C62CF1092240210922302BE01675EDB
:1024B0007F4FCE0101960E94370ECE0101960E94F9
:1024C000190F6989862F8160898B6960CE01019619
:1024D0000E94070F63E172E0CE0101960E943C105A
:1024E000CE0101960E940A0FDACF1F93CF93DF939C
:1024F00085ED8093BC008091370290913802A091C5
:102500003902B0913A020796A11DB11D23E0B6959C
:10251000A795979587952A95D1F72091BC0024FD22
:1025200003C010927F0252C040913702509138028E
:102530006091390270913A02452B462B472B69F383
:102540000097A105B10541F025E32A95F1F70000B8
:102550000197A109B109E1CF80913602C1E0C09392
:102560003502882399F1D091B8001091BA0080917A
:10257000BC008A7B8093BC0060E082E10E94EC0199
:1025800060E083E10E94EC0110927F02C09381021F
:102590001092800261E082E10E94EC0161E083E13F
:1025A0000E94EC018091B9008E7F8093B9008091E8
:1025B000B9008D7F8093B90088E48093B80085E4EA
:1025C0008093BC001093BA00D093B800DF91CF91F4
:1025D0001F9108953F924F925F926F927F928F92D8
:1025E0009F92AF92BF92CF92DF92EF92FF920F93A2
:1025F0001F93CF93DF93CDB7DEB72B970FB6F89429
:10260000DEBF0FBECDBF7C01FE013196CE010C9620
:102610006F0130E23193E817F907E1F7DA0130E0B2
:1026200087E09D91B92E992309F43CC09E32F1F4C4
:102630008A30C9F480E02B960FB6F894DEBF0FBE47
:10264000CDBFDF91CF911F910F91FF90EF90DF9061
:10265000CF90BF90AF909F908F907F906F905F9042
:102660004F903F90089538E08AE0DBCFE2E7F0E05A
:102670004491442321F031969413FACFDBCF831792
:10268000C8F24FED490F4E35A8F64FE9490F4A31D0
:1026900018F440EEB42EB90EF601E30FF11DB0822E
:1026A0003F5FBFCF8981803229F2322E8B01DB015F
:1026B0005B968D919C915C97F701948F838F169612
:1026C0001D921D921D921C921997FB011286138672
:1026D00014861586F80182859385A485B58543897E
:1026E00054896589768984179507A607B70708F086
:1026F0004DC025E0B695A795979587952A95D1F772
:10270000F82FFF70AF2ED80115968C91823008F407
:1027100091CFC8010E94E90C97FD8CCFF80182850A
:102720009385A485B5854F96A11DB11D828793879A
:10273000A487B587F0E2AF9EB001112462557D4FAA
:102740006115710509F476CFDB018C91882341F086
:10275000853E09F062C0BB2029F0BB24B394BACFF8
:10276000B1100EC0F701A28A809108019091090171
:10277000A0910A01B0910B0186879787A08BB18B3E
:10278000DB018C918111E9CFBB24B394832D82713D
:10279000823109F04FCFBB2009F44DC0F7016685A7
:1027A00077858089918941E00E94E704882309F4B4
:1027B00041CFD70152968C91B0E28B9FC00111247A
:1027C00082559D4F009709F435CFFC013A9626E1DA
:1027D000DF011D922A95E9F72BE0F601DC0101905B
:1027E0000D922A95E1F721E238E2FC01318B208B32
:1027F00040E058E057874687338B228B318F208FFC
:10280000578B468B81E00E94BC04882309F412CFC9
:10281000432DD70152966C910AC04BE050E0C6019F
:102820000E94731B892B09F055CF432D6A2DC701D8
:102830000E94D00F00CFF8018581823009F4FACED2
:10284000C8010E948109882309F4F4CED8015B965F
:10285000ED91FC915C9716968D909D90AD90BC90FB
:102860001997B2E08B1A9108A108B108858504C0B8
:10287000880C991CAA1CBB1C8A95D2F78685978563
:10288000A089B189880E991EAA1EBB1E84812401CD
:102890003501480E511C611C711C84149504A6045A
:1028A000B70409F1E1E04E1A51086108710881E0AE
:1028B0000E94BC04882309F4BDCEEEEAF2E0119236
:1028C0008EEA94E08E179F07D1F74092080150924C
:1028D000090160920A0170920B0180912D028160C2
:1028E00080932D02DACFD8015B96ED91FC9125857E
:1028F00080E092E0A0E0B0E004C0880F991FAA1F1A
:10290000BB1F2A95D2F7F8014389548965897689D6
:10291000840F951FA61FB71F838B948BA58BB68B37
:10292000D70152961C928EEA92E04FCFEF92FF921F
:102930000F931F93CF93DF93EC017B018A011B82DE
:102940001A8288EE93E0A0E0B0E08C839D83AE8392
:10295000BF8385E691E0998388838DE190E00E94B2
:102960004E1A9A8F898F009779F02DE1F701DC01DB
:1029700001900D922A95E1F74CE050E0B801CE01AC
:102980000C960E94801B188EDF91CF911F910F91A2
:10299000FF90EF9008951F920F920FB60F9211249F
:1029A0002F933F938F939F93AF93BF938091A602F2
:1029B0009091A702A091A802B091A9023091A5021E
:1029C00023E0230F2D3758F50196A11DB11D20934B
:1029D000A5028093A6029093A702A093A802B093A9
:1029E000A9028091AA029091AB02A091AC02B09191
:1029F000AD020196A11DB11D8093AA029093AB0276
:102A0000A093AC02B093AD02BF91AF919F918F9113
:102A10003F912F910F900FBE0F901F90189526E8B1
:102A2000230F0296A11DB11DD2CF1F920F920FB698
:102A30000F9211242F933F934F935F936F937F9344
:102A40008F939F93AF93BF93EF93FF93E0910E010A
:102A5000F0910F010995FF91EF91BF91AF919F9177
:102A60008F917F916F915F914F913F912F910F9037
:102A70000FBE0F901F9018951F920F920FB60F92D6
:102A800011242F933F934F935F936F937F938F9373
:102A90009F93AF93BF93EF93FF93E0910C01F0915D
:102AA0000D010995FF91EF91BF91AF919F918F918A
:102AB0007F916F915F914F913F912F910F900FBE3A
:102AC0000F901F9018951F920F920FB60F9211241E
:102AD0002F933F934F935F936F937F938F939F9326
:102AE000AF93BF93EF93FF9380EB94E00E94D100EC
:102AF000FF91EF91BF91AF919F918F917F916F91D6
:102B00005F914F913F912F910F900FBE0F901F90AB
:102B100018951F920F920FB60F9211242F938F9337
:102B20009F93EF93FF93E091C004F091C1048081E3
:102B3000E091C604F091C70482FD1BC09081809192
:102B4000C9048F5F8F732091CA04821741F0E0910E
:102B5000C904F0E0E055FB4F958F8093C904FF91C5
:102B6000EF919F918F912F910F900FBE0F901F901B
:102B700018958081F4CF1F920F920FB60F921124F7
:102B80002F933F934F935F936F937F938F939F9375
:102B9000AF93BF93EF93FF938091B900887F803606
:102BA00009F44AC0F0F5883209F4A5C018F580315F
:102BB00009F499C0B8F4882309F4F5C0883009F401
:102BC00092C0FF91EF91BF91AF919F918F917F91B3
:102BD0006F915F914F913F912F910F900FBE0F908A
:102BE0001F901895883109F486C0803251F7809380
:102BF0007E0214C0803409F49BC040F48033B9F3E2
:102C00008833F9F680937E0285ECAEC0803509F4F6
:102C100083C0883509F494C0883499F60E947512EF
:102C2000D0CF883909F48AC038F5883729F050F4B4
:102C3000883611F0803729F683E080937F02109266
:102C40007D0255C0883809F479C0803919F0803880
:102C500009F0B7CF80917D02803208F06FC0E0911B
:102C60007D0281E08E0F80937D028091BB00F0E0B9
:102C7000E35AFD4F80833BC0803B39F0D0F4803A6B
:102C800009F477C0883A09F09CCF84E080937F02F2
:102C900010925C0210925B02F0E0E0E009958091F6
:102CA0005B0281110FC081E080935B0210923B02B6
:102CB00009C0803C09F4A8CF883C09F4A5CF883B23
:102CC00009F07FCFE0915C0281E08E0F80935C027F
:102CD000F0E0E55CFD4F80818093BB0090915C0249
:102CE00080915B0229C08091A4028093BB0085EC97
:102CF0008093BC0066CF9091A3028091A2029817A6
:102D000058F5E091A30281E08E0F8093A302F0E0DA
:102D1000EE57FD4F8081E9CFE091A30281E08E0F55
:102D20008093A3028091BB00F0E0EE57FD4F8083BB
:102D30009091A3028091A2029817C8F285E8D8CF9B
:102D4000E091A30281E08E0F8093A3028091BB00EB
:102D5000F0E0EE57FD4F80838091810281115ECFBC
:102D600081E08093800284EA8093BC0010927F020D
:102D700028CF85EC8093BC0010927F0280917D0269
:102D8000803230F4E0917D02F0E0E35AFD4F108292
:102D900060917D0270E08DE592E0F0E0E0E0099561
:102DA00010927D020ECF10927E0238CFCF92DF922A
:102DB000EF92FF92E0EBF4E01382128288EEC82ECD
:102DC00083E0D82EE12CF12CC482D582E682F782F2
:102DD00087E491E09183808385EC90E095878487F8
:102DE00084EC90E09787868780EC90E0918B808BD5
:102DF00081EC90E0938B828B82EC90E0958B848BBE
:102E000086EC90E0978B868B118E128E138E148E2B
:102E1000EDE4F5E080E580831182EFE4F5E01582D2
:102E200016821186138682E090E0A0E0B0E08487ED
:102E30009587A687B78713A215A614A689E591E002
:102E400093A782A717A6E3EBF5E01382128287E728
:102E500091E09183808384E084838FEF858385E094
:102E6000868386E0878387E0808788E0818789E0A2
:102E700082871386148615861686178681E00E943F
:102E8000210FE8E9F5E013821282C482D582E6823E
:102E9000F78285E691E091838083128E118E1486ED
:102EA000FF90EF90DF90CF900895CF93DF93CDB751
:102EB000DEB7C257D1090FB6F894DEBF0FBECDBF43
:102EC000789484B5826084BD84B5816084BD85B505
:102ED000826085BD85B5816085BD80916E00816011
:102EE00080936E00109281008091810082608093B7
:102EF00081008091810081608093810080918000B9
:102F00008160809380008091B10084608093B100E3
:102F10008091B00081608093B00080917A008460DD
:102F200080937A0080917A00826080937A00809109
:102F30007A00816080937A0080917A008068809323
:102F40007A001092C10061E08DE00E941A0260E0F8
:102F500083E00E941A0282EF90E190930F01809328
:102F60000E0180916900837F846080936900E99AF3
:102F7000E091C004F091C10482E08083E091BC0440
:102F8000F091BD041082E091BE04F091BF048FEC7B
:102F900080831092C804E091C404F091C50486E0D7
:102FA0008083E091C204F091C304808180618083BA
:102FB000E091C204F091C304808188608083E09135
:102FC000C204F091C304808180688083E091C204D0
:102FD000F091C30480818F7D808380917E0588235A
:102FE00021F089E795E00E94740910925A05109229
:102FF000580510925505109254058AE080935305A8
:103000000E94B7018B0161E0809153050E941A0272
:1030100061E0809153050E94EC01FFB6F894809125
:103020001202811127C0E0EAF0E08491E4EBF0E0C5
:103030009491E82FF0E0EE0FFF1FEE57FF4FA591A0
:10304000B491EC91E92321F461E08AE00E94EC0163
:1030500061E08AE00E941A028CB580618CBD8CB55B
:1030600080648CBD61E08DE00E941A0261E08BE01B
:103070000E941A02809112028F5F80931202FFBE9B
:1030800082E580934D0510924E0580914D059091FB
:103090004E050E9412033AE0F32E8FEF0E94ED02DC
:1030A000FA94F110FACF8FE495E00E94150320E026
:1030B00030E0A90160E08FE495E00E942B03F82E38
:1030C0008093590581E0F816A9F00E94B701601BB2
:1030D000710B613D774058F381E0809354058FE494
:1030E00095E00E94E2026EE971E080EB94E00E94BC
:1030F000DE10FFCF2AEA31E040E050E068E08FE4E4
:1031000095E00E942B0382FF2AC0F0925A0580911D
:103110005A05C12CD12C7601823029F4C12CD12C36
:10312000E12C90E4F92E20E030E0A90167E38FE480
:1031300095E00E942B03A701960169E28FE495E0D8
:103140000E942B03809359058823D1F00E94B70178
:10315000601B710B613D774030F388E0BECF24E007
:10316000F22E0E94F40280935905FA94F110F9CFDF
:103170008A3A11F082E0B1CF82E080935A05C7CF3E
:1031800080915A058230D1F420E030E0A9016AE351
:103190008FE495E00E942B03882311F086E09DCFF9
:1031A0000E94F402807C803C19F483E080935A05ED
:1031B0000E94F4020E94F4020E94F4028FE495E05F
:1031C0000E94E20280E580934D0510924E0581E059
:1031D0000E943105882309F4DFC089E795E00E9449
:1031E000E807882309F47FCF1C821B8209E511E0E0
:1031F0001A8309831E82CE0101960E94E807BE0150
:103200006F5F7F4FCE01CB960E942D0C19A218A2A2
:103210001F8F0E8F1BA221968FAD21978111C3C0E6
:103220006C961FAE1EAE6C9788EE93E0A0E0B0E007
:10323000A0968CAF9DAFAEAFBFAFA09785E691E0F3
:103240006A969FAF8EAF6A97E3961FAE1EAEE39766
:10325000A5961FAEA5976C968EAD9FAD6C9790937B
:103260009B0580939A05A0968CAD9DADAEADBFAD8C
:10327000A09780939C0590939D05A0939E05B09385
:103280009F05A4968CAD9DADAEADBFADA4978093C8
:10329000A0059093A105A093A205B093A305A8E56E
:1032A000B0E0AC0FBD1F1C96E4EAF5E08D91819370
:1032B00085E0E13BF807D1F7E396EEADFFADE3978C
:1032C000F093B205E093B105309709F497C085817A
:1032D000882309F493C065EB71E080EB94E00E94D1
:1032E0003C106CEC71E088E995E00E94DE1063EE22
:1032F00071E088E995E00E94DE1010E000E0B8017E
:1033000088E995E00E944B100F5F1F4F04311105B3
:10331000B1F78091B1059091B205009761F00E94DC
:1033200074098091B1059091B2050E94EA1A109239
:10333000B2051092B10564EF71E080EB94E00E9459
:10334000DE1060E483EB95E00E94070F00E011E0DF
:1033500088E0E82E81E0F82EF80161918F0183EB7F
:1033600095E00E94010FE016F106B1F782E00E949D
:10337000210F80912B0290912C02009709F441C0FB
:103380000197B9F763EB75E0CE0101960E94370E05
:10339000CE0101960E94911180E00E9431058823A0
:1033A00009F4A1CE1ACF27E148E052E0BE01655CE6
:1033B0007F4FCE014E960E94EA12882309F430CF47
:1033C000CE01CB960E94740949A95AA96BA97CA980
:1033D000CE014E960E948208BE01625E7F4FCE01F2
:1033E00001960E942D0C48E052E0BE016F5F7F4FB6
:1033F000CE01885A9F4F0E9496142DCF6AEF71E03C
:103400009CCF63EB75E0CE0101960E94370ECE0192
:1034100001960E943111ADCFA1E21A2EAA1BBB1B4F
:10342000FD010DC0AA1FBB1FEE1FFF1FA217B30790
:10343000E407F50720F0A21BB30BE40BF50B661FA6
:10344000771F881F991F1A9469F76095709580956A
:1034500090959B01AC01BD01CF0108950E943F1AD8
:10346000A59F900DB49F900DA49F800D911D1124D8
:103470000895EE0FFF1F0590F491E02D0994A29F8F
:10348000B001B39FC001A39F700D811D1124911D38
:10349000B29F700D811D1124911D08950F931F93EC
:1034A000CF93DF938230910510F482E090E0E091B9
:1034B000CD05F091CE0530E020E0B0E0A0E03097FF
:1034C00099F42115310509F44AC0281B390B243021
:1034D0003105D8F58A819B816115710589F1FB0160
:1034E00093838283FE0111C0408151810281138147
:1034F00048175907E0F04817590799F4109761F0F9
:1035000012960C93129713961C933296CF01DF916B
:10351000CF911F910F9108950093CD051093CE0583
:10352000F4CF2115310551F04217530738F0A901A6
:10353000DB019A01BD01DF01F801C1CFEF01F9CF35
:103540009093CE058093CD05CDCFFE01E20FF31F02
:10355000819391932250310939832883D7CF2091C9
:10356000CB053091CC05232B41F4209112013091F1
:1035700013013093CC052093CB052091100130919D
:1035800011012115310541F42DB73EB740911401C9
:1035900050911501241B350BE091CB05F091CC0522
:1035A000E217F307A0F42E1B3F0B2817390778F01A
:1035B000AC014E5F5F4F2417350748F04E0F5F1F79
:1035C0005093CC054093CB05819391939FCFF0E02E
:1035D000E0E09CCFCF93DF930097E9F0FC013297B6
:1035E00013821282A091CD05B091CE05ED0130E09D
:1035F00020E01097A1F420813181820F931F209148
:10360000CB053091CC052817390709F061C0F0933C
:10361000CC05E093CB05DF91CF910895EA01CE1759
:10362000DF07E8F54A815B819E0141155105B1F73D
:10363000E901FB83EA8349915991C40FD51FEC1727
:10364000FD0761F4808191810296840F951FE90145
:1036500099838883828193819B838A83F0E0E0E071
:1036600012968D919C9113970097B9F52D913C91ED
:103670001197CD010296820F931F2091CB053091B7
:10368000CC052817390739F6309751F51092CE0539
:103690001092CD05B093CC05A093CB05BCCFD383BE
:1036A000C28340815181840F951FC817D90761F4E7
:1036B0004E5F5F4F88819981480F591F5183408326
:1036C0008A819B81938382832115310509F0B0CFD4
:1036D000F093CE05E093CD059ECFFD01DC01C0CF78
:1036E00013821282D7CFFB01DC0104C08D910190BF
:1036F000801921F441505040C8F7881B990B089558
:10370000FB01DC014150504048F001900D92002037
:10371000C9F701C01D9241505040E0F70895F89458
:02372000FFCFD9
:103722000E111D191D110E00FFFFFFFF4B024B0270
:103732000000CF05800032303230204E6F616820A9
:103742005765696E65720057656C636F6D652074AD
:103752006F20746865204879706557726974657264
:1037620021210000000000F3004C0294004001C53A
:1037720000A300B700000000001C0C4C02160967F1
:103782000E00000000D30CB60CA60C7D0C860C09B2
:103792000E130E00000000010F4C02680E670E0DA2
:1037A2000A00496E74657272757074007365747480
:1037B200696E6720746F20747970696E6700696E34
:1037C200697469616C697A6174696F6E2066616996
:1037D2006C6564210057726974696E6720746F208A
:1037E200746573742E7478742E2E2E005468697367
:1037F200206973206120746573742066696C65208A
:103802003A290074657374696E6720312C20322C5A
:1038120020332E00646F6E652E006572726F722007
:103822006F70656E696E6720746573742E74787438
:02383200000094
:00000001FF
